{
  "contractName": "HeirloomEscrow",
  "abi": [
    {
      "inputs": [
        {
          "internalType": "address",
          "name": "heirloomToken",
          "type": "address"
        },
        {
          "internalType": "address",
          "name": "operator",
          "type": "address"
        }
      ],
      "stateMutability": "nonpayable",
      "type": "constructor"
    },
    {
      "anonymous": false,
      "inputs": [
        {
          "indexed": true,
          "internalType": "address",
          "name": "licenseProvider",
          "type": "address"
        },
        {
          "indexed": true,
          "internalType": "address",
          "name": "representative",
          "type": "address"
        }
      ],
      "name": "AccountCreated",
      "type": "event"
    },
    {
      "anonymous": false,
      "inputs": [
        {
          "indexed": true,
          "internalType": "uint256",
          "name": "saleId",
          "type": "uint256"
        },
        {
          "indexed": true,
          "internalType": "uint256",
          "name": "tokenId",
          "type": "uint256"
        },
        {
          "indexed": false,
          "internalType": "address",
          "name": "buyer",
          "type": "address"
        },
        {
          "indexed": false,
          "internalType": "uint256",
          "name": "amount",
          "type": "uint256"
        }
      ],
      "name": "BoughtFromSale",
      "type": "event"
    },
    {
      "anonymous": false,
      "inputs": [
        {
          "indexed": true,
          "internalType": "uint96",
          "name": "Commission",
          "type": "uint96"
        }
      ],
      "name": "CommissionUpdated",
      "type": "event"
    },
    {
      "anonymous": false,
      "inputs": [
        {
          "indexed": true,
          "internalType": "address",
          "name": "payee",
          "type": "address"
        },
        {
          "indexed": true,
          "internalType": "uint256",
          "name": "weiAmount",
          "type": "uint256"
        }
      ],
      "name": "Deposited",
      "type": "event"
    },
    {
      "anonymous": false,
      "inputs": [
        {
          "indexed": true,
          "internalType": "address",
          "name": "payee",
          "type": "address"
        },
        {
          "indexed": true,
          "internalType": "uint256",
          "name": "weiAmount",
          "type": "uint256"
        }
      ],
      "name": "ERC20Deposited",
      "type": "event"
    },
    {
      "anonymous": false,
      "inputs": [
        {
          "indexed": true,
          "internalType": "address",
          "name": "newEscrow",
          "type": "address"
        }
      ],
      "name": "EscrowUpdated",
      "type": "event"
    },
    {
      "anonymous": false,
      "inputs": [
        {
          "indexed": true,
          "internalType": "uint256",
          "name": "licenseId",
          "type": "uint256"
        },
        {
          "indexed": true,
          "internalType": "uint256",
          "name": "tokenId",
          "type": "uint256"
        },
        {
          "indexed": false,
          "internalType": "address",
          "name": "seller",
          "type": "address"
        },
        {
          "indexed": false,
          "internalType": "uint256",
          "name": "price",
          "type": "uint256"
        },
        {
          "indexed": true,
          "internalType": "uint256",
          "name": "listedAmount",
          "type": "uint256"
        }
      ],
      "name": "LicenseListed",
      "type": "event"
    },
    {
      "anonymous": false,
      "inputs": [
        {
          "indexed": false,
          "internalType": "uint256",
          "name": "licenseId",
          "type": "uint256"
        },
        {
          "indexed": true,
          "internalType": "uint256",
          "name": "tokenId",
          "type": "uint256"
        },
        {
          "indexed": true,
          "internalType": "address",
          "name": "seller",
          "type": "address"
        },
        {
          "indexed": true,
          "internalType": "address",
          "name": "buyer",
          "type": "address"
        },
        {
          "indexed": false,
          "internalType": "uint256",
          "name": "amount",
          "type": "uint256"
        },
        {
          "indexed": false,
          "internalType": "uint256",
          "name": "price",
          "type": "uint256"
        }
      ],
      "name": "LicenseSold",
      "type": "event"
    },
    {
      "anonymous": false,
      "inputs": [
        {
          "indexed": true,
          "internalType": "uint256",
          "name": "licenseId",
          "type": "uint256"
        },
        {
          "indexed": true,
          "internalType": "uint256",
          "name": "tokenId",
          "type": "uint256"
        },
        {
          "indexed": true,
          "internalType": "address",
          "name": "seller",
          "type": "address"
        },
        {
          "indexed": false,
          "internalType": "enum Types.ListedStatus",
          "name": "status",
          "type": "uint8"
        }
      ],
      "name": "ListedLicenseClosed",
      "type": "event"
    },
    {
      "anonymous": false,
      "inputs": [
        {
          "indexed": true,
          "internalType": "uint256",
          "name": "listingFee",
          "type": "uint256"
        }
      ],
      "name": "ListingFeeUpdated",
      "type": "event"
    },
    {
      "anonymous": false,
      "inputs": [
        {
          "indexed": false,
          "internalType": "address",
          "name": "account",
          "type": "address"
        }
      ],
      "name": "Paused",
      "type": "event"
    },
    {
      "anonymous": false,
      "inputs": [
        {
          "indexed": true,
          "internalType": "bytes32",
          "name": "role",
          "type": "bytes32"
        },
        {
          "indexed": true,
          "internalType": "bytes32",
          "name": "previousAdminRole",
          "type": "bytes32"
        },
        {
          "indexed": true,
          "internalType": "bytes32",
          "name": "newAdminRole",
          "type": "bytes32"
        }
      ],
      "name": "RoleAdminChanged",
      "type": "event"
    },
    {
      "anonymous": false,
      "inputs": [
        {
          "indexed": true,
          "internalType": "bytes32",
          "name": "role",
          "type": "bytes32"
        },
        {
          "indexed": true,
          "internalType": "address",
          "name": "account",
          "type": "address"
        },
        {
          "indexed": true,
          "internalType": "address",
          "name": "sender",
          "type": "address"
        }
      ],
      "name": "RoleGranted",
      "type": "event"
    },
    {
      "anonymous": false,
      "inputs": [
        {
          "indexed": true,
          "internalType": "bytes32",
          "name": "role",
          "type": "bytes32"
        },
        {
          "indexed": true,
          "internalType": "address",
          "name": "account",
          "type": "address"
        },
        {
          "indexed": true,
          "internalType": "address",
          "name": "sender",
          "type": "address"
        }
      ],
      "name": "RoleRevoked",
      "type": "event"
    },
    {
      "anonymous": false,
      "inputs": [
        {
          "indexed": true,
          "internalType": "uint256",
          "name": "saleId",
          "type": "uint256"
        }
      ],
      "name": "SaleActivated",
      "type": "event"
    },
    {
      "anonymous": false,
      "inputs": [
        {
          "indexed": true,
          "internalType": "uint256",
          "name": "saleId",
          "type": "uint256"
        }
      ],
      "name": "SaleClosed",
      "type": "event"
    },
    {
      "anonymous": false,
      "inputs": [
        {
          "indexed": true,
          "internalType": "address",
          "name": "representative",
          "type": "address"
        },
        {
          "indexed": true,
          "internalType": "uint256",
          "name": "saleId",
          "type": "uint256"
        },
        {
          "indexed": true,
          "internalType": "uint256",
          "name": "tokenId",
          "type": "uint256"
        }
      ],
      "name": "SaleCreated",
      "type": "event"
    },
    {
      "anonymous": false,
      "inputs": [
        {
          "indexed": true,
          "internalType": "address",
          "name": "newToken",
          "type": "address"
        }
      ],
      "name": "TokenUpdated",
      "type": "event"
    },
    {
      "anonymous": false,
      "inputs": [
        {
          "indexed": true,
          "internalType": "address",
          "name": "newTreasury",
          "type": "address"
        }
      ],
      "name": "TreasuryUpdated",
      "type": "event"
    },
    {
      "anonymous": false,
      "inputs": [
        {
          "indexed": false,
          "internalType": "address",
          "name": "account",
          "type": "address"
        }
      ],
      "name": "Unpaused",
      "type": "event"
    },
    {
      "anonymous": false,
      "inputs": [
        {
          "indexed": true,
          "internalType": "address",
          "name": "user",
          "type": "address"
        }
      ],
      "name": "UserVerified",
      "type": "event"
    },
    {
      "anonymous": false,
      "inputs": [
        {
          "indexed": true,
          "internalType": "address",
          "name": "payee",
          "type": "address"
        },
        {
          "indexed": true,
          "internalType": "uint256",
          "name": "weiAmount",
          "type": "uint256"
        }
      ],
      "name": "Withdrawn",
      "type": "event"
    },
    {
      "inputs": [],
      "name": "DEFAULT_ADMIN_ROLE",
      "outputs": [
        {
          "internalType": "bytes32",
          "name": "",
          "type": "bytes32"
        }
      ],
      "stateMutability": "view",
      "type": "function",
      "constant": true
    },
    {
      "inputs": [
        {
          "internalType": "bytes32",
          "name": "role",
          "type": "bytes32"
        }
      ],
      "name": "getRoleAdmin",
      "outputs": [
        {
          "internalType": "bytes32",
          "name": "",
          "type": "bytes32"
        }
      ],
      "stateMutability": "view",
      "type": "function",
      "constant": true
    },
    {
      "inputs": [
        {
          "internalType": "bytes32",
          "name": "role",
          "type": "bytes32"
        },
        {
          "internalType": "address",
          "name": "account",
          "type": "address"
        }
      ],
      "name": "grantRole",
      "outputs": [],
      "stateMutability": "nonpayable",
      "type": "function"
    },
    {
      "inputs": [
        {
          "internalType": "bytes32",
          "name": "role",
          "type": "bytes32"
        },
        {
          "internalType": "address",
          "name": "account",
          "type": "address"
        }
      ],
      "name": "hasRole",
      "outputs": [
        {
          "internalType": "bool",
          "name": "",
          "type": "bool"
        }
      ],
      "stateMutability": "view",
      "type": "function",
      "constant": true
    },
    {
      "inputs": [],
      "name": "paused",
      "outputs": [
        {
          "internalType": "bool",
          "name": "",
          "type": "bool"
        }
      ],
      "stateMutability": "view",
      "type": "function",
      "constant": true
    },
    {
      "inputs": [
        {
          "internalType": "bytes32",
          "name": "role",
          "type": "bytes32"
        },
        {
          "internalType": "address",
          "name": "account",
          "type": "address"
        }
      ],
      "name": "renounceRole",
      "outputs": [],
      "stateMutability": "nonpayable",
      "type": "function"
    },
    {
      "inputs": [
        {
          "internalType": "bytes32",
          "name": "role",
          "type": "bytes32"
        },
        {
          "internalType": "address",
          "name": "account",
          "type": "address"
        }
      ],
      "name": "revokeRole",
      "outputs": [],
      "stateMutability": "nonpayable",
      "type": "function"
    },
    {
      "inputs": [
        {
          "internalType": "bytes4",
          "name": "interfaceId",
          "type": "bytes4"
        }
      ],
      "name": "supportsInterface",
      "outputs": [
        {
          "internalType": "bool",
          "name": "",
          "type": "bool"
        }
      ],
      "stateMutability": "view",
      "type": "function",
      "constant": true
    },
    {
      "inputs": [],
      "name": "pause",
      "outputs": [],
      "stateMutability": "nonpayable",
      "type": "function"
    },
    {
      "inputs": [],
      "name": "unpause",
      "outputs": [],
      "stateMutability": "nonpayable",
      "type": "function"
    },
    {
      "inputs": [],
      "name": "erc20DepositsOf",
      "outputs": [
        {
          "internalType": "uint256",
          "name": "",
          "type": "uint256"
        }
      ],
      "stateMutability": "view",
      "type": "function",
      "constant": true
    },
    {
      "inputs": [],
      "name": "nativeDepositsOf",
      "outputs": [
        {
          "internalType": "uint256",
          "name": "",
          "type": "uint256"
        }
      ],
      "stateMutability": "view",
      "type": "function",
      "constant": true
    },
    {
      "inputs": [],
      "name": "withdrawERC20",
      "outputs": [],
      "stateMutability": "nonpayable",
      "type": "function"
    },
    {
      "inputs": [],
      "name": "withdrawNative",
      "outputs": [],
      "stateMutability": "nonpayable",
      "type": "function"
    },
    {
      "inputs": [
        {
          "internalType": "address",
          "name": "licenseProvider",
          "type": "address"
        },
        {
          "internalType": "address",
          "name": "representative",
          "type": "address"
        }
      ],
      "name": "createAccount",
      "outputs": [],
      "stateMutability": "nonpayable",
      "type": "function"
    },
    {
      "inputs": [
        {
          "internalType": "address",
          "name": "payee",
          "type": "address"
        },
        {
          "internalType": "uint256",
          "name": "amount",
          "type": "uint256"
        }
      ],
      "name": "depositERC20",
      "outputs": [],
      "stateMutability": "nonpayable",
      "type": "function"
    },
    {
      "inputs": [
        {
          "internalType": "address",
          "name": "payee",
          "type": "address"
        }
      ],
      "name": "depositNative",
      "outputs": [],
      "stateMutability": "payable",
      "type": "function",
      "payable": true
    },
    {
      "inputs": [
        {
          "internalType": "address",
          "name": "representative",
          "type": "address"
        }
      ],
      "name": "accountExists",
      "outputs": [
        {
          "internalType": "bool",
          "name": "",
          "type": "bool"
        }
      ],
      "stateMutability": "view",
      "type": "function",
      "constant": true
    },
    {
      "inputs": [],
      "name": "getToken",
      "outputs": [
        {
          "internalType": "address",
          "name": "hilo",
          "type": "address"
        }
      ],
      "stateMutability": "view",
      "type": "function",
      "constant": true
    },
    {
      "inputs": [
        {
          "internalType": "address",
          "name": "newToken",
          "type": "address"
        }
      ],
      "name": "updateToken",
      "outputs": [],
      "stateMutability": "nonpayable",
      "type": "function"
    }
  ],
  "bytecode": "0x60806040523480156200001157600080fd5b5060405162001c2438038062001c2483398101604081905262000034916200023f565b6000805460ff1916905560016002556200005e60008051602062001c04833981519152336200014c565b6200007960008051602062001c0483398151915280620001d5565b620000a57fad0f4d923b26df99ed90553d189d268443625c1ce82a268b2504301f2900d268336200014c565b620000e07fad0f4d923b26df99ed90553d189d268443625c1ce82a268b2504301f2900d26860008051602062001c04833981519152620001d5565b620000fb60008051602062001be4833981519152826200014c565b6200012560008051602062001be483398151915260008051602062001c04833981519152620001d5565b50600580546001600160a01b0319166001600160a01b039290921691909117905562000277565b60008281526001602090815260408083206001600160a01b038516845290915290205460ff16620001d15760008281526001602081815260408084206001600160a01b0386168086529252808420805460ff19169093179092559051339285917f2f8788117e7eff1d82e926ec794901d17c78024a50270940304540a733656f0d9190a45b5050565b6000828152600160208190526040808320909101805490849055905190918391839186917fbd79b86ffe0ab8e8776151514217cd7cacd52c909f66475c3af44e129f0b00ff9190a4505050565b80516001600160a01b03811681146200023a57600080fd5b919050565b600080604083850312156200025357600080fd5b6200025e8362000222565b91506200026e6020840162000222565b90509250929050565b61195d80620002876000396000f3fe60806040526004361061011f5760003560e01c80635c975abb116100a057806391d148541161006457806391d14854146102fb57806397feb92614610341578063a217fddf14610361578063d547741f14610376578063ff5bede21461039657600080fd5b80635c975abb1461027957806374ddbac81461029157806375cd51ed146102a65780637ad3def2146102c65780638456cb59146102e657600080fd5b80632f2ff15d116100e75780632f2ff15d146101fc57806333bb7f911461021c57806336568abe1461022f5780633f4ba83a1461024f57806350431ce41461026457600080fd5b806301ffc9a714610124578063133572ba1461015957806321df0da71461017b578063248a9ca3146101a85780632ed6d5e8146101e7575b600080fd5b34801561013057600080fd5b5061014461013f36600461167b565b6103ab565b60405190151581526020015b60405180910390f35b34801561016557600080fd5b506101796101743660046116c1565b6103e2565b005b34801561018757600080fd5b50610190610543565b6040516001600160a01b039091168152602001610150565b3480156101b457600080fd5b506101d96101c33660046116f4565b6000908152600160208190526040909120015490565b604051908152602001610150565b3480156101f357600080fd5b50610179610581565b34801561020857600080fd5b5061017961021736600461170d565b61077d565b61017961022a366004611730565b6107a9565b34801561023b57600080fd5b5061017961024a36600461170d565b610884565b34801561025b57600080fd5b50610179610910565b34801561027057600080fd5b50610179610946565b34801561028557600080fd5b5060005460ff16610144565b34801561029d57600080fd5b506101d9610aef565b3480156102b257600080fd5b506101446102c1366004611730565b610b7b565b3480156102d257600080fd5b506101796102e1366004611730565b610bd9565b3480156102f257600080fd5b50610179610ca5565b34801561030757600080fd5b5061014461031636600461170d565b60009182526001602090815260408084206001600160a01b0393909316845291905290205460ff1690565b34801561034d57600080fd5b5061017961035c36600461174b565b610cd8565b34801561036d57600080fd5b506101d9600081565b34801561038257600080fd5b5061017961039136600461170d565b610db4565b3480156103a257600080fd5b506101d9610ddb565b60006001600160e01b03198216637965db0b60e01b14806103dc57506301ffc9a760e01b6001600160e01b03198316145b92915050565b6001600160a01b03808216600090815260036020526040902054829116156104645760405162461bcd60e51b815260206004820152602a60248201527f486569726c6f6f6d44414f20457363726f773a206163636f756e7420616c72656044820152696164792065786973747360b01b60648201526084015b60405180910390fd5b7f625c25fb0d3ad45caca3eaeb9b4afeb6dcdcb685ea43856c08f3c1c111e38a5661048f8133610e67565b604080516060810182526001600160a01b03868116808352600060208085018281528587018381528a8616808552600384528885208851815473ffffffffffffffffffffffffffffffffffffffff19169816979097178755915160018088019190915590516002909601959095556004909152858220805460ff191690941790935593519293919290917fac631f3001b55ea1509cf3d7e74898f85392a61a76e8149181ae1259622dabc891a35050505050565b60007ffddb143be89620896ce3745ceb136fd672c98dea954adb8724dcfae9dc08796d6105708133610e67565b50506005546001600160a01b031690565b60028054036105d25760405162461bcd60e51b815260206004820152601f60248201527f5265656e7472616e637947756172643a207265656e7472616e742063616c6c00604482015260640161045b565b600280553360009081526004602052604090205460ff16151560011461064b5760405162461bcd60e51b815260206004820152602860248201527f486569726c6f6f6d44414f20457363726f773a2063616c6c6572206e6f74206460448201526732b837b9b4ba37b960c11b606482015260840161045b565b60005460ff16156106915760405162461bcd60e51b815260206004820152601060248201526f14185d5cd8589b194e881c185d5cd95960821b604482015260640161045b565b336000908152600360205260409020600101546106fe5760405162461bcd60e51b815260206004820152602560248201527f486569726c6f6f6d20457363726f773a20696e73756666696369656e742062616044820152646c616e636560d81b606482015260840161045b565b33600090815260036020526040812060018101805492905554600554610731916001600160a01b03918216911683610ee7565b3360009081526003602052604080822054905183926001600160a01b03909216917f7084f5476618d8e60b11ef0d7d3f06914655adb8793e28ff7f018d4c76d505d591a3506001600255565b6000828152600160208190526040909120015461079a8133610e67565b6107a48383610f4e565b505050565b7f625c25fb0d3ad45caca3eaeb9b4afeb6dcdcb685ea43856c08f3c1c111e38a566107d48133610e67565b60005460ff161561081a5760405162461bcd60e51b815260206004820152601060248201526f14185d5cd8589b194e881c185d5cd95960821b604482015260640161045b565b6001600160a01b0382166000908152600360205260408120600201805434929061084590849061178b565b909155505060405134906001600160a01b038416907f2da466a7b24304f47e87fa2e1e5a81b9831ce54fec19055ce277ca2f39ba42c490600090a35050565b6001600160a01b03811633146109025760405162461bcd60e51b815260206004820152602f60248201527f416363657373436f6e74726f6c3a2063616e206f6e6c792072656e6f756e636560448201527f20726f6c657320666f722073656c660000000000000000000000000000000000606482015260840161045b565b61090c8282610fd5565b5050565b7fad0f4d923b26df99ed90553d189d268443625c1ce82a268b2504301f2900d26861093b8133610e67565b610943611058565b50565b60028054036109975760405162461bcd60e51b815260206004820152601f60248201527f5265656e7472616e637947756172643a207265656e7472616e742063616c6c00604482015260640161045b565b600280553360009081526004602052604090205460ff161515600114610a105760405162461bcd60e51b815260206004820152602860248201527f486569726c6f6f6d44414f20457363726f773a2063616c6c6572206e6f74206460448201526732b837b9b4ba37b960c11b606482015260840161045b565b60005460ff1615610a565760405162461bcd60e51b815260206004820152601060248201526f14185d5cd8589b194e881c185d5cd95960821b604482015260640161045b565b33600090815260036020526040902060020154610ac35760405162461bcd60e51b815260206004820152602560248201527f486569726c6f6f6d20457363726f773a20696e73756666696369656e742062616044820152646c616e636560d81b606482015260840161045b565b33600090815260036020526040812060028101805492905554610731906001600160a01b0316826110eb565b3360009081526004602052604081205460ff161515600114610b645760405162461bcd60e51b815260206004820152602860248201527f486569726c6f6f6d44414f20457363726f773a2063616c6c6572206e6f74206460448201526732b837b9b4ba37b960c11b606482015260840161045b565b503360009081526003602052604090206001015490565b60007f625c25fb0d3ad45caca3eaeb9b4afeb6dcdcb685ea43856c08f3c1c111e38a56610ba88133610e67565b6001600160a01b038381166000908152600360205260409020541615610bcf576001610bd2565b60005b9392505050565b7ffddb143be89620896ce3745ceb136fd672c98dea954adb8724dcfae9dc08796d610c048133610e67565b60005460ff16610c4d5760405162461bcd60e51b815260206004820152601460248201527314185d5cd8589b194e881b9bdd081c185d5cd95960621b604482015260640161045b565b6005805473ffffffffffffffffffffffffffffffffffffffff19166001600160a01b0384169081179091556040517f5ba6b30cd4b2f9e9e67f4feb9b9df10d5da3b057598e6901b217b7d590345e3090600090a25050565b7fad0f4d923b26df99ed90553d189d268443625c1ce82a268b2504301f2900d268610cd08133610e67565b610943611204565b7f625c25fb0d3ad45caca3eaeb9b4afeb6dcdcb685ea43856c08f3c1c111e38a56610d038133610e67565b60005460ff1615610d495760405162461bcd60e51b815260206004820152601060248201526f14185d5cd8589b194e881c185d5cd95960821b604482015260640161045b565b6001600160a01b03831660009081526003602052604081206001018054849290610d7490849061178b565b909155505060405182906001600160a01b038516907fab79632de7fe1724598ce2214eaa326d90d48064d2d3397406ecc5769316a5f690600090a3505050565b60008281526001602081905260409091200154610dd18133610e67565b6107a48383610fd5565b3360009081526004602052604081205460ff161515600114610e505760405162461bcd60e51b815260206004820152602860248201527f486569726c6f6f6d44414f20457363726f773a2063616c6c6572206e6f74206460448201526732b837b9b4ba37b960c11b606482015260840161045b565b503360009081526003602052604090206002015490565b60008281526001602090815260408083206001600160a01b038516845290915290205460ff1661090c57610ea5816001600160a01b0316601461127f565b610eb083602061127f565b604051602001610ec19291906117d3565b60408051601f198184030181529082905262461bcd60e51b825261045b91600401611854565b604080516001600160a01b038416602482015260448082018490528251808303909101815260649091019091526020810180517bffffffffffffffffffffffffffffffffffffffffffffffffffffffff1663a9059cbb60e01b1790526107a4908490611428565b60008281526001602090815260408083206001600160a01b038516845290915290205460ff1661090c5760008281526001602081815260408084206001600160a01b0386168086529252808420805460ff19169093179092559051339285917f2f8788117e7eff1d82e926ec794901d17c78024a50270940304540a733656f0d9190a45050565b60008281526001602090815260408083206001600160a01b038516845290915290205460ff161561090c5760008281526001602090815260408083206001600160a01b0385168085529252808320805460ff1916905551339285917ff6391f5c32d9c69d2a47ea670b442974b53935d1edc7fd64eb21e047a839171b9190a45050565b60005460ff166110a15760405162461bcd60e51b815260206004820152601460248201527314185d5cd8589b194e881b9bdd081c185d5cd95960621b604482015260640161045b565b6000805460ff191690557f5db9ee0a495bf2e6ff9c91a7834c1ba4fdd244a5e8aa4e537bd38aeae4b073aa335b6040516001600160a01b03909116815260200160405180910390a1565b8047101561113b5760405162461bcd60e51b815260206004820152601d60248201527f416464726573733a20696e73756666696369656e742062616c616e6365000000604482015260640161045b565b6000826001600160a01b03168260405160006040518083038185875af1925050503d8060008114611188576040519150601f19603f3d011682016040523d82523d6000602084013e61118d565b606091505b50509050806107a45760405162461bcd60e51b815260206004820152603a60248201527f416464726573733a20756e61626c6520746f2073656e642076616c75652c207260448201527f6563697069656e74206d61792068617665207265766572746564000000000000606482015260840161045b565b60005460ff161561124a5760405162461bcd60e51b815260206004820152601060248201526f14185d5cd8589b194e881c185d5cd95960821b604482015260640161045b565b6000805460ff191660011790557f62e78cea01bee320cd4e420270b5ea74000d11b0c9f74754ebdbfc544b05a2586110ce3390565b6060600061128e836002611887565b61129990600261178b565b67ffffffffffffffff8111156112b1576112b16118a6565b6040519080825280601f01601f1916602001820160405280156112db576020820181803683370190505b509050600360fc1b816000815181106112f6576112f66118bc565b60200101906001600160f81b031916908160001a905350600f60fb1b81600181518110611325576113256118bc565b60200101906001600160f81b031916908160001a9053506000611349846002611887565b61135490600161178b565b90505b60018111156113d9577f303132333435363738396162636465660000000000000000000000000000000085600f1660108110611395576113956118bc565b1a60f81b8282815181106113ab576113ab6118bc565b60200101906001600160f81b031916908160001a90535060049490941c936113d2816118d2565b9050611357565b508315610bd25760405162461bcd60e51b815260206004820181905260248201527f537472696e67733a20686578206c656e67746820696e73756666696369656e74604482015260640161045b565b600061147d826040518060400160405280602081526020017f5361666545524332303a206c6f772d6c6576656c2063616c6c206661696c6564815250856001600160a01b03166114fa9092919063ffffffff16565b8051909150156107a4578080602001905181019061149b91906118e9565b6107a45760405162461bcd60e51b815260206004820152602a60248201527f5361666545524332303a204552433230206f7065726174696f6e20646964206e6044820152691bdd081cdd58d8d9595960b21b606482015260840161045b565b60606115098484600085611511565b949350505050565b6060824710156115725760405162461bcd60e51b815260206004820152602660248201527f416464726573733a20696e73756666696369656e742062616c616e636520666f6044820152651c8818d85b1b60d21b606482015260840161045b565b6001600160a01b0385163b6115c95760405162461bcd60e51b815260206004820152601d60248201527f416464726573733a2063616c6c20746f206e6f6e2d636f6e7472616374000000604482015260640161045b565b600080866001600160a01b031685876040516115e5919061190b565b60006040518083038185875af1925050503d8060008114611622576040519150601f19603f3d011682016040523d82523d6000602084013e611627565b606091505b5091509150611637828286611642565b979650505050505050565b60608315611651575081610bd2565b8251156116615782518084602001fd5b8160405162461bcd60e51b815260040161045b9190611854565b60006020828403121561168d57600080fd5b81356001600160e01b031981168114610bd257600080fd5b80356001600160a01b03811681146116bc57600080fd5b919050565b600080604083850312156116d457600080fd5b6116dd836116a5565b91506116eb602084016116a5565b90509250929050565b60006020828403121561170657600080fd5b5035919050565b6000806040838503121561172057600080fd5b823591506116eb602084016116a5565b60006020828403121561174257600080fd5b610bd2826116a5565b6000806040838503121561175e57600080fd5b611767836116a5565b946020939093013593505050565b634e487b7160e01b600052601160045260246000fd5b6000821982111561179e5761179e611775565b500190565b60005b838110156117be5781810151838201526020016117a6565b838111156117cd576000848401525b50505050565b7f416363657373436f6e74726f6c3a206163636f756e742000000000000000000081526000835161180b8160178501602088016117a3565b7f206973206d697373696e6720726f6c652000000000000000000000000000000060179184019182015283516118488160288401602088016117a3565b01602801949350505050565b60208152600082518060208401526118738160408501602087016117a3565b601f01601f19169190910160400192915050565b60008160001904831182151516156118a1576118a1611775565b500290565b634e487b7160e01b600052604160045260246000fd5b634e487b7160e01b600052603260045260246000fd5b6000816118e1576118e1611775565b506000190190565b6000602082840312156118fb57600080fd5b81518015158114610bd257600080fd5b6000825161191d8184602087016117a3565b919091019291505056fea2646970667358221220bf01e7eb4325da7202ff4506ac3adbc35c3a77a1cb46b1c9f574b0be3d92a61164736f6c634300080e0033625c25fb0d3ad45caca3eaeb9b4afeb6dcdcb685ea43856c08f3c1c111e38a56fddb143be89620896ce3745ceb136fd672c98dea954adb8724dcfae9dc08796d",
  "immutableReferences": {},
  "source": "// SPDX-License-Identifier: MIT\r\npragma solidity ^0.8.4;\r\n\r\nimport '@openzeppelin/contracts/access/AccessControl.sol';\r\nimport \"@openzeppelin/contracts/utils/Context.sol\";\r\nimport \"@openzeppelin/contracts/utils/Address.sol\";\r\nimport \"@openzeppelin/contracts/token/ERC20/IERC20.sol\";\r\nimport \"@openzeppelin/contracts/token/ERC20/utils/SafeERC20.sol\";\r\nimport \"@openzeppelin/contracts/security/ReentrancyGuard.sol\";\r\nimport \"@openzeppelin/contracts/security/Pausable.sol\";\r\n\r\nimport '../Types.sol';\r\nimport './Constants.sol';\r\n\r\n/**\r\n* @title HeirloomDAO Marketplace Escrow \r\n* @dev Contract for the heirloom dao marketplace that handles pull payments to license providers.\r\n*/\r\n\r\ncontract HeirloomEscrow is Types, \r\nContext, \r\nPausable, \r\nAccessControl, \r\nConstants, \r\nReentrancyGuard {\r\n\r\n    using SafeERC20 for IERC20;\r\n    using Address for address payable;\r\n    \r\n    struct Account {\r\n        address main;\r\n        uint256 erc20Balance;\r\n        uint256 nativeBalance; \r\n    }\r\n\r\n    event ERC20Deposited(address indexed payee, uint256 indexed weiAmount); \r\n    event Deposited(address indexed payee, uint256 indexed weiAmount); \r\n    event Withdrawn(address indexed payee, uint256 indexed weiAmount);\r\n    event AccountCreated(address indexed licenseProvider, address indexed representative);\r\n    \r\n    mapping(address => Account) private _deposits;\r\n    mapping(address => bool) private _isDepositor;\r\n    \r\n    address private _hiloToken;\r\n    \r\n    modifier onlyDepositor(){\r\n        require(_isDepositor[_msgSender()] == true, \"HeirloomDAO Escrow: caller not depositor\");\r\n        _;\r\n    }\r\n\r\n    modifier onlyNewAccount(address representative){\r\n        require(_deposits[representative].main == address(0) , \"HeirloomDAO Escrow: account already exists\");\r\n        _;\r\n    }\r\n\r\n    constructor(address heirloomToken, address operator){\r\n        _grantRole(ADMIN_ROLE, _msgSender());\r\n        _setRoleAdmin(ADMIN_ROLE, ADMIN_ROLE);\r\n        _grantRole(PAUSER_ROLE, _msgSender());\r\n        _setRoleAdmin(PAUSER_ROLE, ADMIN_ROLE);\r\n        _grantRole(ESCROW_ROLE, operator);\r\n        _setRoleAdmin(ESCROW_ROLE, ADMIN_ROLE);\r\n        _hiloToken = heirloomToken;\r\n    }\r\n    \r\n    function pause() public onlyRole(PAUSER_ROLE) {\r\n        _pause();\r\n    }\r\n\r\n    function unpause() public onlyRole(PAUSER_ROLE) {\r\n        _unpause();\r\n    }\r\n    \r\n    function erc20DepositsOf() public view onlyDepositor returns (uint256) {\r\n        return _deposits[_msgSender()].erc20Balance;\r\n    }\r\n\r\n    function nativeDepositsOf() public view onlyDepositor returns (uint256) {\r\n        return _deposits[_msgSender()].nativeBalance;\r\n    }\r\n\r\n    function withdrawERC20() public nonReentrant onlyDepositor whenNotPaused {\r\n        require(_deposits[_msgSender()].erc20Balance > 0, \"Heirloom Escrow: insufficient balance\");\r\n        uint256 amount = _deposits[_msgSender()].erc20Balance;\r\n        _deposits[_msgSender()].erc20Balance = 0;\r\n        IERC20(_hiloToken).safeTransfer(_deposits[_msgSender()].main, amount);\r\n        emit Withdrawn(_deposits[_msgSender()].main, amount); \r\n    }\r\n\r\n    function withdrawNative() external nonReentrant onlyDepositor whenNotPaused {\r\n        require(_deposits[_msgSender()].nativeBalance > 0, \"Heirloom Escrow: insufficient balance\");\r\n        uint256 amount = _deposits[_msgSender()].nativeBalance;\r\n        _deposits[_msgSender()].nativeBalance = 0;\r\n        payable(_deposits[_msgSender()].main).sendValue(amount);\r\n        emit Withdrawn(_deposits[_msgSender()].main, amount);\r\n    }\r\n\r\n    function createAccount(address licenseProvider, address representative)\r\n    external\r\n    onlyNewAccount(representative) \r\n    onlyRole(ESCROW_ROLE) {\r\n\r\n        Account memory newAccount = Account({\r\n            main: licenseProvider,\r\n            erc20Balance: 0,\r\n            nativeBalance: 0 \r\n        });\r\n        _deposits[representative] = newAccount;\r\n        _isDepositor[representative] = true;\r\n        emit AccountCreated(licenseProvider, representative);\r\n    }\r\n\r\n    function depositERC20(address payee, uint256 amount) external onlyRole(ESCROW_ROLE) whenNotPaused {\r\n        _deposits[payee].erc20Balance += amount;\r\n        emit ERC20Deposited(payee, amount);\r\n    }\r\n\r\n    function depositNative(address payee) external payable onlyRole(ESCROW_ROLE) whenNotPaused {\r\n        _deposits[payee].nativeBalance += msg.value;\r\n        emit Deposited(payee, msg.value);\r\n    }\r\n    \r\n    function accountExists(address representative) external view onlyRole(ESCROW_ROLE) returns (bool) {\r\n        return _deposits[representative].main == address(0) ? false : true;\r\n    }\r\n    function getToken() view external onlyRole(ADMIN_ROLE) returns (address hilo){\r\n        hilo = _hiloToken;\r\n    }\r\n\r\n    function updateToken(address newToken) external onlyRole(ADMIN_ROLE) whenPaused {\r\n        _hiloToken = newToken;\r\n        emit TokenUpdated(newToken);\r\n    }\r\n}",
  "sourcePath": "C:\\Users\\DELL\\Documents\\heirloomdao\\contracts\\contracts\\utils\\HeirloomEscrow.sol",
  "compiler": {
    "name": "solc",
    "version": "0.8.14+commit.80d49f37.Emscripten.clang"
  },
  "schemaVersion": "3.4.7",
  "updatedAt": "2022-06-07T10:46:51.899Z",
  "networkType": "ethereum",
  "devdoc": {
    "details": "Contract for the heirloom dao marketplace that handles pull payments to license providers.",
    "kind": "dev",
    "methods": {
      "getRoleAdmin(bytes32)": {
        "details": "Returns the admin role that controls `role`. See {grantRole} and {revokeRole}. To change a role's admin, use {_setRoleAdmin}."
      },
      "grantRole(bytes32,address)": {
        "details": "Grants `role` to `account`. If `account` had not been already granted `role`, emits a {RoleGranted} event. Requirements: - the caller must have ``role``'s admin role."
      },
      "hasRole(bytes32,address)": {
        "details": "Returns `true` if `account` has been granted `role`."
      },
      "paused()": {
        "details": "Returns true if the contract is paused, and false otherwise."
      },
      "renounceRole(bytes32,address)": {
        "details": "Revokes `role` from the calling account. Roles are often managed via {grantRole} and {revokeRole}: this function's purpose is to provide a mechanism for accounts to lose their privileges if they are compromised (such as when a trusted device is misplaced). If the calling account had been revoked `role`, emits a {RoleRevoked} event. Requirements: - the caller must be `account`."
      },
      "revokeRole(bytes32,address)": {
        "details": "Revokes `role` from `account`. If `account` had been granted `role`, emits a {RoleRevoked} event. Requirements: - the caller must have ``role``'s admin role."
      },
      "supportsInterface(bytes4)": {
        "details": "See {IERC165-supportsInterface}."
      }
    },
    "title": "HeirloomDAO Marketplace Escrow ",
    "version": 1
  },
  "userdoc": {
    "events": {
      "BoughtFromSale(uint256,uint256,address,uint256)": {
        "notice": "emitted after a license is bought from a sale"
      },
      "CommissionUpdated(uint96)": {
        "notice": "emitted after the commission basis points is updated "
      },
      "EscrowUpdated(address)": {
        "notice": "emitted after the treasury is updated "
      },
      "LicenseListed(uint256,uint256,address,uint256,uint256)": {
        "notice": "emitted after a license is listed by a user"
      },
      "LicenseSold(uint256,uint256,address,address,uint256,uint256)": {
        "notice": "emitted after a license is listed by a user"
      },
      "ListedLicenseClosed(uint256,uint256,address,uint8)": {
        "notice": "emitted after a listed license is closed"
      },
      "ListingFeeUpdated(uint256)": {
        "notice": "emitted after the listing fee is updated "
      },
      "SaleActivated(uint256)": {
        "notice": "emitted after a (future) sale is activated"
      },
      "SaleClosed(uint256)": {
        "notice": "emitted after a close sale"
      },
      "SaleCreated(address,uint256,uint256)": {
        "notice": "emitted after every sale created"
      },
      "TokenUpdated(address)": {
        "notice": "emitted after the treasury is updated "
      },
      "TreasuryUpdated(address)": {
        "notice": "emitted after the treasury is updated "
      },
      "UserVerified(address)": {
        "notice": "emitted after the treasury is updated "
      }
    },
    "kind": "user",
    "methods": {},
    "version": 1
  }
}