{
  "contractName": "HeirloomToken",
  "abi": [
    {
      "inputs": [
        {
          "internalType": "address",
          "name": "treasury",
          "type": "address"
        },
        {
          "internalType": "uint256",
          "name": "supply",
          "type": "uint256"
        }
      ],
      "stateMutability": "nonpayable",
      "type": "constructor"
    },
    {
      "anonymous": false,
      "inputs": [
        {
          "indexed": true,
          "internalType": "address",
          "name": "owner",
          "type": "address"
        },
        {
          "indexed": true,
          "internalType": "address",
          "name": "spender",
          "type": "address"
        },
        {
          "indexed": false,
          "internalType": "uint256",
          "name": "value",
          "type": "uint256"
        }
      ],
      "name": "Approval",
      "type": "event"
    },
    {
      "anonymous": false,
      "inputs": [
        {
          "indexed": false,
          "internalType": "address",
          "name": "account",
          "type": "address"
        }
      ],
      "name": "Paused",
      "type": "event"
    },
    {
      "anonymous": false,
      "inputs": [
        {
          "indexed": true,
          "internalType": "bytes32",
          "name": "role",
          "type": "bytes32"
        },
        {
          "indexed": true,
          "internalType": "bytes32",
          "name": "previousAdminRole",
          "type": "bytes32"
        },
        {
          "indexed": true,
          "internalType": "bytes32",
          "name": "newAdminRole",
          "type": "bytes32"
        }
      ],
      "name": "RoleAdminChanged",
      "type": "event"
    },
    {
      "anonymous": false,
      "inputs": [
        {
          "indexed": true,
          "internalType": "bytes32",
          "name": "role",
          "type": "bytes32"
        },
        {
          "indexed": true,
          "internalType": "address",
          "name": "account",
          "type": "address"
        },
        {
          "indexed": true,
          "internalType": "address",
          "name": "sender",
          "type": "address"
        }
      ],
      "name": "RoleGranted",
      "type": "event"
    },
    {
      "anonymous": false,
      "inputs": [
        {
          "indexed": true,
          "internalType": "bytes32",
          "name": "role",
          "type": "bytes32"
        },
        {
          "indexed": true,
          "internalType": "address",
          "name": "account",
          "type": "address"
        },
        {
          "indexed": true,
          "internalType": "address",
          "name": "sender",
          "type": "address"
        }
      ],
      "name": "RoleRevoked",
      "type": "event"
    },
    {
      "anonymous": false,
      "inputs": [
        {
          "indexed": false,
          "internalType": "uint256",
          "name": "id",
          "type": "uint256"
        }
      ],
      "name": "Snapshot",
      "type": "event"
    },
    {
      "anonymous": false,
      "inputs": [
        {
          "indexed": true,
          "internalType": "address",
          "name": "from",
          "type": "address"
        },
        {
          "indexed": true,
          "internalType": "address",
          "name": "to",
          "type": "address"
        },
        {
          "indexed": false,
          "internalType": "uint256",
          "name": "value",
          "type": "uint256"
        }
      ],
      "name": "Transfer",
      "type": "event"
    },
    {
      "anonymous": false,
      "inputs": [
        {
          "indexed": false,
          "internalType": "address",
          "name": "account",
          "type": "address"
        }
      ],
      "name": "Unpaused",
      "type": "event"
    },
    {
      "inputs": [],
      "name": "DEFAULT_ADMIN_ROLE",
      "outputs": [
        {
          "internalType": "bytes32",
          "name": "",
          "type": "bytes32"
        }
      ],
      "stateMutability": "view",
      "type": "function",
      "constant": true
    },
    {
      "inputs": [
        {
          "internalType": "address",
          "name": "owner",
          "type": "address"
        },
        {
          "internalType": "address",
          "name": "spender",
          "type": "address"
        }
      ],
      "name": "allowance",
      "outputs": [
        {
          "internalType": "uint256",
          "name": "",
          "type": "uint256"
        }
      ],
      "stateMutability": "view",
      "type": "function",
      "constant": true
    },
    {
      "inputs": [
        {
          "internalType": "address",
          "name": "spender",
          "type": "address"
        },
        {
          "internalType": "uint256",
          "name": "amount",
          "type": "uint256"
        }
      ],
      "name": "approve",
      "outputs": [
        {
          "internalType": "bool",
          "name": "",
          "type": "bool"
        }
      ],
      "stateMutability": "nonpayable",
      "type": "function"
    },
    {
      "inputs": [
        {
          "internalType": "address",
          "name": "account",
          "type": "address"
        }
      ],
      "name": "balanceOf",
      "outputs": [
        {
          "internalType": "uint256",
          "name": "",
          "type": "uint256"
        }
      ],
      "stateMutability": "view",
      "type": "function",
      "constant": true
    },
    {
      "inputs": [
        {
          "internalType": "address",
          "name": "account",
          "type": "address"
        },
        {
          "internalType": "uint256",
          "name": "snapshotId",
          "type": "uint256"
        }
      ],
      "name": "balanceOfAt",
      "outputs": [
        {
          "internalType": "uint256",
          "name": "",
          "type": "uint256"
        }
      ],
      "stateMutability": "view",
      "type": "function",
      "constant": true
    },
    {
      "inputs": [
        {
          "internalType": "uint256",
          "name": "amount",
          "type": "uint256"
        }
      ],
      "name": "burn",
      "outputs": [],
      "stateMutability": "nonpayable",
      "type": "function"
    },
    {
      "inputs": [
        {
          "internalType": "address",
          "name": "account",
          "type": "address"
        },
        {
          "internalType": "uint256",
          "name": "amount",
          "type": "uint256"
        }
      ],
      "name": "burnFrom",
      "outputs": [],
      "stateMutability": "nonpayable",
      "type": "function"
    },
    {
      "inputs": [],
      "name": "decimals",
      "outputs": [
        {
          "internalType": "uint8",
          "name": "",
          "type": "uint8"
        }
      ],
      "stateMutability": "view",
      "type": "function",
      "constant": true
    },
    {
      "inputs": [
        {
          "internalType": "address",
          "name": "spender",
          "type": "address"
        },
        {
          "internalType": "uint256",
          "name": "subtractedValue",
          "type": "uint256"
        }
      ],
      "name": "decreaseAllowance",
      "outputs": [
        {
          "internalType": "bool",
          "name": "",
          "type": "bool"
        }
      ],
      "stateMutability": "nonpayable",
      "type": "function"
    },
    {
      "inputs": [
        {
          "internalType": "bytes32",
          "name": "role",
          "type": "bytes32"
        }
      ],
      "name": "getRoleAdmin",
      "outputs": [
        {
          "internalType": "bytes32",
          "name": "",
          "type": "bytes32"
        }
      ],
      "stateMutability": "view",
      "type": "function",
      "constant": true
    },
    {
      "inputs": [
        {
          "internalType": "bytes32",
          "name": "role",
          "type": "bytes32"
        },
        {
          "internalType": "address",
          "name": "account",
          "type": "address"
        }
      ],
      "name": "grantRole",
      "outputs": [],
      "stateMutability": "nonpayable",
      "type": "function"
    },
    {
      "inputs": [
        {
          "internalType": "bytes32",
          "name": "role",
          "type": "bytes32"
        },
        {
          "internalType": "address",
          "name": "account",
          "type": "address"
        }
      ],
      "name": "hasRole",
      "outputs": [
        {
          "internalType": "bool",
          "name": "",
          "type": "bool"
        }
      ],
      "stateMutability": "view",
      "type": "function",
      "constant": true
    },
    {
      "inputs": [
        {
          "internalType": "address",
          "name": "spender",
          "type": "address"
        },
        {
          "internalType": "uint256",
          "name": "addedValue",
          "type": "uint256"
        }
      ],
      "name": "increaseAllowance",
      "outputs": [
        {
          "internalType": "bool",
          "name": "",
          "type": "bool"
        }
      ],
      "stateMutability": "nonpayable",
      "type": "function"
    },
    {
      "inputs": [],
      "name": "name",
      "outputs": [
        {
          "internalType": "string",
          "name": "",
          "type": "string"
        }
      ],
      "stateMutability": "view",
      "type": "function",
      "constant": true
    },
    {
      "inputs": [],
      "name": "paused",
      "outputs": [
        {
          "internalType": "bool",
          "name": "",
          "type": "bool"
        }
      ],
      "stateMutability": "view",
      "type": "function",
      "constant": true
    },
    {
      "inputs": [
        {
          "internalType": "bytes32",
          "name": "role",
          "type": "bytes32"
        },
        {
          "internalType": "address",
          "name": "account",
          "type": "address"
        }
      ],
      "name": "renounceRole",
      "outputs": [],
      "stateMutability": "nonpayable",
      "type": "function"
    },
    {
      "inputs": [
        {
          "internalType": "bytes32",
          "name": "role",
          "type": "bytes32"
        },
        {
          "internalType": "address",
          "name": "account",
          "type": "address"
        }
      ],
      "name": "revokeRole",
      "outputs": [],
      "stateMutability": "nonpayable",
      "type": "function"
    },
    {
      "inputs": [
        {
          "internalType": "bytes4",
          "name": "interfaceId",
          "type": "bytes4"
        }
      ],
      "name": "supportsInterface",
      "outputs": [
        {
          "internalType": "bool",
          "name": "",
          "type": "bool"
        }
      ],
      "stateMutability": "view",
      "type": "function",
      "constant": true
    },
    {
      "inputs": [],
      "name": "symbol",
      "outputs": [
        {
          "internalType": "string",
          "name": "",
          "type": "string"
        }
      ],
      "stateMutability": "view",
      "type": "function",
      "constant": true
    },
    {
      "inputs": [],
      "name": "totalSupply",
      "outputs": [
        {
          "internalType": "uint256",
          "name": "",
          "type": "uint256"
        }
      ],
      "stateMutability": "view",
      "type": "function",
      "constant": true
    },
    {
      "inputs": [
        {
          "internalType": "uint256",
          "name": "snapshotId",
          "type": "uint256"
        }
      ],
      "name": "totalSupplyAt",
      "outputs": [
        {
          "internalType": "uint256",
          "name": "",
          "type": "uint256"
        }
      ],
      "stateMutability": "view",
      "type": "function",
      "constant": true
    },
    {
      "inputs": [
        {
          "internalType": "address",
          "name": "to",
          "type": "address"
        },
        {
          "internalType": "uint256",
          "name": "amount",
          "type": "uint256"
        }
      ],
      "name": "transfer",
      "outputs": [
        {
          "internalType": "bool",
          "name": "",
          "type": "bool"
        }
      ],
      "stateMutability": "nonpayable",
      "type": "function"
    },
    {
      "inputs": [
        {
          "internalType": "address",
          "name": "from",
          "type": "address"
        },
        {
          "internalType": "address",
          "name": "to",
          "type": "address"
        },
        {
          "internalType": "uint256",
          "name": "amount",
          "type": "uint256"
        }
      ],
      "name": "transferFrom",
      "outputs": [
        {
          "internalType": "bool",
          "name": "",
          "type": "bool"
        }
      ],
      "stateMutability": "nonpayable",
      "type": "function"
    },
    {
      "inputs": [],
      "name": "snapshot",
      "outputs": [],
      "stateMutability": "nonpayable",
      "type": "function"
    },
    {
      "inputs": [],
      "name": "pause",
      "outputs": [],
      "stateMutability": "nonpayable",
      "type": "function"
    },
    {
      "inputs": [],
      "name": "unpause",
      "outputs": [],
      "stateMutability": "nonpayable",
      "type": "function"
    },
    {
      "inputs": [
        {
          "internalType": "address",
          "name": "to",
          "type": "address"
        },
        {
          "internalType": "uint256",
          "name": "amount",
          "type": "uint256"
        }
      ],
      "name": "mint",
      "outputs": [],
      "stateMutability": "nonpayable",
      "type": "function"
    }
  ],
  "bytecode": "0x60806040523480156200001157600080fd5b50604051620022813803806200228183398101604081905262000034916200066e565b604080518082018252600d81526c2432b4b93637b7b6aa37b5b2b760991b60208083019182528351808501909452600484526348494c4f60e01b9084015281519192916200008591600391620005c8565b5080516200009b906004906020840190620005c8565b5050600a805460ff1916905550620000c36000805160206200222183398151915233620001fc565b620000de600080516020620022218339815191528062000287565b620000f96000805160206200224183398151915233620001fc565b62000123600080516020620022418339815191526000805160206200222183398151915262000287565b6200014f7fad0f4d923b26df99ed90553d189d268443625c1ce82a268b2504301f2900d26833620001fc565b6200018a7fad0f4d923b26df99ed90553d189d268443625c1ce82a268b2504301f2900d2686000805160206200222183398151915262000287565b620001af826200019d6012600a620007bd565b620001a99084620007d5565b620002d2565b620001ca6000805160206200226183398151915233620001fc565b620001f4600080516020620022618339815191526000805160206200222183398151915262000287565b50506200087e565b620002088282620003c9565b620002835760008281526009602090815260408083206001600160a01b03851684529091529020805460ff19166001179055620002423390565b6001600160a01b0316816001600160a01b0316837f2f8788117e7eff1d82e926ec794901d17c78024a50270940304540a733656f0d60405160405180910390a45b5050565b600082815260096020526040808220600101805490849055905190918391839186917fbd79b86ffe0ab8e8776151514217cd7cacd52c909f66475c3af44e129f0b00ff9190a4505050565b6001600160a01b0382166200032e5760405162461bcd60e51b815260206004820152601f60248201527f45524332303a206d696e7420746f20746865207a65726f20616464726573730060448201526064015b60405180910390fd5b6200033c60008383620003f6565b8060026000828254620003509190620007f7565b90915550506001600160a01b038216600090815260208190526040812080548392906200037f908490620007f7565b90915550506040518181526001600160a01b038316906000907fddf252ad1be2c89b69c2b068fc378daa952ba7f163c4a11628f55a4df523b3ef9060200160405180910390a35050565b60008281526009602090815260408083206001600160a01b038516845290915290205460ff165b92915050565b600a5460ff16156200043e5760405162461bcd60e51b815260206004820152601060248201526f14185d5cd8589b194e881c185d5cd95960821b604482015260640162000325565b620004568383836200045b60201b6200084f1760201c565b505050565b620004738383836200045660201b620005311760201c565b6001600160a01b03831662000497576200048d82620004c2565b62000456620004fa565b6001600160a01b038216620004b1576200048d83620004c2565b620004bc83620004c2565b62000456825b6001600160a01b03811660009081526005602090815260408083209183905290912054620004f791906200050c565b6200050c565b50565b6200050a6006620004f160025490565b565b6000620005186200055b565b905080620005268462000579565b101562000456578254600180820185556000858152602080822090930193909355938401805494850181558252902090910155565b6000620005746008620005c460201b620008971760201c565b905090565b805460009081036200058d57506000919050565b815482906200059f9060019062000812565b81548110620005b257620005b26200082c565b90600052602060002001549050919050565b5490565b828054620005d69062000842565b90600052602060002090601f016020900481019282620005fa576000855562000645565b82601f106200061557805160ff191683800117855562000645565b8280016001018555821562000645579182015b828111156200064557825182559160200191906001019062000628565b506200065392915062000657565b5090565b5b8082111562000653576000815560010162000658565b600080604083850312156200068257600080fd5b82516001600160a01b03811681146200069a57600080fd5b6020939093015192949293505050565b634e487b7160e01b600052601160045260246000fd5b600181815b8085111562000701578160001904821115620006e557620006e5620006aa565b80851615620006f357918102915b93841c9390800290620006c5565b509250929050565b6000826200071a57506001620003f0565b816200072957506000620003f0565b81600181146200074257600281146200074d576200076d565b6001915050620003f0565b60ff841115620007615762000761620006aa565b50506001821b620003f0565b5060208310610133831016604e8410600b841016171562000792575081810a620003f0565b6200079e8383620006c0565b8060001904821115620007b557620007b5620006aa565b029392505050565b6000620007ce60ff84168362000709565b9392505050565b6000816000190483118215151615620007f257620007f2620006aa565b500290565b600082198211156200080d576200080d620006aa565b500190565b600082821015620008275762000827620006aa565b500390565b634e487b7160e01b600052603260045260246000fd5b600181811c908216806200085757607f821691505b6020821081036200087857634e487b7160e01b600052602260045260246000fd5b50919050565b611993806200088e6000396000f3fe608060405234801561001057600080fd5b50600436106101b95760003560e01c80634ee2cd7e116100f95780639711715a11610097578063a457c2d711610071578063a457c2d714610394578063a9059cbb146103a7578063d547741f146103ba578063dd62ed3e146103cd57600080fd5b80639711715a14610371578063981b24d014610379578063a217fddf1461038c57600080fd5b806379cc6790116100d357806379cc6790146103155780638456cb591461032857806391d148541461033057806395d89b411461036957600080fd5b80634ee2cd7e146102ce5780635c975abb146102e157806370a08231146102ec57600080fd5b80632f2ff15d116101665780633950935111610140578063395093511461028d5780633f4ba83a146102a057806340c10f19146102a857806342966c68146102bb57600080fd5b80632f2ff15d14610256578063313ce5671461026b57806336568abe1461027a57600080fd5b806318160ddd1161019757806318160ddd1461020e57806323b872dd14610220578063248a9ca31461023357600080fd5b806301ffc9a7146101be57806306fdde03146101e6578063095ea7b3146101fb575b600080fd5b6101d16101cc366004611649565b610406565b60405190151581526020015b60405180910390f35b6101ee61043d565b6040516101dd919061169f565b6101d16102093660046116e9565b6104cf565b6002545b6040519081526020016101dd565b6101d161022e366004611713565b6104e7565b61021261024136600461174f565b60009081526009602052604090206001015490565b610269610264366004611768565b61050b565b005b604051601281526020016101dd565b610269610288366004611768565b610536565b6101d161029b3660046116e9565b6105c7565b610269610606565b6102696102b63660046116e9565b61063c565b6102696102c936600461174f565b610671565b6102126102dc3660046116e9565b61067b565b600a5460ff166101d1565b6102126102fa366004611794565b6001600160a01b031660009081526020819052604090205490565b6102696103233660046116e9565b6106d4565b6102696106e9565b6101d161033e366004611768565b60009182526009602090815260408084206001600160a01b0393909316845291905290205460ff1690565b6101ee61071c565b61026961072b565b61021261038736600461174f565b61075e565b610212600081565b6101d16103a23660046116e9565b610789565b6101d16103b53660046116e9565b61081b565b6102696103c8366004611768565b610829565b6102126103db3660046117af565b6001600160a01b03918216600090815260016020908152604080832093909416825291909152205490565b60006001600160e01b03198216637965db0b60e01b148061043757506301ffc9a760e01b6001600160e01b03198316145b92915050565b60606003805461044c906117d9565b80601f0160208091040260200160405190810160405280929190818152602001828054610478906117d9565b80156104c55780601f1061049a576101008083540402835291602001916104c5565b820191906000526020600020905b8154815290600101906020018083116104a857829003601f168201915b5050505050905090565b6000336104dd81858561089b565b5060019392505050565b6000336104f58582856109bf565b610500858585610a51565b506001949350505050565b6000828152600960205260409020600101546105278133610c2a565b6105318383610caa565b505050565b6001600160a01b03811633146105b95760405162461bcd60e51b815260206004820152602f60248201527f416363657373436f6e74726f6c3a2063616e206f6e6c792072656e6f756e636560448201527f20726f6c657320666f722073656c66000000000000000000000000000000000060648201526084015b60405180910390fd5b6105c38282610d4c565b5050565b3360008181526001602090815260408083206001600160a01b03871684529091528120549091906104dd9082908690610601908790611829565b61089b565b7fad0f4d923b26df99ed90553d189d268443625c1ce82a268b2504301f2900d2686106318133610c2a565b610639610dcf565b50565b7f8ccbc2c0141407af8e533e0caeae8e08f837db7ce5bf08ab977e0c83af5622a46106678133610c2a565b6105318383610e6b565b6106393382610f56565b6001600160a01b0382166000908152600560205260408120819081906106a29085906110b0565b91509150816106c9576001600160a01b0385166000908152602081905260409020546106cb565b805b95945050505050565b6106df8233836109bf565b6105c38282610f56565b7fad0f4d923b26df99ed90553d189d268443625c1ce82a268b2504301f2900d2686107148133610c2a565b6106396111ad565b60606004805461044c906117d9565b7fb6c0a1cbce9c56fc4c0b11d33f313ec475dc9c18c6c070f117a19b6c6234dcf46107568133610c2a565b6105c3611228565b600080600061076e8460066110b0565b915091508161077f57600254610781565b805b949350505050565b3360008181526001602090815260408083206001600160a01b03871684529091528120549091908381101561080e5760405162461bcd60e51b815260206004820152602560248201527f45524332303a2064656372656173656420616c6c6f77616e63652062656c6f77604482015264207a65726f60d81b60648201526084016105b0565b610500828686840361089b565b6000336104dd818585610a51565b6000828152600960205260409020600101546108458133610c2a565b6105318383610d4c565b6001600160a01b03831661086e5761086682611282565b6105316112b4565b6001600160a01b0382166108855761086683611282565b61088e83611282565b61053182611282565b5490565b6001600160a01b0383166108fd5760405162461bcd60e51b8152602060048201526024808201527f45524332303a20617070726f76652066726f6d20746865207a65726f206164646044820152637265737360e01b60648201526084016105b0565b6001600160a01b03821661095e5760405162461bcd60e51b815260206004820152602260248201527f45524332303a20617070726f766520746f20746865207a65726f206164647265604482015261737360f01b60648201526084016105b0565b6001600160a01b0383811660008181526001602090815260408083209487168084529482529182902085905590518481527f8c5be1e5ebec7d5bd14f71427d1e84f3dd0314c0f7b2291e5b200ac8c7c3b925910160405180910390a3505050565b6001600160a01b038381166000908152600160209081526040808320938616835292905220546000198114610a4b5781811015610a3e5760405162461bcd60e51b815260206004820152601d60248201527f45524332303a20696e73756666696369656e7420616c6c6f77616e636500000060448201526064016105b0565b610a4b848484840361089b565b50505050565b6001600160a01b038316610ab55760405162461bcd60e51b815260206004820152602560248201527f45524332303a207472616e736665722066726f6d20746865207a65726f206164604482015264647265737360d81b60648201526084016105b0565b6001600160a01b038216610b175760405162461bcd60e51b815260206004820152602360248201527f45524332303a207472616e7366657220746f20746865207a65726f206164647260448201526265737360e81b60648201526084016105b0565b610b228383836112c4565b6001600160a01b03831660009081526020819052604090205481811015610b9a5760405162461bcd60e51b815260206004820152602660248201527f45524332303a207472616e7366657220616d6f756e7420657863656564732062604482015265616c616e636560d01b60648201526084016105b0565b6001600160a01b03808516600090815260208190526040808220858503905591851681529081208054849290610bd1908490611829565b92505081905550826001600160a01b0316846001600160a01b03167fddf252ad1be2c89b69c2b068fc378daa952ba7f163c4a11628f55a4df523b3ef84604051610c1d91815260200190565b60405180910390a3610a4b565b60008281526009602090815260408083206001600160a01b038516845290915290205460ff166105c357610c68816001600160a01b03166014611315565b610c73836020611315565b604051602001610c84929190611841565b60408051601f198184030181529082905262461bcd60e51b82526105b09160040161169f565b60008281526009602090815260408083206001600160a01b038516845290915290205460ff166105c35760008281526009602090815260408083206001600160a01b03851684529091529020805460ff19166001179055610d083390565b6001600160a01b0316816001600160a01b0316837f2f8788117e7eff1d82e926ec794901d17c78024a50270940304540a733656f0d60405160405180910390a45050565b60008281526009602090815260408083206001600160a01b038516845290915290205460ff16156105c35760008281526009602090815260408083206001600160a01b0385168085529252808320805460ff1916905551339285917ff6391f5c32d9c69d2a47ea670b442974b53935d1edc7fd64eb21e047a839171b9190a45050565b600a5460ff16610e215760405162461bcd60e51b815260206004820152601460248201527f5061757361626c653a206e6f742070617573656400000000000000000000000060448201526064016105b0565b600a805460ff191690557f5db9ee0a495bf2e6ff9c91a7834c1ba4fdd244a5e8aa4e537bd38aeae4b073aa335b6040516001600160a01b03909116815260200160405180910390a1565b6001600160a01b038216610ec15760405162461bcd60e51b815260206004820152601f60248201527f45524332303a206d696e7420746f20746865207a65726f20616464726573730060448201526064016105b0565b610ecd600083836112c4565b8060026000828254610edf9190611829565b90915550506001600160a01b03821660009081526020819052604081208054839290610f0c908490611829565b90915550506040518181526001600160a01b038316906000907fddf252ad1be2c89b69c2b068fc378daa952ba7f163c4a11628f55a4df523b3ef9060200160405180910390a35050565b6001600160a01b038216610fb65760405162461bcd60e51b815260206004820152602160248201527f45524332303a206275726e2066726f6d20746865207a65726f206164647265736044820152607360f81b60648201526084016105b0565b610fc2826000836112c4565b6001600160a01b038216600090815260208190526040902054818110156110365760405162461bcd60e51b815260206004820152602260248201527f45524332303a206275726e20616d6f756e7420657863656564732062616c616e604482015261636560f01b60648201526084016105b0565b6001600160a01b03831660009081526020819052604081208383039055600280548492906110659084906118c2565b90915550506040518281526000906001600160a01b038516907fddf252ad1be2c89b69c2b068fc378daa952ba7f163c4a11628f55a4df523b3ef9060200160405180910390a3505050565b600080600084116111035760405162461bcd60e51b815260206004820152601660248201527f4552433230536e617073686f743a20696420697320300000000000000000000060448201526064016105b0565b61110b6114c5565b84111561115a5760405162461bcd60e51b815260206004820152601d60248201527f4552433230536e617073686f743a206e6f6e6578697374656e7420696400000060448201526064016105b0565b600061116684866114d5565b8454909150810361117e5760008092509250506111a6565b6001846001018281548110611195576111956118d9565b906000526020600020015492509250505b9250929050565b600a5460ff16156111f35760405162461bcd60e51b815260206004820152601060248201526f14185d5cd8589b194e881c185d5cd95960821b60448201526064016105b0565b600a805460ff191660011790557f62e78cea01bee320cd4e420270b5ea74000d11b0c9f74754ebdbfc544b05a258610e4e3390565b6000611238600880546001019055565b60006112426114c5565b90507f8030e83b04d87bef53480e26263266d6ca66863aa8506aca6f2559d18aa1cb678160405161127591815260200190565b60405180910390a1919050565b6001600160a01b03811660009081526005602090815260408083209183905290912054610639919061159a565b61159a565b6112c260066112af60025490565b565b600a5460ff161561130a5760405162461bcd60e51b815260206004820152601060248201526f14185d5cd8589b194e881c185d5cd95960821b60448201526064016105b0565b61053183838361084f565b606060006113248360026118ef565b61132f906002611829565b67ffffffffffffffff8111156113475761134761190e565b6040519080825280601f01601f191660200182016040528015611371576020820181803683370190505b509050600360fc1b8160008151811061138c5761138c6118d9565b60200101906001600160f81b031916908160001a905350600f60fb1b816001815181106113bb576113bb6118d9565b60200101906001600160f81b031916908160001a90535060006113df8460026118ef565b6113ea906001611829565b90505b600181111561146f577f303132333435363738396162636465660000000000000000000000000000000085600f166010811061142b5761142b6118d9565b1a60f81b828281518110611441576114416118d9565b60200101906001600160f81b031916908160001a90535060049490941c9361146881611924565b90506113ed565b5083156114be5760405162461bcd60e51b815260206004820181905260248201527f537472696e67733a20686578206c656e67746820696e73756666696369656e7460448201526064016105b0565b9392505050565b60006114d060085490565b905090565b815460009081036114e857506000610437565b82546000905b8082101561154457600061150283836115e4565b905084868281548110611517576115176118d9565b906000526020600020015411156115305780915061153e565b61153b816001611829565b92505b506114ee565b6000821180156115795750838561155c6001856118c2565b8154811061156c5761156c6118d9565b9060005260206000200154145b15611592576115896001836118c2565b92505050610437565b509050610437565b60006115a46114c5565b9050806115b0846115ff565b1015610531578254600180820185556000858152602080822090930193909355938401805494850181558252902090910155565b60006115f3600284841861193b565b6114be90848416611829565b8054600090810361161257506000919050565b81548290611622906001906118c2565b81548110611632576116326118d9565b90600052602060002001549050919050565b919050565b60006020828403121561165b57600080fd5b81356001600160e01b0319811681146114be57600080fd5b60005b8381101561168e578181015183820152602001611676565b83811115610a4b5750506000910152565b60208152600082518060208401526116be816040850160208701611673565b601f01601f19169190910160400192915050565b80356001600160a01b038116811461164457600080fd5b600080604083850312156116fc57600080fd5b611705836116d2565b946020939093013593505050565b60008060006060848603121561172857600080fd5b611731846116d2565b925061173f602085016116d2565b9150604084013590509250925092565b60006020828403121561176157600080fd5b5035919050565b6000806040838503121561177b57600080fd5b8235915061178b602084016116d2565b90509250929050565b6000602082840312156117a657600080fd5b6114be826116d2565b600080604083850312156117c257600080fd5b6117cb836116d2565b915061178b602084016116d2565b600181811c908216806117ed57607f821691505b60208210810361180d57634e487b7160e01b600052602260045260246000fd5b50919050565b634e487b7160e01b600052601160045260246000fd5b6000821982111561183c5761183c611813565b500190565b7f416363657373436f6e74726f6c3a206163636f756e7420000000000000000000815260008351611879816017850160208801611673565b7f206973206d697373696e6720726f6c652000000000000000000000000000000060179184019182015283516118b6816028840160208801611673565b01602801949350505050565b6000828210156118d4576118d4611813565b500390565b634e487b7160e01b600052603260045260246000fd5b600081600019048311821515161561190957611909611813565b500290565b634e487b7160e01b600052604160045260246000fd5b60008161193357611933611813565b506000190190565b60008261195857634e487b7160e01b600052601260045260246000fd5b50049056fea2646970667358221220c8217c3b2e4ff0b771aba36979b0c93336e118edb9bd79dbedc0735bbf1540a364736f6c634300080e0033fddb143be89620896ce3745ceb136fd672c98dea954adb8724dcfae9dc08796db6c0a1cbce9c56fc4c0b11d33f313ec475dc9c18c6c070f117a19b6c6234dcf48ccbc2c0141407af8e533e0caeae8e08f837db7ce5bf08ab977e0c83af5622a4",
  "immutableReferences": {},
  "source": "// SPDX-License-Identifier: MIT\r\npragma solidity ^0.8.4;\r\n\r\nimport \"@openzeppelin/contracts/token/ERC20/ERC20.sol\";\r\nimport \"@openzeppelin/contracts/token/ERC20/extensions/ERC20Burnable.sol\";\r\nimport \"@openzeppelin/contracts/token/ERC20/extensions/ERC20Snapshot.sol\";\r\nimport \"@openzeppelin/contracts/access/AccessControl.sol\";\r\nimport \"@openzeppelin/contracts/security/Pausable.sol\";\r\nimport '../utils/Constants.sol';\r\n\r\ncontract HeirloomToken is ERC20, ERC20Burnable, ERC20Snapshot, AccessControl, Pausable, Constants {\r\n\r\n    constructor(address treasury, uint256 supply) ERC20(\"HeirloomToken\", \"HILO\") {\r\n        _grantRole(ADMIN_ROLE, msg.sender);\r\n        _setRoleAdmin(ADMIN_ROLE, ADMIN_ROLE);\r\n        _grantRole(SNAPSHOT_ROLE, msg.sender);\r\n        _setRoleAdmin(SNAPSHOT_ROLE, ADMIN_ROLE);\r\n        _grantRole(PAUSER_ROLE, msg.sender);\r\n        _setRoleAdmin(PAUSER_ROLE, ADMIN_ROLE);\r\n        _mint(treasury, supply * 10 ** decimals());\r\n        _grantRole(MINTER_ROLE, msg.sender);\r\n        _setRoleAdmin(MINTER_ROLE, ADMIN_ROLE);\r\n    }\r\n\r\n    function snapshot() public onlyRole(SNAPSHOT_ROLE) {\r\n        _snapshot();\r\n    }\r\n\r\n    function pause() public onlyRole(PAUSER_ROLE) {\r\n        _pause();\r\n    }\r\n\r\n    function unpause() public onlyRole(PAUSER_ROLE) {\r\n        _unpause();\r\n    }\r\n\r\n    function mint(address to, uint256 amount) public onlyRole(MINTER_ROLE) {\r\n        _mint(to, amount);\r\n    }\r\n\r\n    function _beforeTokenTransfer(address from, address to, uint256 amount)\r\n        internal\r\n        whenNotPaused\r\n        override(ERC20, ERC20Snapshot)\r\n    {\r\n        super._beforeTokenTransfer(from, to, amount);\r\n    }\r\n}\r\n",
  "sourcePath": "C:\\Users\\DELL\\Documents\\heirloomdao\\contracts\\contracts\\erc20\\HeirloomToken.sol",
  "compiler": {
    "name": "solc",
    "version": "0.8.14+commit.80d49f37.Emscripten.clang"
  },
  "schemaVersion": "3.4.7",
  "updatedAt": "2022-06-07T10:46:51.888Z",
  "networkType": "ethereum",
  "devdoc": {
    "kind": "dev",
    "methods": {
      "allowance(address,address)": {
        "details": "See {IERC20-allowance}."
      },
      "approve(address,uint256)": {
        "details": "See {IERC20-approve}. NOTE: If `amount` is the maximum `uint256`, the allowance is not updated on `transferFrom`. This is semantically equivalent to an infinite approval. Requirements: - `spender` cannot be the zero address."
      },
      "balanceOf(address)": {
        "details": "See {IERC20-balanceOf}."
      },
      "balanceOfAt(address,uint256)": {
        "details": "Retrieves the balance of `account` at the time `snapshotId` was created."
      },
      "burn(uint256)": {
        "details": "Destroys `amount` tokens from the caller. See {ERC20-_burn}."
      },
      "burnFrom(address,uint256)": {
        "details": "Destroys `amount` tokens from `account`, deducting from the caller's allowance. See {ERC20-_burn} and {ERC20-allowance}. Requirements: - the caller must have allowance for ``accounts``'s tokens of at least `amount`."
      },
      "decimals()": {
        "details": "Returns the number of decimals used to get its user representation. For example, if `decimals` equals `2`, a balance of `505` tokens should be displayed to a user as `5.05` (`505 / 10 ** 2`). Tokens usually opt for a value of 18, imitating the relationship between Ether and Wei. This is the value {ERC20} uses, unless this function is overridden; NOTE: This information is only used for _display_ purposes: it in no way affects any of the arithmetic of the contract, including {IERC20-balanceOf} and {IERC20-transfer}."
      },
      "decreaseAllowance(address,uint256)": {
        "details": "Atomically decreases the allowance granted to `spender` by the caller. This is an alternative to {approve} that can be used as a mitigation for problems described in {IERC20-approve}. Emits an {Approval} event indicating the updated allowance. Requirements: - `spender` cannot be the zero address. - `spender` must have allowance for the caller of at least `subtractedValue`."
      },
      "getRoleAdmin(bytes32)": {
        "details": "Returns the admin role that controls `role`. See {grantRole} and {revokeRole}. To change a role's admin, use {_setRoleAdmin}."
      },
      "grantRole(bytes32,address)": {
        "details": "Grants `role` to `account`. If `account` had not been already granted `role`, emits a {RoleGranted} event. Requirements: - the caller must have ``role``'s admin role."
      },
      "hasRole(bytes32,address)": {
        "details": "Returns `true` if `account` has been granted `role`."
      },
      "increaseAllowance(address,uint256)": {
        "details": "Atomically increases the allowance granted to `spender` by the caller. This is an alternative to {approve} that can be used as a mitigation for problems described in {IERC20-approve}. Emits an {Approval} event indicating the updated allowance. Requirements: - `spender` cannot be the zero address."
      },
      "name()": {
        "details": "Returns the name of the token."
      },
      "paused()": {
        "details": "Returns true if the contract is paused, and false otherwise."
      },
      "renounceRole(bytes32,address)": {
        "details": "Revokes `role` from the calling account. Roles are often managed via {grantRole} and {revokeRole}: this function's purpose is to provide a mechanism for accounts to lose their privileges if they are compromised (such as when a trusted device is misplaced). If the calling account had been revoked `role`, emits a {RoleRevoked} event. Requirements: - the caller must be `account`."
      },
      "revokeRole(bytes32,address)": {
        "details": "Revokes `role` from `account`. If `account` had been granted `role`, emits a {RoleRevoked} event. Requirements: - the caller must have ``role``'s admin role."
      },
      "supportsInterface(bytes4)": {
        "details": "See {IERC165-supportsInterface}."
      },
      "symbol()": {
        "details": "Returns the symbol of the token, usually a shorter version of the name."
      },
      "totalSupply()": {
        "details": "See {IERC20-totalSupply}."
      },
      "totalSupplyAt(uint256)": {
        "details": "Retrieves the total supply at the time `snapshotId` was created."
      },
      "transfer(address,uint256)": {
        "details": "See {IERC20-transfer}. Requirements: - `to` cannot be the zero address. - the caller must have a balance of at least `amount`."
      },
      "transferFrom(address,address,uint256)": {
        "details": "See {IERC20-transferFrom}. Emits an {Approval} event indicating the updated allowance. This is not required by the EIP. See the note at the beginning of {ERC20}. NOTE: Does not update the allowance if the current allowance is the maximum `uint256`. Requirements: - `from` and `to` cannot be the zero address. - `from` must have a balance of at least `amount`. - the caller must have allowance for ``from``'s tokens of at least `amount`."
      }
    },
    "version": 1
  },
  "userdoc": {
    "kind": "user",
    "methods": {},
    "version": 1
  }
}