{
  "contractName": "HeirloomRoyaltiesV1",
  "abi": [
    {
      "anonymous": false,
      "inputs": [
        {
          "indexed": false,
          "internalType": "uint256",
          "name": "tokenId",
          "type": "uint256"
        },
        {
          "components": [
            {
              "internalType": "address payable",
              "name": "representative",
              "type": "address"
            },
            {
              "internalType": "address payable",
              "name": "licenseProvider",
              "type": "address"
            },
            {
              "internalType": "uint96",
              "name": "value",
              "type": "uint96"
            }
          ],
          "indexed": false,
          "internalType": "struct LibPart.Part[]",
          "name": "royalties",
          "type": "tuple[]"
        }
      ],
      "name": "RoyaltiesSet",
      "type": "event"
    },
    {
      "inputs": [
        {
          "internalType": "uint256",
          "name": "id",
          "type": "uint256"
        }
      ],
      "name": "getHeirloomV1Royalties",
      "outputs": [
        {
          "components": [
            {
              "internalType": "address payable",
              "name": "representative",
              "type": "address"
            },
            {
              "internalType": "address payable",
              "name": "licenseProvider",
              "type": "address"
            },
            {
              "internalType": "uint96",
              "name": "value",
              "type": "uint96"
            }
          ],
          "internalType": "struct LibPart.Part[]",
          "name": "",
          "type": "tuple[]"
        }
      ],
      "stateMutability": "view",
      "type": "function"
    }
  ],
  "bytecode": "0x608060405234801561001057600080fd5b506101d5806100206000396000f3fe608060405234801561001057600080fd5b506004361061002b5760003560e01c8063b9220a7414610030575b600080fd5b61004361003e366004610106565b610059565b604051610050919061011f565b60405180910390f35b600081815260208181526040808320805482518185028101850190935280835260609492939192909184015b828210156100fb5760008481526020908190206040805160608101825260028602909201805473ffffffffffffffffffffffffffffffffffffffff908116845260019182015490811684860152600160a01b90046bffffffffffffffffffffffff16918301919091529083529092019101610085565b505050509050919050565b60006020828403121561011857600080fd5b5035919050565b602080825282518282018190526000919060409081850190868401855b82811015610192578151805173ffffffffffffffffffffffffffffffffffffffff90811686528782015116878601528501516bffffffffffffffffffffffff16858501526060909301929085019060010161013c565b509197965050505050505056fea2646970667358221220483a464ad942bb9076b11864b9e9dd733c2166b2a8c39416c9eaf58ce636c07b64736f6c634300080e0033",
  "immutableReferences": {},
  "source": "// SPDX-License-Identifier: MIT\r\npragma solidity ^0.8.4;\r\n\r\nimport \"./AbstractHeirloomRoyaltiesV1.sol\";\r\nimport \"../interfaces/IHeirloomRoyaltiesV1.sol\";\r\n\r\ncontract HeirloomRoyaltiesV1 is AbstractHeirloomRoyaltiesV1, IHeirloomRoyaltiesV1 {\r\n\r\n    function getHeirloomV1Royalties(uint256 id) override external view returns (LibPart.Part[] memory) {\r\n        return royalties[id];\r\n    }\r\n\r\n    function _onRoyaltiesSet(uint256 id, LibPart.Part[] memory _royalties) override internal {\r\n        emit RoyaltiesSet(id, _royalties);\r\n    }\r\n}\r\n",
  "sourcePath": "C:\\Users\\DELL\\Documents\\heirloomdao\\contracts\\contracts\\royalties\\HeirloomRoyaltiesV1.sol",
  "compiler": {
    "name": "solc",
    "version": "0.8.14+commit.80d49f37.Emscripten.clang"
  },
  "schemaVersion": "3.4.7",
  "updatedAt": "2022-06-07T10:45:15.737Z",
  "devdoc": {
    "kind": "dev",
    "methods": {},
    "version": 1
  },
  "userdoc": {
    "kind": "user",
    "methods": {},
    "version": 1
  }
}