{
  "contractName": "HeirloomLicenseNFT",
  "abi": [
    {
      "inputs": [
        {
          "internalType": "string",
          "name": "baseTokenUri",
          "type": "string"
        },
        {
          "internalType": "address",
          "name": "operator",
          "type": "address"
        },
        {
          "internalType": "address",
          "name": "admin",
          "type": "address"
        }
      ],
      "stateMutability": "nonpayable",
      "type": "constructor"
    },
    {
      "anonymous": false,
      "inputs": [
        {
          "indexed": true,
          "internalType": "address",
          "name": "account",
          "type": "address"
        },
        {
          "indexed": true,
          "internalType": "address",
          "name": "operator",
          "type": "address"
        },
        {
          "indexed": false,
          "internalType": "bool",
          "name": "approved",
          "type": "bool"
        }
      ],
      "name": "ApprovalForAll",
      "type": "event"
    },
    {
      "anonymous": false,
      "inputs": [
        {
          "indexed": true,
          "internalType": "address",
          "name": "newMarketOperator",
          "type": "address"
        }
      ],
      "name": "MarketOperatorChanged",
      "type": "event"
    },
    {
      "anonymous": false,
      "inputs": [
        {
          "indexed": false,
          "internalType": "address",
          "name": "account",
          "type": "address"
        }
      ],
      "name": "Paused",
      "type": "event"
    },
    {
      "anonymous": false,
      "inputs": [
        {
          "indexed": true,
          "internalType": "bytes32",
          "name": "role",
          "type": "bytes32"
        },
        {
          "indexed": true,
          "internalType": "bytes32",
          "name": "previousAdminRole",
          "type": "bytes32"
        },
        {
          "indexed": true,
          "internalType": "bytes32",
          "name": "newAdminRole",
          "type": "bytes32"
        }
      ],
      "name": "RoleAdminChanged",
      "type": "event"
    },
    {
      "anonymous": false,
      "inputs": [
        {
          "indexed": true,
          "internalType": "bytes32",
          "name": "role",
          "type": "bytes32"
        },
        {
          "indexed": true,
          "internalType": "address",
          "name": "account",
          "type": "address"
        },
        {
          "indexed": true,
          "internalType": "address",
          "name": "sender",
          "type": "address"
        }
      ],
      "name": "RoleGranted",
      "type": "event"
    },
    {
      "anonymous": false,
      "inputs": [
        {
          "indexed": true,
          "internalType": "bytes32",
          "name": "role",
          "type": "bytes32"
        },
        {
          "indexed": true,
          "internalType": "address",
          "name": "account",
          "type": "address"
        },
        {
          "indexed": true,
          "internalType": "address",
          "name": "sender",
          "type": "address"
        }
      ],
      "name": "RoleRevoked",
      "type": "event"
    },
    {
      "anonymous": false,
      "inputs": [
        {
          "indexed": false,
          "internalType": "uint256",
          "name": "tokenId",
          "type": "uint256"
        },
        {
          "components": [
            {
              "internalType": "address payable",
              "name": "representative",
              "type": "address"
            },
            {
              "internalType": "address payable",
              "name": "licenseProvider",
              "type": "address"
            },
            {
              "internalType": "uint96",
              "name": "value",
              "type": "uint96"
            }
          ],
          "indexed": false,
          "internalType": "struct LibPart.Part[]",
          "name": "royalties",
          "type": "tuple[]"
        }
      ],
      "name": "RoyaltiesSet",
      "type": "event"
    },
    {
      "anonymous": false,
      "inputs": [
        {
          "indexed": true,
          "internalType": "address",
          "name": "operator",
          "type": "address"
        },
        {
          "indexed": true,
          "internalType": "address",
          "name": "from",
          "type": "address"
        },
        {
          "indexed": true,
          "internalType": "address",
          "name": "to",
          "type": "address"
        },
        {
          "indexed": false,
          "internalType": "uint256[]",
          "name": "ids",
          "type": "uint256[]"
        },
        {
          "indexed": false,
          "internalType": "uint256[]",
          "name": "values",
          "type": "uint256[]"
        }
      ],
      "name": "TransferBatch",
      "type": "event"
    },
    {
      "anonymous": false,
      "inputs": [
        {
          "indexed": true,
          "internalType": "address",
          "name": "operator",
          "type": "address"
        },
        {
          "indexed": true,
          "internalType": "address",
          "name": "from",
          "type": "address"
        },
        {
          "indexed": true,
          "internalType": "address",
          "name": "to",
          "type": "address"
        },
        {
          "indexed": false,
          "internalType": "uint256",
          "name": "id",
          "type": "uint256"
        },
        {
          "indexed": false,
          "internalType": "uint256",
          "name": "value",
          "type": "uint256"
        }
      ],
      "name": "TransferSingle",
      "type": "event"
    },
    {
      "anonymous": false,
      "inputs": [
        {
          "indexed": false,
          "internalType": "string",
          "name": "value",
          "type": "string"
        },
        {
          "indexed": true,
          "internalType": "uint256",
          "name": "id",
          "type": "uint256"
        }
      ],
      "name": "URI",
      "type": "event"
    },
    {
      "anonymous": false,
      "inputs": [
        {
          "indexed": false,
          "internalType": "address",
          "name": "account",
          "type": "address"
        }
      ],
      "name": "Unpaused",
      "type": "event"
    },
    {
      "inputs": [],
      "name": "DEFAULT_ADMIN_ROLE",
      "outputs": [
        {
          "internalType": "bytes32",
          "name": "",
          "type": "bytes32"
        }
      ],
      "stateMutability": "view",
      "type": "function",
      "constant": true
    },
    {
      "inputs": [
        {
          "internalType": "address",
          "name": "account",
          "type": "address"
        },
        {
          "internalType": "uint256",
          "name": "id",
          "type": "uint256"
        }
      ],
      "name": "balanceOf",
      "outputs": [
        {
          "internalType": "uint256",
          "name": "",
          "type": "uint256"
        }
      ],
      "stateMutability": "view",
      "type": "function",
      "constant": true
    },
    {
      "inputs": [
        {
          "internalType": "address[]",
          "name": "accounts",
          "type": "address[]"
        },
        {
          "internalType": "uint256[]",
          "name": "ids",
          "type": "uint256[]"
        }
      ],
      "name": "balanceOfBatch",
      "outputs": [
        {
          "internalType": "uint256[]",
          "name": "",
          "type": "uint256[]"
        }
      ],
      "stateMutability": "view",
      "type": "function",
      "constant": true
    },
    {
      "inputs": [
        {
          "internalType": "uint256",
          "name": "id",
          "type": "uint256"
        }
      ],
      "name": "exists",
      "outputs": [
        {
          "internalType": "bool",
          "name": "",
          "type": "bool"
        }
      ],
      "stateMutability": "view",
      "type": "function",
      "constant": true
    },
    {
      "inputs": [
        {
          "internalType": "uint256",
          "name": "id",
          "type": "uint256"
        }
      ],
      "name": "getHeirloomV1Royalties",
      "outputs": [
        {
          "components": [
            {
              "internalType": "address payable",
              "name": "representative",
              "type": "address"
            },
            {
              "internalType": "address payable",
              "name": "licenseProvider",
              "type": "address"
            },
            {
              "internalType": "uint96",
              "name": "value",
              "type": "uint96"
            }
          ],
          "internalType": "struct LibPart.Part[]",
          "name": "",
          "type": "tuple[]"
        }
      ],
      "stateMutability": "view",
      "type": "function",
      "constant": true
    },
    {
      "inputs": [
        {
          "internalType": "bytes32",
          "name": "role",
          "type": "bytes32"
        }
      ],
      "name": "getRoleAdmin",
      "outputs": [
        {
          "internalType": "bytes32",
          "name": "",
          "type": "bytes32"
        }
      ],
      "stateMutability": "view",
      "type": "function",
      "constant": true
    },
    {
      "inputs": [
        {
          "internalType": "bytes32",
          "name": "role",
          "type": "bytes32"
        },
        {
          "internalType": "address",
          "name": "account",
          "type": "address"
        }
      ],
      "name": "grantRole",
      "outputs": [],
      "stateMutability": "nonpayable",
      "type": "function"
    },
    {
      "inputs": [
        {
          "internalType": "bytes32",
          "name": "role",
          "type": "bytes32"
        },
        {
          "internalType": "address",
          "name": "account",
          "type": "address"
        }
      ],
      "name": "hasRole",
      "outputs": [
        {
          "internalType": "bool",
          "name": "",
          "type": "bool"
        }
      ],
      "stateMutability": "view",
      "type": "function",
      "constant": true
    },
    {
      "inputs": [
        {
          "internalType": "address",
          "name": "account",
          "type": "address"
        },
        {
          "internalType": "address",
          "name": "operator",
          "type": "address"
        }
      ],
      "name": "isApprovedForAll",
      "outputs": [
        {
          "internalType": "bool",
          "name": "",
          "type": "bool"
        }
      ],
      "stateMutability": "view",
      "type": "function",
      "constant": true
    },
    {
      "inputs": [],
      "name": "paused",
      "outputs": [
        {
          "internalType": "bool",
          "name": "",
          "type": "bool"
        }
      ],
      "stateMutability": "view",
      "type": "function",
      "constant": true
    },
    {
      "inputs": [
        {
          "internalType": "bytes32",
          "name": "role",
          "type": "bytes32"
        },
        {
          "internalType": "address",
          "name": "account",
          "type": "address"
        }
      ],
      "name": "renounceRole",
      "outputs": [],
      "stateMutability": "nonpayable",
      "type": "function"
    },
    {
      "inputs": [
        {
          "internalType": "bytes32",
          "name": "role",
          "type": "bytes32"
        },
        {
          "internalType": "address",
          "name": "account",
          "type": "address"
        }
      ],
      "name": "revokeRole",
      "outputs": [],
      "stateMutability": "nonpayable",
      "type": "function"
    },
    {
      "inputs": [
        {
          "internalType": "address",
          "name": "from",
          "type": "address"
        },
        {
          "internalType": "address",
          "name": "to",
          "type": "address"
        },
        {
          "internalType": "uint256[]",
          "name": "ids",
          "type": "uint256[]"
        },
        {
          "internalType": "uint256[]",
          "name": "amounts",
          "type": "uint256[]"
        },
        {
          "internalType": "bytes",
          "name": "data",
          "type": "bytes"
        }
      ],
      "name": "safeBatchTransferFrom",
      "outputs": [],
      "stateMutability": "nonpayable",
      "type": "function"
    },
    {
      "inputs": [
        {
          "internalType": "address",
          "name": "from",
          "type": "address"
        },
        {
          "internalType": "address",
          "name": "to",
          "type": "address"
        },
        {
          "internalType": "uint256",
          "name": "id",
          "type": "uint256"
        },
        {
          "internalType": "uint256",
          "name": "amount",
          "type": "uint256"
        },
        {
          "internalType": "bytes",
          "name": "data",
          "type": "bytes"
        }
      ],
      "name": "safeTransferFrom",
      "outputs": [],
      "stateMutability": "nonpayable",
      "type": "function"
    },
    {
      "inputs": [
        {
          "internalType": "address",
          "name": "operator",
          "type": "address"
        },
        {
          "internalType": "bool",
          "name": "approved",
          "type": "bool"
        }
      ],
      "name": "setApprovalForAll",
      "outputs": [],
      "stateMutability": "nonpayable",
      "type": "function"
    },
    {
      "inputs": [
        {
          "internalType": "uint256",
          "name": "id",
          "type": "uint256"
        }
      ],
      "name": "totalSupply",
      "outputs": [
        {
          "internalType": "uint256",
          "name": "",
          "type": "uint256"
        }
      ],
      "stateMutability": "view",
      "type": "function",
      "constant": true
    },
    {
      "inputs": [
        {
          "internalType": "uint256",
          "name": "",
          "type": "uint256"
        }
      ],
      "name": "uri",
      "outputs": [
        {
          "internalType": "string",
          "name": "",
          "type": "string"
        }
      ],
      "stateMutability": "view",
      "type": "function",
      "constant": true
    },
    {
      "inputs": [
        {
          "internalType": "string",
          "name": "newuri",
          "type": "string"
        }
      ],
      "name": "setURI",
      "outputs": [],
      "stateMutability": "nonpayable",
      "type": "function"
    },
    {
      "inputs": [],
      "name": "pause",
      "outputs": [],
      "stateMutability": "nonpayable",
      "type": "function"
    },
    {
      "inputs": [],
      "name": "unpause",
      "outputs": [],
      "stateMutability": "nonpayable",
      "type": "function"
    },
    {
      "inputs": [
        {
          "internalType": "address",
          "name": "licenseProvider",
          "type": "address"
        },
        {
          "internalType": "address",
          "name": "representative",
          "type": "address"
        },
        {
          "internalType": "uint256",
          "name": "maxSupply",
          "type": "uint256"
        },
        {
          "internalType": "uint96",
          "name": "rbp",
          "type": "uint96"
        }
      ],
      "name": "createLicense",
      "outputs": [
        {
          "internalType": "uint256",
          "name": "",
          "type": "uint256"
        }
      ],
      "stateMutability": "nonpayable",
      "type": "function"
    },
    {
      "inputs": [
        {
          "internalType": "address",
          "name": "account",
          "type": "address"
        }
      ],
      "name": "revokeApprovalForAll",
      "outputs": [],
      "stateMutability": "nonpayable",
      "type": "function"
    },
    {
      "inputs": [],
      "name": "getMarketOperator",
      "outputs": [
        {
          "internalType": "address",
          "name": "",
          "type": "address"
        }
      ],
      "stateMutability": "view",
      "type": "function",
      "constant": true
    },
    {
      "inputs": [
        {
          "internalType": "bytes4",
          "name": "interfaceId",
          "type": "bytes4"
        }
      ],
      "name": "supportsInterface",
      "outputs": [
        {
          "internalType": "bool",
          "name": "",
          "type": "bool"
        }
      ],
      "stateMutability": "view",
      "type": "function",
      "constant": true
    }
  ],
  "bytecode": "0x60806040523480156200001157600080fd5b5060405162002d5038038062002d5083398101604081905262000034916200037b565b8262000040816200019a565b506006805460ff191690556200006660008051602062002d3083398151915283620001b3565b6200008160008051602062002cf083398151915283620001b3565b6200009c60008051602062002d1083398151915282620001b3565b620000c87fad0f4d923b26df99ed90553d189d268443625c1ce82a268b2504301f2900d26882620001b3565b620001037fad0f4d923b26df99ed90553d189d268443625c1ce82a268b2504301f2900d26860008051602062002d1083398151915262000257565b6200012d60008051602062002cf083398151915260008051602062002d1083398151915262000257565b6200015760008051602062002d3083398151915260008051602062002d1083398151915262000257565b6200017260008051602062002d108339815191528062000257565b50600880546001600160a01b0319166001600160a01b039290921691909117905550620004ba565b8051620001af906002906020840190620002a2565b5050565b60008281526003602090815260408083206001600160a01b038516845290915290205460ff16620001af5760008281526003602090815260408083206001600160a01b03851684529091529020805460ff19166001179055620002133390565b6001600160a01b0316816001600160a01b0316837f2f8788117e7eff1d82e926ec794901d17c78024a50270940304540a733656f0d60405160405180910390a45050565b600082815260036020526040808220600101805490849055905190918391839186917fbd79b86ffe0ab8e8776151514217cd7cacd52c909f66475c3af44e129f0b00ff9190a4505050565b828054620002b0906200047e565b90600052602060002090601f016020900481019282620002d457600085556200031f565b82601f10620002ef57805160ff19168380011785556200031f565b828001600101855582156200031f579182015b828111156200031f57825182559160200191906001019062000302565b506200032d92915062000331565b5090565b5b808211156200032d576000815560010162000332565b634e487b7160e01b600052604160045260246000fd5b80516001600160a01b03811681146200037657600080fd5b919050565b6000806000606084860312156200039157600080fd5b83516001600160401b0380821115620003a957600080fd5b818601915086601f830112620003be57600080fd5b815181811115620003d357620003d362000348565b604051601f8201601f19908116603f01168101908382118183101715620003fe57620003fe62000348565b816040528281526020935089848487010111156200041b57600080fd5b600091505b828210156200043f578482018401518183018501529083019062000420565b82821115620004515760008484830101525b9650620004639150508682016200035e565b9350505062000475604085016200035e565b90509250925092565b600181811c908216806200049357607f821691505b602082108103620004b457634e487b7160e01b600052602260045260246000fd5b50919050565b61282680620004ca6000396000f3fe608060405234801561001057600080fd5b50600436106101975760003560e01c80635c975abb116100e3578063b9220a741161008c578063e985e9c511610066578063e985e9c5146103ad578063f242432a146103e9578063f329f061146103fc57600080fd5b8063b9220a741461035a578063bd85b0391461037a578063d547741f1461039a57600080fd5b806391d14854116100bd57806391d1485414610306578063a217fddf1461033f578063a22cb4651461034757600080fd5b80635c975abb146102d35780637801ee34146102de5780638456cb59146102fe57600080fd5b80632f2ff15d116101455780634e0a23341161011f5780634e0a23341461027e5780634e1273f4146102915780634f558e79146102b157600080fd5b80632f2ff15d1461025057806336568abe146102635780633f4ba83a1461027657600080fd5b80630e89341c116101765780630e89341c146101fa578063248a9ca31461021a5780632eb2c2d61461023d57600080fd5b8062fdd58e1461019c57806301ffc9a7146101c257806302fe5305146101e5575b600080fd5b6101af6101aa366004611eb6565b61040f565b6040519081526020015b60405180910390f35b6101d56101d0366004611ef6565b6104a6565b60405190151581526020016101b9565b6101f86101f3366004611fb4565b6104d7565b005b61020d610208366004612005565b61050f565b6040516101b9919061207a565b6101af610228366004612005565b60009081526003602052604090206001015490565b6101f861024b366004612142565b6105a3565b6101f861025e3660046121ec565b610645565b6101f86102713660046121ec565b610670565b6101f86106f8565b6101af61028c366004612218565b61072e565b6102a461029f366004612273565b610806565b6040516101b99190612379565b6101d56102bf366004612005565b600090815260046020526040902054151590565b60065460ff166101d5565b6102e6610930565b6040516001600160a01b0390911681526020016101b9565b6101f8610970565b6101d56103143660046121ec565b60009182526003602090815260408084206001600160a01b0393909316845291905290205460ff1690565b6101af600081565b6101f861035536600461238c565b6109a3565b61036d610368366004612005565b6109ae565b6040516101b99190612423565b6101af610388366004612005565b60009081526004602052604090205490565b6101f86103a83660046121ec565b610a52565b6101d56103bb366004612436565b6001600160a01b03918216600090815260016020908152604080832093909416825291909152205460ff1690565b6101f86103f7366004612460565b610a78565b6101f861040a3660046124c5565b610aff565b60006001600160a01b0383166104805760405162461bcd60e51b815260206004820152602b60248201527f455243313135353a2062616c616e636520717565727920666f7220746865207a60448201526a65726f206164647265737360a81b60648201526084015b60405180910390fd5b506000908152602081815260408083206001600160a01b03949094168352929052205490565b60006311b77d6360e21b6001600160e01b03198316016104c857506001919050565b6104d182610b43565b92915050565b7ffddb143be89620896ce3745ceb136fd672c98dea954adb8724dcfae9dc08796d6105028133610b68565b61050b82610be8565b5050565b60606002805461051e906124e0565b80601f016020809104026020016040519081016040528092919081815260200182805461054a906124e0565b80156105975780601f1061056c57610100808354040283529160200191610597565b820191906000526020600020905b81548152906001019060200180831161057a57829003601f168201915b50505050509050919050565b6001600160a01b0385163314806105bf57506105bf85336103bb565b6106315760405162461bcd60e51b815260206004820152603260248201527f455243313135353a207472616e736665722063616c6c6572206973206e6f742060448201527f6f776e6572206e6f7220617070726f76656400000000000000000000000000006064820152608401610477565b61063e8585858585610bfb565b5050505050565b6000828152600360205260409020600101546106618133610b68565b61066b8383610e67565b505050565b6001600160a01b03811633146106ee5760405162461bcd60e51b815260206004820152602f60248201527f416363657373436f6e74726f6c3a2063616e206f6e6c792072656e6f756e636560448201527f20726f6c657320666f722073656c6600000000000000000000000000000000006064820152608401610477565b61050b8282610f09565b7fad0f4d923b26df99ed90553d189d268443625c1ce82a268b2504301f2900d2686107238133610b68565b61072b610f8c565b50565b60007f8ccbc2c0141407af8e533e0caeae8e08f837db7ce5bf08ab977e0c83af5622a461075b8133610b68565b60065460ff16156107a15760405162461bcd60e51b815260206004820152601060248201526f14185d5cd8589b194e881c185d5cd95960821b6044820152606401610477565b6107af600780546001019055565b60006107ba60075490565b90506107c881888887611028565b6008546107e19088906001600160a01b03166001611114565b6107fc878287604051806020016040528060008152506111f4565b9695505050505050565b6060815183511461086b5760405162461bcd60e51b815260206004820152602960248201527f455243313135353a206163636f756e747320616e6420696473206c656e677468604482015268040dad2e6dac2e8c6d60bb1b6064820152608401610477565b6000835167ffffffffffffffff81111561088757610887611f13565b6040519080825280602002602001820160405280156108b0578160200160208202803683370190505b50905060005b8451811015610928576108fb8582815181106108d4576108d461251a565b60200260200101518583815181106108ee576108ee61251a565b602002602001015161040f565b82828151811061090d5761090d61251a565b602090810291909101015261092181612546565b90506108b6565b509392505050565b60007ffddb143be89620896ce3745ceb136fd672c98dea954adb8724dcfae9dc08796d61095d8133610b68565b6008546001600160a01b031691505b5090565b7fad0f4d923b26df99ed90553d189d268443625c1ce82a268b2504301f2900d26861099b8133610b68565b61072b611304565b61050b338383611114565b606060056000838152602001908152602001600020805480602002602001604051908101604052809291908181526020016000905b82821015610a47576000848152602090819020604080516060810182526002860290920180546001600160a01b03908116845260019182015490811684860152600160a01b90046001600160601b03169183019190915290835290920191016109e3565b505050509050919050565b600082815260036020526040902060010154610a6e8133610b68565b61066b8383610f09565b6001600160a01b038516331480610a945750610a9485336103bb565b610af25760405162461bcd60e51b815260206004820152602960248201527f455243313135353a2063616c6c6572206973206e6f74206f776e6572206e6f7260448201526808185c1c1c9bdd995960ba1b6064820152608401610477565b61063e858585858561137f565b7f1420b0f58270d87965358ed9ad1a48918ba86101e98f42f25e29f59e586918cd610b2a8133610b68565b60085461050b9083906001600160a01b03166000611114565b60006001600160e01b03198216637965db0b60e01b14806104d157506104d18261151d565b60008281526003602090815260408083206001600160a01b038516845290915290205460ff1661050b57610ba6816001600160a01b0316601461156d565b610bb183602061156d565b604051602001610bc292919061255f565b60408051601f198184030181529082905262461bcd60e51b82526104779160040161207a565b805161050b906002906020840190611e0a565b8151835114610c5d5760405162461bcd60e51b815260206004820152602860248201527f455243313135353a2069647320616e6420616d6f756e7473206c656e677468206044820152670dad2e6dac2e8c6d60c31b6064820152608401610477565b6001600160a01b038416610cc15760405162461bcd60e51b815260206004820152602560248201527f455243313135353a207472616e7366657220746f20746865207a65726f206164604482015264647265737360d81b6064820152608401610477565b33610cd081878787878761171d565b60005b8451811015610df9576000858281518110610cf057610cf061251a565b602002602001015190506000858381518110610d0e57610d0e61251a565b602090810291909101810151600084815280835260408082206001600160a01b038e168352909352919091205490915081811015610da15760405162461bcd60e51b815260206004820152602a60248201527f455243313135353a20696e73756666696369656e742062616c616e636520666f60448201526939103a3930b739b332b960b11b6064820152608401610477565b6000838152602081815260408083206001600160a01b038e8116855292528083208585039055908b16825281208054849290610dde9084906125e0565b9250508190555050505080610df290612546565b9050610cd3565b50846001600160a01b0316866001600160a01b0316826001600160a01b03167f4a39dc06d4c0dbc64b70af90fd698a233a518aa5d07e595d983b8c0526c8f7fb8787604051610e499291906125f8565b60405180910390a4610e5f81878787878761172b565b505050505050565b60008281526003602090815260408083206001600160a01b038516845290915290205460ff1661050b5760008281526003602090815260408083206001600160a01b03851684529091529020805460ff19166001179055610ec53390565b6001600160a01b0316816001600160a01b0316837f2f8788117e7eff1d82e926ec794901d17c78024a50270940304540a733656f0d60405160405180910390a45050565b60008281526003602090815260408083206001600160a01b038516845290915290205460ff161561050b5760008281526003602090815260408083206001600160a01b0385168085529252808320805460ff1916905551339285917ff6391f5c32d9c69d2a47ea670b442974b53935d1edc7fd64eb21e047a839171b9190a45050565b60065460ff16610fde5760405162461bcd60e51b815260206004820152601460248201527f5061757361626c653a206e6f74207061757365640000000000000000000000006044820152606401610477565b6006805460ff191690557f5db9ee0a495bf2e6ff9c91a7834c1ba4fdd244a5e8aa4e537bd38aeae4b073aa335b6040516001600160a01b03909116815260200160405180910390a1565b604080516001808252818301909252600091816020015b604080516060810182526000808252602080830182905292820152825260001990920191018161103f57905050905081816000815181106110825761108261251a565b6020026020010151604001906001600160601b031690816001600160601b03168152505083816000815181106110ba576110ba61251a565b6020026020010151602001906001600160a01b031690816001600160a01b03168152505082816000815181106110f2576110f261251a565b60209081029190910101516001600160a01b03909116905261063e85826118d0565b816001600160a01b0316836001600160a01b0316036111875760405162461bcd60e51b815260206004820152602960248201527f455243313135353a2073657474696e6720617070726f76616c20737461747573604482015268103337b91039b2b63360b91b6064820152608401610477565b6001600160a01b03838116600081815260016020908152604080832094871680845294825291829020805460ff191686151590811790915591519182527f17307eab39ab6107e8899845ad3d59bd9653f200f220920489ca2b5937696c31910160405180910390a3505050565b6001600160a01b0384166112545760405162461bcd60e51b815260206004820152602160248201527f455243313135353a206d696e7420746f20746865207a65726f206164647265736044820152607360f81b6064820152608401610477565b336112748160008761126588611b7a565b61126e88611b7a565b8761171d565b6000848152602081815260408083206001600160a01b0389168452909152812080548592906112a49084906125e0565b909155505060408051858152602081018590526001600160a01b0380881692600092918516917fc3d58168c5ae7397731d063d5bbf3d657854427343f4c083240f7aacaa2d0f62910160405180910390a461063e81600087878787611bc5565b60065460ff161561134a5760405162461bcd60e51b815260206004820152601060248201526f14185d5cd8589b194e881c185d5cd95960821b6044820152606401610477565b6006805460ff191660011790557f62e78cea01bee320cd4e420270b5ea74000d11b0c9f74754ebdbfc544b05a25861100b3390565b6001600160a01b0384166113e35760405162461bcd60e51b815260206004820152602560248201527f455243313135353a207472616e7366657220746f20746865207a65726f206164604482015264647265737360d81b6064820152608401610477565b336113f381878761126588611b7a565b6000848152602081815260408083206001600160a01b038a168452909152902054838110156114775760405162461bcd60e51b815260206004820152602a60248201527f455243313135353a20696e73756666696369656e742062616c616e636520666f60448201526939103a3930b739b332b960b11b6064820152608401610477565b6000858152602081815260408083206001600160a01b038b81168552925280832087850390559088168252812080548692906114b49084906125e0565b909155505060408051868152602081018690526001600160a01b03808916928a821692918616917fc3d58168c5ae7397731d063d5bbf3d657854427343f4c083240f7aacaa2d0f62910160405180910390a4611514828888888888611bc5565b50505050505050565b60006001600160e01b03198216636cdb3d1360e11b148061154e57506001600160e01b031982166303a24d0760e21b145b806104d157506301ffc9a760e01b6001600160e01b03198316146104d1565b6060600061157c836002612626565b6115879060026125e0565b67ffffffffffffffff81111561159f5761159f611f13565b6040519080825280601f01601f1916602001820160405280156115c9576020820181803683370190505b509050600360fc1b816000815181106115e4576115e461251a565b60200101906001600160f81b031916908160001a905350600f60fb1b816001815181106116135761161361251a565b60200101906001600160f81b031916908160001a9053506000611637846002612626565b6116429060016125e0565b90505b60018111156116c7577f303132333435363738396162636465660000000000000000000000000000000085600f16601081106116835761168361251a565b1a60f81b8282815181106116995761169961251a565b60200101906001600160f81b031916908160001a90535060049490941c936116c081612645565b9050611645565b5083156117165760405162461bcd60e51b815260206004820181905260248201527f537472696e67733a20686578206c656e67746820696e73756666696369656e746044820152606401610477565b9392505050565b610e5f868686868686611cc1565b6001600160a01b0384163b15610e5f5760405163bc197c8160e01b81526001600160a01b0385169063bc197c819061176f908990899088908890889060040161265c565b6020604051808303816000875af19250505080156117aa575060408051601f3d908101601f191682019092526117a7918101906126ba565b60015b61185f576117b66126d7565b806308c379a0036117ef57506117ca6126f3565b806117d557506117f1565b8060405162461bcd60e51b8152600401610477919061207a565b505b60405162461bcd60e51b815260206004820152603460248201527f455243313135353a207472616e7366657220746f206e6f6e204552433131353560448201527f526563656976657220696d706c656d656e7465720000000000000000000000006064820152608401610477565b6001600160e01b0319811663bc197c8160e01b146115145760405162461bcd60e51b815260206004820152602860248201527f455243313135353a204552433131353552656365697665722072656a656374656044820152676420746f6b656e7360c01b6064820152608401610477565b6000805b8251811015611af75760006001600160a01b03168382815181106118fa576118fa61251a565b6020026020010151602001516001600160a01b0316036119825760405162461bcd60e51b815260206004820152602f60248201527f486569726c6f6f6d20526f79616c746965733a20526563697069656e7420736860448201527f6f756c642062652070726573656e7400000000000000000000000000000000006064820152608401610477565b8281815181106119945761199461251a565b6020026020010151604001516001600160601b0316600003611a1e5760405162461bcd60e51b815260206004820152603460248201527f486569726c6f6f6d20526f79616c746965733a20526f79616c74792076616c7560448201527f652073686f756c6420626520706f7369746976650000000000000000000000006064820152608401610477565b828181518110611a3057611a3061251a565b6020026020010151604001516001600160601b031682611a5091906125e0565b915060056000858152602001908152602001600020838281518110611a7757611a7761251a565b602090810291909101810151825460018181018555600094855293839020825160029092020180546001600160a01b0392831673ffffffffffffffffffffffffffffffffffffffff19909116178155928201516040909201516001600160601b0316600160a01b0291161791015580611aef81612546565b9150506118d4565b506103e8811115611b705760405162461bcd60e51b815260206004820152603960248201527f486569726c6f6f6d20526f79616c746965733a20526f79616c747920746f746160448201527f6c2076616c75652073686f756c64206265203c3d2031303030000000000000006064820152608401610477565b61066b8383611dcd565b60408051600180825281830190925260609160009190602080830190803683370190505090508281600081518110611bb457611bb461251a565b602090810291909101015292915050565b6001600160a01b0384163b15610e5f5760405163f23a6e6160e01b81526001600160a01b0385169063f23a6e6190611c09908990899088908890889060040161277d565b6020604051808303816000875af1925050508015611c44575060408051601f3d908101601f19168201909252611c41918101906126ba565b60015b611c50576117b66126d7565b6001600160e01b0319811663f23a6e6160e01b146115145760405162461bcd60e51b815260206004820152602860248201527f455243313135353a204552433131353552656365697665722072656a656374656044820152676420746f6b656e7360c01b6064820152608401610477565b6001600160a01b038516611d485760005b8351811015611d4657828181518110611ced57611ced61251a565b602002602001015160046000868481518110611d0b57611d0b61251a565b602002602001015181526020019081526020016000206000828254611d3091906125e0565b90915550611d3f905081612546565b9050611cd2565b505b6001600160a01b038416610e5f5760005b835181101561151457828181518110611d7457611d7461251a565b602002602001015160046000868481518110611d9257611d9261251a565b602002602001015181526020019081526020016000206000828254611db791906127c0565b90915550611dc6905081612546565b9050611d59565b7f7b7e726336d92c1d8b742c4692d6859c003569668044234df9d4999436b2c48a8282604051611dfe9291906127d7565b60405180910390a15050565b828054611e16906124e0565b90600052602060002090601f016020900481019282611e385760008555611e7e565b82601f10611e5157805160ff1916838001178555611e7e565b82800160010185558215611e7e579182015b82811115611e7e578251825591602001919060010190611e63565b5061096c9291505b8082111561096c5760008155600101611e86565b80356001600160a01b0381168114611eb157600080fd5b919050565b60008060408385031215611ec957600080fd5b611ed283611e9a565b946020939093013593505050565b6001600160e01b03198116811461072b57600080fd5b600060208284031215611f0857600080fd5b813561171681611ee0565b634e487b7160e01b600052604160045260246000fd5b601f8201601f1916810167ffffffffffffffff81118282101715611f4f57611f4f611f13565b6040525050565b600067ffffffffffffffff831115611f7057611f70611f13565b604051611f87601f8501601f191660200182611f29565b809150838152848484011115611f9c57600080fd5b83836020830137600060208583010152509392505050565b600060208284031215611fc657600080fd5b813567ffffffffffffffff811115611fdd57600080fd5b8201601f81018413611fee57600080fd5b611ffd84823560208401611f56565b949350505050565b60006020828403121561201757600080fd5b5035919050565b60005b83811015612039578181015183820152602001612021565b83811115612048576000848401525b50505050565b6000815180845261206681602086016020860161201e565b601f01601f19169290920160200192915050565b602081526000611716602083018461204e565b600067ffffffffffffffff8211156120a7576120a7611f13565b5060051b60200190565b600082601f8301126120c257600080fd5b813560206120cf8261208d565b6040516120dc8282611f29565b83815260059390931b85018201928281019150868411156120fc57600080fd5b8286015b848110156121175780358352918301918301612100565b509695505050505050565b600082601f83011261213357600080fd5b61171683833560208501611f56565b600080600080600060a0868803121561215a57600080fd5b61216386611e9a565b945061217160208701611e9a565b9350604086013567ffffffffffffffff8082111561218e57600080fd5b61219a89838a016120b1565b945060608801359150808211156121b057600080fd5b6121bc89838a016120b1565b935060808801359150808211156121d257600080fd5b506121df88828901612122565b9150509295509295909350565b600080604083850312156121ff57600080fd5b8235915061220f60208401611e9a565b90509250929050565b6000806000806080858703121561222e57600080fd5b61223785611e9a565b935061224560208601611e9a565b92506040850135915060608501356001600160601b038116811461226857600080fd5b939692955090935050565b6000806040838503121561228657600080fd5b823567ffffffffffffffff8082111561229e57600080fd5b818501915085601f8301126122b257600080fd5b813560206122bf8261208d565b6040516122cc8282611f29565b83815260059390931b85018201928281019150898411156122ec57600080fd5b948201945b838610156123115761230286611e9a565b825294820194908201906122f1565b9650508601359250508082111561232757600080fd5b50612334858286016120b1565b9150509250929050565b600081518084526020808501945080840160005b8381101561236e57815187529582019590820190600101612352565b509495945050505050565b602081526000611716602083018461233e565b6000806040838503121561239f57600080fd5b6123a883611e9a565b9150602083013580151581146123bd57600080fd5b809150509250929050565b600081518084526020808501945080840160005b8381101561236e57815180516001600160a01b0390811689528482015116848901526040908101516001600160601b031690880152606090960195908201906001016123dc565b60208152600061171660208301846123c8565b6000806040838503121561244957600080fd5b61245283611e9a565b915061220f60208401611e9a565b600080600080600060a0868803121561247857600080fd5b61248186611e9a565b945061248f60208701611e9a565b93506040860135925060608601359150608086013567ffffffffffffffff8111156124b957600080fd5b6121df88828901612122565b6000602082840312156124d757600080fd5b61171682611e9a565b600181811c908216806124f457607f821691505b60208210810361251457634e487b7160e01b600052602260045260246000fd5b50919050565b634e487b7160e01b600052603260045260246000fd5b634e487b7160e01b600052601160045260246000fd5b60006001820161255857612558612530565b5060010190565b7f416363657373436f6e74726f6c3a206163636f756e742000000000000000000081526000835161259781601785016020880161201e565b7f206973206d697373696e6720726f6c652000000000000000000000000000000060179184019182015283516125d481602884016020880161201e565b01602801949350505050565b600082198211156125f3576125f3612530565b500190565b60408152600061260b604083018561233e565b828103602084015261261d818561233e565b95945050505050565b600081600019048311821515161561264057612640612530565b500290565b60008161265457612654612530565b506000190190565b60006001600160a01b03808816835280871660208401525060a0604083015261268860a083018661233e565b828103606084015261269a818661233e565b905082810360808401526126ae818561204e565b98975050505050505050565b6000602082840312156126cc57600080fd5b815161171681611ee0565b600060033d11156126f05760046000803e5060005160e01c5b90565b600060443d10156127015790565b6040516003193d81016004833e81513d67ffffffffffffffff816024840111818411171561273157505050505090565b82850191508151818111156127495750505050505090565b843d87010160208285010111156127635750505050505090565b61277260208286010187611f29565b509095945050505050565b60006001600160a01b03808816835280871660208401525084604083015283606083015260a060808301526127b560a083018461204e565b979650505050505050565b6000828210156127d2576127d2612530565b500390565b828152604060208201526000611ffd60408301846123c856fea2646970667358221220a3cfabd0e6d77e0420e1306c7ddac94a164098d71089591c577011837c0f7e8364736f6c634300080e00331420b0f58270d87965358ed9ad1a48918ba86101e98f42f25e29f59e586918cdfddb143be89620896ce3745ceb136fd672c98dea954adb8724dcfae9dc08796d8ccbc2c0141407af8e533e0caeae8e08f837db7ce5bf08ab977e0c83af5622a4",
  "immutableReferences": {},
  "source": "// SPDX-License-Identifier: MIT\r\npragma solidity ^0.8.4;\r\npragma abicoder v2;\r\n\r\nimport \"@openzeppelin/contracts/token/ERC1155/ERC1155.sol\";\r\nimport \"@openzeppelin/contracts/access/AccessControl.sol\";\r\nimport \"@openzeppelin/contracts/security/Pausable.sol\";\r\nimport \"@openzeppelin/contracts/token/ERC1155/extensions/ERC1155Supply.sol\";\r\nimport \"@openzeppelin/contracts/token/ERC1155/ERC1155.sol\";\r\nimport '@openzeppelin/contracts/utils/Counters.sol';\r\nimport '../utils/Constants.sol';\r\n\r\nimport '../royalties/HeirloomRoyaltiesV1.sol';\r\nimport '../libs/LibPart.sol';\r\nimport '../libs/LibHeirloomRoyaltiesV1.sol';\r\n\r\n\r\ncontract HeirloomLicenseNFT is ERC1155,\r\nAccessControl, \r\nERC1155Supply,\r\nHeirloomRoyaltiesV1,\r\nPausable,\r\nConstants {\r\n    \r\n    using Counters for Counters.Counter;\r\n    Counters.Counter private _tokenIds; \r\n    address private _marketOperator;\r\n    event MarketOperatorChanged(address indexed newMarketOperator);\r\n\r\n    constructor(string memory baseTokenUri, address operator, address admin) ERC1155(baseTokenUri) {\r\n        _grantRole(MINTER_ROLE, operator);\r\n        _grantRole(OPERATOR_ROLE, operator);\r\n        _grantRole(ADMIN_ROLE, admin);\r\n        _grantRole(PAUSER_ROLE, admin);\r\n        _setRoleAdmin(PAUSER_ROLE, ADMIN_ROLE);\r\n        _setRoleAdmin(OPERATOR_ROLE, ADMIN_ROLE);\r\n        _setRoleAdmin(MINTER_ROLE, ADMIN_ROLE);\r\n        _setRoleAdmin(ADMIN_ROLE, ADMIN_ROLE);\r\n        _marketOperator = operator;\r\n    }\r\n\r\n\r\n    function setURI(string memory newuri) public onlyRole(ADMIN_ROLE) {\r\n        _setURI(newuri);\r\n    }\r\n\r\n    function pause() public onlyRole(PAUSER_ROLE) {\r\n        _pause();\r\n    }\r\n\r\n    function unpause() public onlyRole(PAUSER_ROLE) {\r\n        _unpause();\r\n    }\r\n\r\n    /**\r\n        @notice creates a saas license\r\n        @param licenseProvider creator of the license subscription\r\n        @param maxSupply the max supply of the license \r\n    */\r\n    function createLicense(address licenseProvider, address representative, uint256 maxSupply, uint96 rbp) public\r\n    onlyRole(MINTER_ROLE) whenNotPaused returns (uint256){\r\n        _tokenIds.increment();\r\n        uint256 tokenId = _tokenIds.current();\r\n        _setRoyalties(tokenId, licenseProvider, representative, rbp);\r\n        _setApprovalForAll(licenseProvider, _marketOperator, true);\r\n        _mint(licenseProvider, tokenId, maxSupply, \"\");\r\n        return tokenId;\r\n    }\r\n\r\n    function revokeApprovalForAll(address account) external onlyRole(OPERATOR_ROLE) {\r\n        _setApprovalForAll(account, _marketOperator, false);\r\n    }\r\n\r\n    function getMarketOperator() external view onlyRole(ADMIN_ROLE) returns (address) {\r\n        return _marketOperator;\r\n    }\r\n\r\n    function _beforeTokenTransfer(address operator, address from, address to, uint256[] memory ids, uint256[] memory amounts, bytes memory data)\r\n        internal\r\n        override(ERC1155, ERC1155Supply)\r\n    {\r\n        super._beforeTokenTransfer(operator, from, to, ids, amounts, data);\r\n    }\r\n\r\n    function supportsInterface(bytes4 interfaceId)\r\n        public\r\n        view\r\n        override(ERC1155, AccessControl)\r\n        returns (bool)\r\n    {\r\n        if(interfaceId == LibHeirloomRoyaltiesV1._INTERFACE_ID_ROYALTIES){\r\n            return true;\r\n        }\r\n        return super.supportsInterface(interfaceId);\r\n    }\r\n\r\n    function _setRoyalties(uint256 tokenId, address licenseProvider, address representative, uint96 rbp) private {\r\n        LibPart.Part[] memory _royalties = new LibPart.Part[](1);\r\n        _royalties[0].value = rbp;\r\n        _royalties[0].licenseProvider = payable(licenseProvider);\r\n        _royalties[0].representative = payable(representative);\r\n        _saveRoyalties(tokenId, _royalties);\r\n    }\r\n    \r\n}\r\n",
  "sourcePath": "C:\\Users\\DELL\\Documents\\heirloomdao\\contracts\\contracts\\erc1155\\HeirloomLicenseNFT.sol",
  "compiler": {
    "name": "solc",
    "version": "0.8.14+commit.80d49f37.Emscripten.clang"
  },
  "schemaVersion": "3.4.7",
  "updatedAt": "2022-06-07T10:46:51.870Z",
  "networkType": "ethereum",
  "devdoc": {
    "kind": "dev",
    "methods": {
      "balanceOf(address,uint256)": {
        "details": "See {IERC1155-balanceOf}. Requirements: - `account` cannot be the zero address."
      },
      "balanceOfBatch(address[],uint256[])": {
        "details": "See {IERC1155-balanceOfBatch}. Requirements: - `accounts` and `ids` must have the same length."
      },
      "createLicense(address,address,uint256,uint96)": {
        "params": {
          "licenseProvider": "creator of the license subscription",
          "maxSupply": "the max supply of the license "
        }
      },
      "exists(uint256)": {
        "details": "Indicates whether any token exist with a given id, or not."
      },
      "getRoleAdmin(bytes32)": {
        "details": "Returns the admin role that controls `role`. See {grantRole} and {revokeRole}. To change a role's admin, use {_setRoleAdmin}."
      },
      "grantRole(bytes32,address)": {
        "details": "Grants `role` to `account`. If `account` had not been already granted `role`, emits a {RoleGranted} event. Requirements: - the caller must have ``role``'s admin role."
      },
      "hasRole(bytes32,address)": {
        "details": "Returns `true` if `account` has been granted `role`."
      },
      "isApprovedForAll(address,address)": {
        "details": "See {IERC1155-isApprovedForAll}."
      },
      "paused()": {
        "details": "Returns true if the contract is paused, and false otherwise."
      },
      "renounceRole(bytes32,address)": {
        "details": "Revokes `role` from the calling account. Roles are often managed via {grantRole} and {revokeRole}: this function's purpose is to provide a mechanism for accounts to lose their privileges if they are compromised (such as when a trusted device is misplaced). If the calling account had been revoked `role`, emits a {RoleRevoked} event. Requirements: - the caller must be `account`."
      },
      "revokeRole(bytes32,address)": {
        "details": "Revokes `role` from `account`. If `account` had been granted `role`, emits a {RoleRevoked} event. Requirements: - the caller must have ``role``'s admin role."
      },
      "safeBatchTransferFrom(address,address,uint256[],uint256[],bytes)": {
        "details": "See {IERC1155-safeBatchTransferFrom}."
      },
      "safeTransferFrom(address,address,uint256,uint256,bytes)": {
        "details": "See {IERC1155-safeTransferFrom}."
      },
      "setApprovalForAll(address,bool)": {
        "details": "See {IERC1155-setApprovalForAll}."
      },
      "totalSupply(uint256)": {
        "details": "Total amount of tokens in with a given id."
      },
      "uri(uint256)": {
        "details": "See {IERC1155MetadataURI-uri}. This implementation returns the same URI for *all* token types. It relies on the token type ID substitution mechanism https://eips.ethereum.org/EIPS/eip-1155#metadata[defined in the EIP]. Clients calling this function must replace the `\\{id\\}` substring with the actual token type ID."
      }
    },
    "version": 1
  },
  "userdoc": {
    "kind": "user",
    "methods": {
      "createLicense(address,address,uint256,uint96)": {
        "notice": "creates a saas license"
      }
    },
    "version": 1
  }
}