{
  "contractName": "HeirloomMarketplace",
  "abi": [
    {
      "anonymous": false,
      "inputs": [
        {
          "indexed": false,
          "internalType": "address",
          "name": "previousAdmin",
          "type": "address"
        },
        {
          "indexed": false,
          "internalType": "address",
          "name": "newAdmin",
          "type": "address"
        }
      ],
      "name": "AdminChanged",
      "type": "event"
    },
    {
      "anonymous": false,
      "inputs": [
        {
          "indexed": true,
          "internalType": "address",
          "name": "beacon",
          "type": "address"
        }
      ],
      "name": "BeaconUpgraded",
      "type": "event"
    },
    {
      "anonymous": false,
      "inputs": [
        {
          "indexed": true,
          "internalType": "uint256",
          "name": "saleId",
          "type": "uint256"
        },
        {
          "indexed": true,
          "internalType": "uint256",
          "name": "tokenId",
          "type": "uint256"
        },
        {
          "indexed": false,
          "internalType": "address",
          "name": "buyer",
          "type": "address"
        },
        {
          "indexed": false,
          "internalType": "uint256",
          "name": "amount",
          "type": "uint256"
        }
      ],
      "name": "BoughtFromSale",
      "type": "event"
    },
    {
      "anonymous": false,
      "inputs": [
        {
          "indexed": true,
          "internalType": "uint96",
          "name": "Commission",
          "type": "uint96"
        }
      ],
      "name": "CommissionUpdated",
      "type": "event"
    },
    {
      "anonymous": false,
      "inputs": [
        {
          "indexed": true,
          "internalType": "address",
          "name": "newEscrow",
          "type": "address"
        }
      ],
      "name": "EscrowUpdated",
      "type": "event"
    },
    {
      "anonymous": false,
      "inputs": [
        {
          "indexed": false,
          "internalType": "uint8",
          "name": "version",
          "type": "uint8"
        }
      ],
      "name": "Initialized",
      "type": "event"
    },
    {
      "anonymous": false,
      "inputs": [
        {
          "indexed": true,
          "internalType": "uint256",
          "name": "licenseId",
          "type": "uint256"
        },
        {
          "indexed": true,
          "internalType": "uint256",
          "name": "tokenId",
          "type": "uint256"
        },
        {
          "indexed": false,
          "internalType": "address",
          "name": "seller",
          "type": "address"
        },
        {
          "indexed": false,
          "internalType": "uint256",
          "name": "price",
          "type": "uint256"
        },
        {
          "indexed": true,
          "internalType": "uint256",
          "name": "listedAmount",
          "type": "uint256"
        }
      ],
      "name": "LicenseListed",
      "type": "event"
    },
    {
      "anonymous": false,
      "inputs": [
        {
          "indexed": false,
          "internalType": "uint256",
          "name": "licenseId",
          "type": "uint256"
        },
        {
          "indexed": true,
          "internalType": "uint256",
          "name": "tokenId",
          "type": "uint256"
        },
        {
          "indexed": true,
          "internalType": "address",
          "name": "seller",
          "type": "address"
        },
        {
          "indexed": true,
          "internalType": "address",
          "name": "buyer",
          "type": "address"
        },
        {
          "indexed": false,
          "internalType": "uint256",
          "name": "amount",
          "type": "uint256"
        },
        {
          "indexed": false,
          "internalType": "uint256",
          "name": "price",
          "type": "uint256"
        }
      ],
      "name": "LicenseSold",
      "type": "event"
    },
    {
      "anonymous": false,
      "inputs": [
        {
          "indexed": true,
          "internalType": "uint256",
          "name": "licenseId",
          "type": "uint256"
        },
        {
          "indexed": true,
          "internalType": "uint256",
          "name": "tokenId",
          "type": "uint256"
        },
        {
          "indexed": true,
          "internalType": "address",
          "name": "seller",
          "type": "address"
        },
        {
          "indexed": false,
          "internalType": "enum Types.ListedStatus",
          "name": "status",
          "type": "uint8"
        }
      ],
      "name": "ListedLicenseClosed",
      "type": "event"
    },
    {
      "anonymous": false,
      "inputs": [
        {
          "indexed": true,
          "internalType": "uint256",
          "name": "listingFee",
          "type": "uint256"
        }
      ],
      "name": "ListingFeeUpdated",
      "type": "event"
    },
    {
      "anonymous": false,
      "inputs": [
        {
          "indexed": false,
          "internalType": "address",
          "name": "account",
          "type": "address"
        }
      ],
      "name": "Paused",
      "type": "event"
    },
    {
      "anonymous": false,
      "inputs": [
        {
          "indexed": true,
          "internalType": "bytes32",
          "name": "role",
          "type": "bytes32"
        },
        {
          "indexed": true,
          "internalType": "bytes32",
          "name": "previousAdminRole",
          "type": "bytes32"
        },
        {
          "indexed": true,
          "internalType": "bytes32",
          "name": "newAdminRole",
          "type": "bytes32"
        }
      ],
      "name": "RoleAdminChanged",
      "type": "event"
    },
    {
      "anonymous": false,
      "inputs": [
        {
          "indexed": true,
          "internalType": "bytes32",
          "name": "role",
          "type": "bytes32"
        },
        {
          "indexed": true,
          "internalType": "address",
          "name": "account",
          "type": "address"
        },
        {
          "indexed": true,
          "internalType": "address",
          "name": "sender",
          "type": "address"
        }
      ],
      "name": "RoleGranted",
      "type": "event"
    },
    {
      "anonymous": false,
      "inputs": [
        {
          "indexed": true,
          "internalType": "bytes32",
          "name": "role",
          "type": "bytes32"
        },
        {
          "indexed": true,
          "internalType": "address",
          "name": "account",
          "type": "address"
        },
        {
          "indexed": true,
          "internalType": "address",
          "name": "sender",
          "type": "address"
        }
      ],
      "name": "RoleRevoked",
      "type": "event"
    },
    {
      "anonymous": false,
      "inputs": [
        {
          "indexed": true,
          "internalType": "uint256",
          "name": "saleId",
          "type": "uint256"
        }
      ],
      "name": "SaleActivated",
      "type": "event"
    },
    {
      "anonymous": false,
      "inputs": [
        {
          "indexed": true,
          "internalType": "uint256",
          "name": "saleId",
          "type": "uint256"
        }
      ],
      "name": "SaleClosed",
      "type": "event"
    },
    {
      "anonymous": false,
      "inputs": [
        {
          "indexed": true,
          "internalType": "address",
          "name": "representative",
          "type": "address"
        },
        {
          "indexed": true,
          "internalType": "uint256",
          "name": "saleId",
          "type": "uint256"
        },
        {
          "indexed": true,
          "internalType": "uint256",
          "name": "tokenId",
          "type": "uint256"
        }
      ],
      "name": "SaleCreated",
      "type": "event"
    },
    {
      "anonymous": false,
      "inputs": [
        {
          "indexed": true,
          "internalType": "address",
          "name": "newToken",
          "type": "address"
        }
      ],
      "name": "TokenUpdated",
      "type": "event"
    },
    {
      "anonymous": false,
      "inputs": [
        {
          "indexed": true,
          "internalType": "address",
          "name": "newTreasury",
          "type": "address"
        }
      ],
      "name": "TreasuryUpdated",
      "type": "event"
    },
    {
      "anonymous": false,
      "inputs": [
        {
          "indexed": false,
          "internalType": "address",
          "name": "account",
          "type": "address"
        }
      ],
      "name": "Unpaused",
      "type": "event"
    },
    {
      "anonymous": false,
      "inputs": [
        {
          "indexed": true,
          "internalType": "address",
          "name": "implementation",
          "type": "address"
        }
      ],
      "name": "Upgraded",
      "type": "event"
    },
    {
      "anonymous": false,
      "inputs": [
        {
          "indexed": true,
          "internalType": "address",
          "name": "user",
          "type": "address"
        }
      ],
      "name": "UserVerified",
      "type": "event"
    },
    {
      "inputs": [],
      "name": "COMMISSION_BP",
      "outputs": [
        {
          "internalType": "uint96",
          "name": "",
          "type": "uint96"
        }
      ],
      "stateMutability": "view",
      "type": "function",
      "constant": true
    },
    {
      "inputs": [],
      "name": "DEFAULT_ADMIN_ROLE",
      "outputs": [
        {
          "internalType": "bytes32",
          "name": "",
          "type": "bytes32"
        }
      ],
      "stateMutability": "view",
      "type": "function",
      "constant": true
    },
    {
      "inputs": [],
      "name": "LISTING_FEE",
      "outputs": [
        {
          "internalType": "uint256",
          "name": "",
          "type": "uint256"
        }
      ],
      "stateMutability": "view",
      "type": "function",
      "constant": true
    },
    {
      "inputs": [
        {
          "internalType": "address",
          "name": "admin",
          "type": "address"
        },
        {
          "internalType": "address",
          "name": "verifier",
          "type": "address"
        },
        {
          "internalType": "uint256",
          "name": "listingFee",
          "type": "uint256"
        },
        {
          "internalType": "address",
          "name": "hilo",
          "type": "address"
        },
        {
          "internalType": "address",
          "name": "treasury",
          "type": "address"
        },
        {
          "internalType": "address",
          "name": "escrowSales",
          "type": "address"
        },
        {
          "internalType": "address",
          "name": "escrowListed",
          "type": "address"
        },
        {
          "internalType": "uint96",
          "name": "commissionBp",
          "type": "uint96"
        }
      ],
      "name": "__HeirloomMarketplace_init",
      "outputs": [],
      "stateMutability": "nonpayable",
      "type": "function"
    },
    {
      "inputs": [
        {
          "internalType": "uint256",
          "name": "saleId",
          "type": "uint256"
        }
      ],
      "name": "activateFutureSale",
      "outputs": [],
      "stateMutability": "nonpayable",
      "type": "function"
    },
    {
      "inputs": [
        {
          "internalType": "uint256",
          "name": "saleId",
          "type": "uint256"
        }
      ],
      "name": "closeSaleOnDeadline",
      "outputs": [],
      "stateMutability": "nonpayable",
      "type": "function"
    },
    {
      "inputs": [],
      "name": "fetchActiveSales",
      "outputs": [
        {
          "components": [
            {
              "internalType": "uint256",
              "name": "saleId",
              "type": "uint256"
            },
            {
              "internalType": "address",
              "name": "licenseProvider",
              "type": "address"
            },
            {
              "internalType": "address",
              "name": "representative",
              "type": "address"
            },
            {
              "internalType": "uint256",
              "name": "tokenId",
              "type": "uint256"
            },
            {
              "internalType": "address",
              "name": "nftContract",
              "type": "address"
            },
            {
              "internalType": "address",
              "name": "refferer",
              "type": "address"
            },
            {
              "internalType": "uint256",
              "name": "soldLicenses",
              "type": "uint256"
            },
            {
              "internalType": "uint256",
              "name": "maxSupply",
              "type": "uint256"
            },
            {
              "internalType": "uint256",
              "name": "start",
              "type": "uint256"
            },
            {
              "internalType": "uint256",
              "name": "end",
              "type": "uint256"
            },
            {
              "internalType": "uint256",
              "name": "price",
              "type": "uint256"
            },
            {
              "internalType": "bool",
              "name": "active",
              "type": "bool"
            },
            {
              "internalType": "bool",
              "name": "isFuture",
              "type": "bool"
            }
          ],
          "internalType": "struct Types.SaleItem[]",
          "name": "",
          "type": "tuple[]"
        }
      ],
      "stateMutability": "view",
      "type": "function",
      "constant": true
    },
    {
      "inputs": [
        {
          "internalType": "uint256",
          "name": "licenseId",
          "type": "uint256"
        }
      ],
      "name": "fetchLicense",
      "outputs": [
        {
          "components": [
            {
              "internalType": "uint256",
              "name": "tokenId",
              "type": "uint256"
            },
            {
              "internalType": "uint256",
              "name": "licenseId",
              "type": "uint256"
            },
            {
              "internalType": "address",
              "name": "nftContract",
              "type": "address"
            },
            {
              "internalType": "address",
              "name": "seller",
              "type": "address"
            },
            {
              "internalType": "uint256",
              "name": "price",
              "type": "uint256"
            },
            {
              "internalType": "uint256",
              "name": "listedAmount",
              "type": "uint256"
            },
            {
              "internalType": "uint256",
              "name": "sold",
              "type": "uint256"
            },
            {
              "internalType": "enum Types.ListedStatus",
              "name": "status",
              "type": "uint8"
            }
          ],
          "internalType": "struct Types.LicenseItem",
          "name": "",
          "type": "tuple"
        }
      ],
      "stateMutability": "view",
      "type": "function",
      "constant": true
    },
    {
      "inputs": [],
      "name": "fetchListedLicenses",
      "outputs": [
        {
          "components": [
            {
              "internalType": "uint256",
              "name": "tokenId",
              "type": "uint256"
            },
            {
              "internalType": "uint256",
              "name": "licenseId",
              "type": "uint256"
            },
            {
              "internalType": "address",
              "name": "nftContract",
              "type": "address"
            },
            {
              "internalType": "address",
              "name": "seller",
              "type": "address"
            },
            {
              "internalType": "uint256",
              "name": "price",
              "type": "uint256"
            },
            {
              "internalType": "uint256",
              "name": "listedAmount",
              "type": "uint256"
            },
            {
              "internalType": "uint256",
              "name": "sold",
              "type": "uint256"
            },
            {
              "internalType": "enum Types.ListedStatus",
              "name": "status",
              "type": "uint8"
            }
          ],
          "internalType": "struct Types.LicenseItem[]",
          "name": "",
          "type": "tuple[]"
        }
      ],
      "stateMutability": "view",
      "type": "function",
      "constant": true
    },
    {
      "inputs": [
        {
          "internalType": "uint256",
          "name": "saleId",
          "type": "uint256"
        }
      ],
      "name": "fetchSale",
      "outputs": [
        {
          "components": [
            {
              "internalType": "uint256",
              "name": "saleId",
              "type": "uint256"
            },
            {
              "internalType": "address",
              "name": "licenseProvider",
              "type": "address"
            },
            {
              "internalType": "address",
              "name": "representative",
              "type": "address"
            },
            {
              "internalType": "uint256",
              "name": "tokenId",
              "type": "uint256"
            },
            {
              "internalType": "address",
              "name": "nftContract",
              "type": "address"
            },
            {
              "internalType": "address",
              "name": "refferer",
              "type": "address"
            },
            {
              "internalType": "uint256",
              "name": "soldLicenses",
              "type": "uint256"
            },
            {
              "internalType": "uint256",
              "name": "maxSupply",
              "type": "uint256"
            },
            {
              "internalType": "uint256",
              "name": "start",
              "type": "uint256"
            },
            {
              "internalType": "uint256",
              "name": "end",
              "type": "uint256"
            },
            {
              "internalType": "uint256",
              "name": "price",
              "type": "uint256"
            },
            {
              "internalType": "bool",
              "name": "active",
              "type": "bool"
            },
            {
              "internalType": "bool",
              "name": "isFuture",
              "type": "bool"
            }
          ],
          "internalType": "struct Types.SaleItem",
          "name": "",
          "type": "tuple"
        }
      ],
      "stateMutability": "view",
      "type": "function",
      "constant": true
    },
    {
      "inputs": [
        {
          "internalType": "uint256",
          "name": "saleId",
          "type": "uint256"
        }
      ],
      "name": "forceCloseSale",
      "outputs": [],
      "stateMutability": "nonpayable",
      "type": "function"
    },
    {
      "inputs": [
        {
          "internalType": "bytes32",
          "name": "role",
          "type": "bytes32"
        }
      ],
      "name": "getRoleAdmin",
      "outputs": [
        {
          "internalType": "bytes32",
          "name": "",
          "type": "bytes32"
        }
      ],
      "stateMutability": "view",
      "type": "function",
      "constant": true
    },
    {
      "inputs": [
        {
          "internalType": "bytes32",
          "name": "role",
          "type": "bytes32"
        },
        {
          "internalType": "address",
          "name": "account",
          "type": "address"
        }
      ],
      "name": "grantRole",
      "outputs": [],
      "stateMutability": "nonpayable",
      "type": "function"
    },
    {
      "inputs": [
        {
          "internalType": "bytes32",
          "name": "role",
          "type": "bytes32"
        },
        {
          "internalType": "address",
          "name": "account",
          "type": "address"
        }
      ],
      "name": "hasRole",
      "outputs": [
        {
          "internalType": "bool",
          "name": "",
          "type": "bool"
        }
      ],
      "stateMutability": "view",
      "type": "function",
      "constant": true
    },
    {
      "inputs": [
        {
          "internalType": "address",
          "name": "user",
          "type": "address"
        }
      ],
      "name": "isUserVerified",
      "outputs": [
        {
          "internalType": "bool",
          "name": "",
          "type": "bool"
        }
      ],
      "stateMutability": "view",
      "type": "function",
      "constant": true
    },
    {
      "inputs": [],
      "name": "pause",
      "outputs": [],
      "stateMutability": "nonpayable",
      "type": "function"
    },
    {
      "inputs": [],
      "name": "paused",
      "outputs": [
        {
          "internalType": "bool",
          "name": "",
          "type": "bool"
        }
      ],
      "stateMutability": "view",
      "type": "function",
      "constant": true
    },
    {
      "inputs": [],
      "name": "proxiableUUID",
      "outputs": [
        {
          "internalType": "bytes32",
          "name": "",
          "type": "bytes32"
        }
      ],
      "stateMutability": "view",
      "type": "function",
      "constant": true
    },
    {
      "inputs": [
        {
          "internalType": "bytes32",
          "name": "role",
          "type": "bytes32"
        },
        {
          "internalType": "address",
          "name": "account",
          "type": "address"
        }
      ],
      "name": "renounceRole",
      "outputs": [],
      "stateMutability": "nonpayable",
      "type": "function"
    },
    {
      "inputs": [
        {
          "internalType": "bytes32",
          "name": "role",
          "type": "bytes32"
        },
        {
          "internalType": "address",
          "name": "account",
          "type": "address"
        }
      ],
      "name": "revokeRole",
      "outputs": [],
      "stateMutability": "nonpayable",
      "type": "function"
    },
    {
      "inputs": [
        {
          "internalType": "uint96",
          "name": "newBP",
          "type": "uint96"
        }
      ],
      "name": "setCommissionRBP",
      "outputs": [],
      "stateMutability": "nonpayable",
      "type": "function"
    },
    {
      "inputs": [
        {
          "internalType": "uint256",
          "name": "newListingFee",
          "type": "uint256"
        }
      ],
      "name": "setListingFee",
      "outputs": [],
      "stateMutability": "nonpayable",
      "type": "function"
    },
    {
      "inputs": [
        {
          "internalType": "bytes4",
          "name": "interfaceId",
          "type": "bytes4"
        }
      ],
      "name": "supportsInterface",
      "outputs": [
        {
          "internalType": "bool",
          "name": "",
          "type": "bool"
        }
      ],
      "stateMutability": "view",
      "type": "function",
      "constant": true
    },
    {
      "inputs": [],
      "name": "unpause",
      "outputs": [],
      "stateMutability": "nonpayable",
      "type": "function"
    },
    {
      "inputs": [
        {
          "internalType": "address",
          "name": "newEscrow",
          "type": "address"
        }
      ],
      "name": "updateEscrowListed",
      "outputs": [
        {
          "internalType": "address",
          "name": "",
          "type": "address"
        }
      ],
      "stateMutability": "nonpayable",
      "type": "function"
    },
    {
      "inputs": [
        {
          "internalType": "address",
          "name": "newEscrow",
          "type": "address"
        }
      ],
      "name": "updateEscrowSales",
      "outputs": [
        {
          "internalType": "address",
          "name": "",
          "type": "address"
        }
      ],
      "stateMutability": "nonpayable",
      "type": "function"
    },
    {
      "inputs": [
        {
          "internalType": "address",
          "name": "newTreasury",
          "type": "address"
        }
      ],
      "name": "updateTreasury",
      "outputs": [
        {
          "internalType": "address",
          "name": "",
          "type": "address"
        }
      ],
      "stateMutability": "nonpayable",
      "type": "function"
    },
    {
      "inputs": [
        {
          "internalType": "address",
          "name": "newImplementation",
          "type": "address"
        }
      ],
      "name": "upgradeTo",
      "outputs": [],
      "stateMutability": "nonpayable",
      "type": "function"
    },
    {
      "inputs": [
        {
          "internalType": "address",
          "name": "newImplementation",
          "type": "address"
        },
        {
          "internalType": "bytes",
          "name": "data",
          "type": "bytes"
        }
      ],
      "name": "upgradeToAndCall",
      "outputs": [],
      "stateMutability": "payable",
      "type": "function",
      "payable": true
    },
    {
      "inputs": [
        {
          "internalType": "address",
          "name": "user",
          "type": "address"
        }
      ],
      "name": "verifyUser",
      "outputs": [],
      "stateMutability": "nonpayable",
      "type": "function"
    },
    {
      "inputs": [
        {
          "internalType": "address",
          "name": "nftContract",
          "type": "address"
        },
        {
          "internalType": "uint256",
          "name": "maxSupply",
          "type": "uint256"
        },
        {
          "internalType": "address",
          "name": "licenseProvider",
          "type": "address"
        },
        {
          "internalType": "address",
          "name": "refferer",
          "type": "address"
        },
        {
          "internalType": "uint256",
          "name": "start",
          "type": "uint256"
        },
        {
          "internalType": "uint256",
          "name": "end",
          "type": "uint256"
        },
        {
          "internalType": "uint256",
          "name": "price",
          "type": "uint256"
        },
        {
          "internalType": "uint96",
          "name": "rbp",
          "type": "uint96"
        }
      ],
      "name": "createSale",
      "outputs": [],
      "stateMutability": "nonpayable",
      "type": "function"
    },
    {
      "inputs": [
        {
          "internalType": "address",
          "name": "nftContract",
          "type": "address"
        },
        {
          "internalType": "uint256",
          "name": "tokenId",
          "type": "uint256"
        },
        {
          "internalType": "uint256",
          "name": "price",
          "type": "uint256"
        },
        {
          "internalType": "uint256",
          "name": "amount",
          "type": "uint256"
        }
      ],
      "name": "listLicense",
      "outputs": [],
      "stateMutability": "payable",
      "type": "function",
      "payable": true
    },
    {
      "inputs": [
        {
          "internalType": "uint256",
          "name": "saleId",
          "type": "uint256"
        },
        {
          "internalType": "uint256",
          "name": "amount",
          "type": "uint256"
        }
      ],
      "name": "participate",
      "outputs": [],
      "stateMutability": "payable",
      "type": "function",
      "payable": true
    },
    {
      "inputs": [
        {
          "internalType": "uint256",
          "name": "licenseId",
          "type": "uint256"
        },
        {
          "internalType": "uint256",
          "name": "amount",
          "type": "uint256"
        }
      ],
      "name": "purchaseLicense",
      "outputs": [],
      "stateMutability": "payable",
      "type": "function",
      "payable": true
    }
  ],
  "bytecode": "0x60a06040523060805234801561001457600080fd5b506080516147b661004c600039600081816116030152818161168801528181611827015281816118ac015261199201526147b66000f3fe6080604052600436106101f95760003560e01c80636e1c81811161010d578063ace417e0116100a0578063c75a3da91161006f578063c75a3da9146105ee578063d547741f1461061b578063d663da031461063b578063e5c542bf1461065b578063ecb23be61461066e57600080fd5b8063ace417e01461052e578063b4f3514814610567578063c5401d6f1461059f578063c703a6cd146105cc57600080fd5b80637f51bb1f116100dc5780637f51bb1f1461049e5780638456cb59146104be57806391d14854146104d3578063a217fddf1461051957600080fd5b80636e1c81811461041c57806372ff91b31461043e5780637802bd431461045e5780637e3822571461047e57600080fd5b806334afd755116101905780634d8131201161015f5780634d813120146103845780634f1ef286146103a457806352d1902d146103b75780635c975abb146103cc5780635d79ec9e146103e457600080fd5b806334afd7551461030f57806336568abe1461032f5780633659cfe61461034f5780633f4ba83a1461036f57600080fd5b8063131dbd09116101cc578063131dbd091461027b578063248a9ca31461029b5780632b86ae38146102d95780632f2ff15d146102ef57600080fd5b8063018e0838146101fe57806301ffc9a71461022057806310e52a3a14610255578063129874aa14610268575b600080fd5b34801561020a57600080fd5b5061021e610219366004613ec1565b61068e565b005b34801561022c57600080fd5b5061024061023b366004613eda565b61080b565b60405190151581526020015b60405180910390f35b61021e610263366004613f04565b610842565b61021e610276366004613f04565b610ed0565b34801561028757600080fd5b5061021e610296366004613ec1565b611400565b3480156102a757600080fd5b506102cb6102b6366004613ec1565b60009081526072602052604090206001015490565b60405190815260200161024c565b3480156102e557600080fd5b506102cb60005481565b3480156102fb57600080fd5b5061021e61030a366004613f3b565b611492565b34801561031b57600080fd5b5061021e61032a366004613f80565b6114bc565b34801561033b57600080fd5b5061021e61034a366004613f3b565b61156d565b34801561035b57600080fd5b5061021e61036a366004613f9d565b6115f9565b34801561037b57600080fd5b5061021e611774565b34801561039057600080fd5b5061021e61039f366004613f9d565b6117a6565b61021e6103b236600461402a565b61181d565b3480156103c357600080fd5b506102cb611985565b3480156103d857600080fd5b5060a45460ff16610240565b3480156103f057600080fd5b506104046103ff366004613f9d565b611a4a565b6040516001600160a01b03909116815260200161024c565b34801561042857600080fd5b50610431611afb565b60405161024c91906141a1565b34801561044a57600080fd5b5061021e610459366004613ec1565b611cd2565b34801561046a57600080fd5b5061021e610479366004613ec1565b611e2a565b34801561048a57600080fd5b5061021e6104993660046141f0565b61205e565b3480156104aa57600080fd5b506104046104b9366004613f9d565b612239565b3480156104ca57600080fd5b5061021e6122ea565b3480156104df57600080fd5b506102406104ee366004613f3b565b60009182526072602090815260408084206001600160a01b0393909316845291905290205460ff1690565b34801561052557600080fd5b506102cb600081565b34801561053a57600080fd5b50610240610549366004613f9d565b6001600160a01b03166000908152600a602052604090205460ff1690565b34801561057357600080fd5b50600154610587906001600160601b031681565b6040516001600160601b03909116815260200161024c565b3480156105ab57600080fd5b506105bf6105ba366004613ec1565b61231c565b60405161024c9190614290565b3480156105d857600080fd5b506105e16123e4565b60405161024c9190614338565b3480156105fa57600080fd5b5061060e610609366004613ec1565b612597565b60405161024c919061437b565b34801561062757600080fd5b5061021e610636366004613f3b565b612646565b34801561064757600080fd5b5061021e61065636600461438a565b61266b565b61021e6106693660046143fe565b612aff565b34801561067a57600080fd5b50610404610689366004613f9d565b61301e565b6000818152600b602081905260409091200154819060ff6101009091041615156001146107145760405162461bcd60e51b815260206004820152602960248201527f486569726c6f6f6d204d61726b6574706c6163653a206d757374206265206675604482015268747572652073616c6560b81b60648201526084015b60405180910390fd5b6000818152600b602052604090206008015442101561079b5760405162461bcd60e51b815260206004820152603060248201527f486569726c6f6f6d204d61726b6574706c6163653a207374617274206461746560448201527f206e6f7420726561636865642079657400000000000000000000000000000000606482015260840161070b565b60008051602061473a8339815191526107b3816130cf565b6000838152600b6020819052604090912001805461ffff191660011790556107db60096130d9565b60405183907f702ce4efe1de6302f5db4be4e00221938bf7d564452733ed1017feb52e979dd790600090a2505050565b60006001600160e01b03198216637965db0b60e01b148061083c57506301ffc9a760e01b6001600160e01b03198316145b92915050565b6000828152600c602052604090206004015461085e908261444f565b803410156108c55760405162461bcd60e51b815260206004820152602e60248201527f486569726c6f6f6d204d61726b6574706c6163653a20496e636f72726563742060448201526d1c185e5b595b9d08185b5bdd5b9d60921b606482015260840161070b565b60a45460ff161561090b5760405162461bcd60e51b815260206004820152601060248201526f14185d5cd8589b194e881c185d5cd95960821b604482015260640161070b565b6000838152600c602052604081206007015460ff1660018111156109315761093161429f565b1461098d5760405162461bcd60e51b815260206004820152602660248201527f486569726c6f6f6d204d61726b6574706c6163653a206974656d20697320756e6044820152651b1a5cdd195960d21b606482015260840161070b565b6000838152600c6020526040902060058101546006909101546109b190849061446e565b1115610a255760405162461bcd60e51b815260206004820152603b60248201527f486569726c6f6f6d204d61726b6574706c6163653a20616d6f756e742063616e60448201527f6e6f7420737570657263656465206c697374656420616d6f756e740000000000606482015260840161070b565b6000838152600c60209081526040808320815161010081018352815481526001808301549482019490945260028201546001600160a01b03908116938201939093526003820154909216606083015260048101546080830152600581015460a0830152600681015460c083015260078101549192909160e084019160ff90911690811115610ab557610ab561429f565b6001811115610ac657610ac661429f565b90525060408082015182519151632e48829d60e21b815260048101929092529192506000916001600160a01b03169063b9220a7490602401600060405180830381865afa158015610b1b573d6000803e3d6000fd5b505050506040513d6000823e601f3d908101601f19168201604052610b439190810190614486565b90506000848360800151610b57919061444f565b905060006127108284600081518110610b7257610b72614575565b6020026020010151604001516001600160601b0316610b91919061444f565b610b9b919061458b565b6003549091506001600160a01b03166333bb7f91610bb983856145ad565b60608701516040516001600160e01b031960e085901b1681526001600160a01b0390911660048201526024016000604051808303818588803b158015610bfe57600080fd5b505af1158015610c12573d6000803e3d6000fd5b505060025486516001600160a01b0390911693506333bb7f9192508491508690600090610c4157610c41614575565b6020908102919091010151516040516001600160e01b031960e085901b1681526001600160a01b0390911660048201526024016000604051808303818588803b158015610c8d57600080fd5b505af1158015610ca1573d6000803e3d6000fd5b505050505083604001516001600160a01b031663f242432a8560600151610cc53390565b875160405160e085901b6001600160e01b03191681526001600160a01b03938416600482015292909116602483015260448201526064810189905260a06084820152600060a482015260c401600060405180830381600087803b158015610d2b57600080fd5b505af1158015610d3f573d6000803e3d6000fd5b50505050610d4a3390565b6001600160a01b031684606001516001600160a01b031685600001517f310fa35a97953eb1ad1a08f772c9bacdcc6d6eccc4c4340fa099e9d563f1b80a8a8a8960800151604051610dae939291909283526020830191909152604082015260600190565b60405180910390a4858460c001818151610dc8919061446e565b90525060a084015160c085015103610ec757610de8600880546001019055565b6040848101516000898152600c60205282902060030154915163f329f06160e01b81526001600160a01b03928316600482015291169063f329f06190602401600060405180830381600087803b158015610e4157600080fd5b505af1158015610e55573d6000803e3d6000fd5b5050506000888152600c6020526040902060070180546001925060ff19168280021790555083606001516001600160a01b03168460000151887fc2fee623f95008bb6f752e72e5b825d18519f958fd686c5b9f872e3e6c2f89ba6001604051610ebe91906145c4565b60405180910390a45b50505050505050565b6000828152600b60205260409020600a0154610eec908261444f565b80341015610f535760405162461bcd60e51b815260206004820152602e60248201527f486569726c6f6f6d204d61726b6574706c6163653a20496e636f72726563742060448201526d1c185e5b595b9d08185b5bdd5b9d60921b606482015260840161070b565b6000838152600b602081905260409091200154839060ff1615156001148015610f9457506000818152600b602081905260409091200154610100900460ff16155b610fec5760405162461bcd60e51b815260206004820152602360248201527f486569726c6f6f6d204d61726b6574706c6163653a20696e6163746976652073604482015262616c6560e81b606482015260840161070b565b6000818152600b602052604090206009015442106110585760405162461bcd60e51b815260206004820152602360248201527f486569726c6f6f6d204d61726b6574706c6163653a20696e6163746976652073604482015262616c6560e81b606482015260840161070b565b60a45460ff161561109e5760405162461bcd60e51b815260206004820152601060248201526f14185d5cd8589b194e881c185d5cd95960821b604482015260640161070b565b6000848152600b6020526040902060078101546006909101546110c290859061446e565b11156111365760405162461bcd60e51b815260206004820152603860248201527f486569726c6f6f6d204d61726b6574706c6163653a20616d6f756e742063616e60448201527f6e6f7420737570657263656465206d617820737570706c790000000000000000606482015260840161070b565b6000848152600b60205260408120600601805485929061115790849061446e565b90915550506000848152600b602052604081206004810154600a909101546001600160a01b03909116919061118c908661444f565b600154909150600090612710906111ad9084906001600160601b031661444f565b6111b7919061458b565b6002549091506001600160a01b03166333bb7f916111d583856145ad565b60008a8152600b60205260409081902060020154905160e084901b6001600160e01b03191681526001600160a01b0390911660048201526024016000604051808303818588803b15801561122857600080fd5b505af115801561123c573d6000803e3d6000fd5b505060045461125993506001600160a01b03169150839050613130565b6000878152600b602052604080822060018101546003909101548251637921219560e11b81526001600160a01b0392831660048201523360248201526044810191909152606481018a905260a0608482015260a4810184905291519086169263f242432a9260c4808201939182900301818387803b1580156112da57600080fd5b505af11580156112ee573d6000803e3d6000fd5b5050506000888152600b60205260409020600301549050877f5a9c9fcfe7b05adffc62900a02abd1b27a29fea7b21da7470fa30a986aa9646333604080516001600160a01b039092168252602082018b90520160405180910390a36000878152600b60205260409020600481015460078201546006909201546001600160a01b039091169190036113f6576000888152600b6020819052604091829020908101805460ff1916905560010154905163f329f06160e01b81526001600160a01b0391821660048201529082169063f329f06190602401600060405180830381600087803b1580156113dd57600080fd5b505af11580156113f1573d6000803e3d6000fd5b505050505b5050505050505050565b60008051602061473a833981519152611418816130cf565b60a45460ff166114615760405162461bcd60e51b815260206004820152601460248201527314185d5cd8589b194e881b9bdd081c185d5cd95960621b604482015260640161070b565b600082815560405183917f5fb4654f1efe30c6141eaa6855ffcb27e0b361d899b05e21b1a4d0b3e71e14db91a25050565b6000828152607260205260409020600101546114ad816130cf565b6114b78383613249565b505050565b60008051602061473a8339815191526114d4816130cf565b60a45460ff1661151d5760405162461bcd60e51b815260206004820152601460248201527314185d5cd8589b194e881b9bdd081c185d5cd95960621b604482015260640161070b565b600180546bffffffffffffffffffffffff19166001600160601b0384169081179091556040517ff5f1dd947374c8610b1ff75330ed07a764589f544dc382c6df7b823a28bb740d90600090a25050565b6001600160a01b03811633146115eb5760405162461bcd60e51b815260206004820152602f60248201527f416363657373436f6e74726f6c3a2063616e206f6e6c792072656e6f756e636560448201527f20726f6c657320666f722073656c660000000000000000000000000000000000606482015260840161070b565b6115f582826132eb565b5050565b6001600160a01b037f00000000000000000000000000000000000000000000000000000000000000001630036116865760405162461bcd60e51b815260206004820152602c60248201527f46756e6374696f6e206d7573742062652063616c6c6564207468726f7567682060448201526b19195b1959d85d1958d85b1b60a21b606482015260840161070b565b7f00000000000000000000000000000000000000000000000000000000000000006001600160a01b03166116e17f360894a13ba1a3210667c828492db98dca3e2076cc3735a920a3ca505d382bbc546001600160a01b031690565b6001600160a01b03161461174c5760405162461bcd60e51b815260206004820152602c60248201527f46756e6374696f6e206d7573742062652063616c6c6564207468726f7567682060448201526b6163746976652070726f787960a01b606482015260840161070b565b6117558161336e565b60408051600080825260208201909252611771918391906133cf565b50565b7fad0f4d923b26df99ed90553d189d268443625c1ce82a268b2504301f2900d26861179e816130cf565b61177161355b565b7f7c4810100a616950c6d7d045cd34f179b45ac929ba64a1e480d0e948fce91daf6117d0816130cf565b6001600160a01b0382166000818152600a6020526040808220805460ff19166001179055517fa6625d2d26e786e2f473111bea4b2fcdbbf1863d883a2359989ce3a103d2972a9190a25050565b6001600160a01b037f00000000000000000000000000000000000000000000000000000000000000001630036118aa5760405162461bcd60e51b815260206004820152602c60248201527f46756e6374696f6e206d7573742062652063616c6c6564207468726f7567682060448201526b19195b1959d85d1958d85b1b60a21b606482015260840161070b565b7f00000000000000000000000000000000000000000000000000000000000000006001600160a01b03166119057f360894a13ba1a3210667c828492db98dca3e2076cc3735a920a3ca505d382bbc546001600160a01b031690565b6001600160a01b0316146119705760405162461bcd60e51b815260206004820152602c60248201527f46756e6374696f6e206d7573742062652063616c6c6564207468726f7567682060448201526b6163746976652070726f787960a01b606482015260840161070b565b6119798261336e565b6115f5828260016133cf565b6000306001600160a01b037f00000000000000000000000000000000000000000000000000000000000000001614611a255760405162461bcd60e51b815260206004820152603860248201527f555550535570677261646561626c653a206d757374206e6f742062652063616c60448201527f6c6564207468726f7567682064656c656761746563616c6c0000000000000000606482015260840161070b565b507f360894a13ba1a3210667c828492db98dca3e2076cc3735a920a3ca505d382bbc90565b600060008051602061473a833981519152611a64816130cf565b60a45460ff16611aad5760405162461bcd60e51b815260206004820152601460248201527314185d5cd8589b194e881b9bdd081c185d5cd95960621b604482015260640161070b565b600380546001600160a01b0319166001600160a01b0385169081179091556040517f43ab431641dd45dd0661cad4b820e826d7c526af92e3121e1242d721f82ab3ad90600090a25090919050565b60606000611b0860095490565b600654600554611b1891906145ad565b611b2291906145ad565b905060008167ffffffffffffffff811115611b3f57611b3f613fba565b604051908082528060200260200182016040528015611b7857816020015b611b65613dca565b815260200190600190039081611b5d5790505b5090506000805b600554811015611cc957600b6000611b9883600161446e565b81526020810191909152604001600020600b015460ff161515600103611cb757600b6000611bc783600161446e565b8152602080820192909252604090810160002081516101a0810183528154815260018201546001600160a01b0390811694820194909452600282015484169281019290925260038101546060830152600481015483166080830152600581015490921660a0820152600682015460c0820152600782015460e08201526008820154610100808301919091526009830154610120830152600a830154610140830152600b9092015460ff808216151561016084015292900490911615156101808201528351849084908110611c9d57611c9d614575565b60200260200101819052508180611cb3906145d2565b9250505b80611cc1816145d2565b915050611b7f565b50909392505050565b6000818152600b60205260409020600901548190421015611d3f5760405162461bcd60e51b815260206004820152602160248201527f486569726c6f6f6d204d61726b6574706c6163653a206163746976652073616c6044820152606560f81b606482015260840161070b565b60008051602061473a833981519152611d57816130cf565b6000838152600b6020819052604090912001805460ff19169055611d7f600680546001019055565b6000838152600b602052604090819020600480820154600190920154925163f329f06160e01b81526001600160a01b0393841691810191909152911690819063f329f06190602401600060405180830381600087803b158015611de157600080fd5b505af1158015611df5573d6000803e3d6000fd5b50506040518692507fcb67f20f64495b30f15524c55f90201dd6571d6b5c19dac183d2aeb25315b2dc9150600090a250505050565b6000818152600b602081905260409091200154819060ff1615156001148015611e6b57506000818152600b602081905260409091200154610100900460ff16155b611ec35760405162461bcd60e51b815260206004820152602360248201527f486569726c6f6f6d204d61726b6574706c6163653a20696e6163746976652073604482015262616c6560e81b606482015260840161070b565b6000818152600b60205260409020600901544210611f2f5760405162461bcd60e51b815260206004820152602360248201527f486569726c6f6f6d204d61726b6574706c6163653a20696e6163746976652073604482015262616c6560e81b606482015260840161070b565b6000828152600b602052604090206002015482906001600160a01b03163314611fc05760405162461bcd60e51b815260206004820152603460248201527f486569726c6f6f6d204d61726b6574706c6163653a2063616c6c65722069732060448201527f6e6f74206c6963656e73652070726f7669646572000000000000000000000000606482015260840161070b565b60a45460ff16156120065760405162461bcd60e51b815260206004820152601060248201526f14185d5cd8589b194e881c185d5cd95960821b604482015260640161070b565b6000838152600b6020819052604090912001805460ff1916905561202e600680546001019055565b60405183907fcb67f20f64495b30f15524c55f90201dd6571d6b5c19dac183d2aeb25315b2dc90600090a2505050565b600061206a60016135ee565b9050801561208257600d805461ff0019166101001790555b61208a613706565b612092613773565b6120aa60008051602061473a8339815191528a613249565b6120c260008051602061473a833981519152806137e6565b6120ec7fad0f4d923b26df99ed90553d189d268443625c1ce82a268b2504301f2900d2688a613249565b6121247fad0f4d923b26df99ed90553d189d268443625c1ce82a268b2504301f2900d26860008051602061473a8339815191526137e6565b61214e7f7c4810100a616950c6d7d045cd34f179b45ac929ba64a1e480d0e948fce91daf89613249565b6121867f7c4810100a616950c6d7d045cd34f179b45ac929ba64a1e480d0e948fce91daf60008051602061473a8339815191526137e6565b60008790556001600160a01b038087166c01000000000000000000000000026001600160601b03841617600155600280548683166001600160a01b031991821617909155600380548684169083161790556004805492881692909116919091179055801561222e57600d805461ff0019169055604051600181527f7f26b83ff96e1f2b6a682f133852f6798a09c465da95921460cefb38474024989060200160405180910390a15b505050505050505050565b600060008051602061473a833981519152612253816130cf565b60a45460ff1661229c5760405162461bcd60e51b815260206004820152601460248201527314185d5cd8589b194e881b9bdd081c185d5cd95960621b604482015260640161070b565b600480546001600160a01b0319166001600160a01b0385169081179091556040517f7dae230f18360d76a040c81f050aa14eb9d6dc7901b20fc5d855e2a20fe814d190600090a25090919050565b7fad0f4d923b26df99ed90553d189d268443625c1ce82a268b2504301f2900d268612314816130cf565b611771613831565b612324613dca565b506000908152600b602081815260409283902083516101a0810185528154815260018201546001600160a01b0390811693820193909352600282015483169481019490945260038101546060850152600481015482166080850152600581015490911660a0840152600681015460c0840152600781015460e08401526008810154610100808501919091526009820154610120850152600a82015461014085015291015460ff808216151561016085015291900416151561018082015290565b606060006123f160085490565b6007546123fe91906145ad565b905060008167ffffffffffffffff81111561241b5761241b613fba565b60405190808252806020026020018201604052801561245457816020015b612441613e5a565b8152602001906001900390816124395790505b5090506000805b600754811015611cc9576000600c600061247684600161446e565b815260208101919091526040016000206007015460ff16600181111561249e5761249e61429f565b0361258557600c60006124b283600161446e565b81526020808201929092526040908101600020815161010081018352815481526001808301549482019490945260028201546001600160a01b03908116938201939093526003820154909216606083015260048101546080830152600581015460a0830152600681015460c083015260078101549192909160e084019160ff909116908111156125445761254461429f565b60018111156125555761255561429f565b8152505083838151811061256b5761256b614575565b60200260200101819052508180612581906145d2565b9250505b8061258f816145d2565b91505061245b565b61259f613e5a565b6000828152600c6020908152604091829020825161010081018452815481526001808301549382019390935260028201546001600160a01b03908116948201949094526003820154909316606084015260048101546080840152600581015460a0840152600681015460c08401526007810154909160e084019160ff169081111561262c5761262c61429f565b600181111561263d5761263d61429f565b90525092915050565b600082815260726020526040902060010154612661816130cf565b6114b783836132eb565b336000908152600a602052604090205460ff1615156001146126df5760405162461bcd60e51b815260206004820152602760248201527f486569726c6f6f6d204d61726b6574706c6163653a20556e76657269666965646044820152661031b0b63632b960c91b606482015260840161070b565b60a45460ff16156127255760405162461bcd60e51b815260206004820152601060248201526f14185d5cd8589b194e881c185d5cd95960821b604482015260640161070b565b8383116127865760405162461bcd60e51b815260206004820152602960248201527f486569726c6f6f6d204d61726b6574706c6163653a20496e636f727265637420604482015268656e6420646174657360b81b606482015260840161070b565b612794600580546001019055565b60006001600160a01b038916634e0a233488336040516001600160e01b031960e085901b1681526001600160a01b03928316600482015291166024820152604481018b90526001600160601b03851660648201526084016020604051808303816000875af115801561280a573d6000803e3d6000fd5b505050506040513d601f19601f8201168201806040525081019061282e91906145eb565b9050612839856138ac565b1561284c5761284c600980546001019055565b6000604051806101a0016040528061286360055490565b81526001600160a01b038a166020820152604001336001600160a01b031681526020018381526020018b6001600160a01b03168152602001886001600160a01b03168152602001600081526020018a81526020018781526020018681526020018581526020016128d2886138c4565b151581526020016128e2886138ac565b1515905280516000908152600b602081815260409283902084518155908401516001820180546001600160a01b03199081166001600160a01b03938416179091559385015160028084018054871692841692909217909155606086015160038401556080860151600484018054871691841691909117905560a08601516005840180549096169083161790945560c0850151600683015560e085015160078301556101008086015160088401556101208601516009840155610140860151600a84015561016086015192909301805461018087015161ffff1990911693151561ff00191693909317921515909302919091179091559054919250166375cd51ed336040516001600160e01b031960e084901b1681526001600160a01b039091166004820152602401602060405180830381865afa158015612a27573d6000803e3d6000fd5b505050506040513d601f19601f82011682018060405250810190612a4b9190614604565b612ac3576002546001600160a01b031663133572ba89336040516001600160e01b031960e085901b1681526001600160a01b03928316600482015291166024820152604401600060405180830381600087803b158015612aaa57600080fd5b505af1158015612abe573d6000803e3d6000fd5b505050505b805160405183919033907f2c5a9de64e99c2ab1b836ad03048ec0bef7c0a2af3dd947595c46274e50a7c8290600090a450505050505050505050565b60005480341015612b695760405162461bcd60e51b815260206004820152602e60248201527f486569726c6f6f6d204d61726b6574706c6163653a20496e636f72726563742060448201526d1c185e5b595b9d08185b5bdd5b9d60921b606482015260840161070b565b60a45460ff1615612baf5760405162461bcd60e51b815260206004820152601060248201526f14185d5cd8589b194e881c185d5cd95960821b604482015260640161070b565b6001600160a01b03851663e985e9c5336040516001600160e01b031960e084901b1681526001600160a01b039091166004820152306024820152604401602060405180830381865afa158015612c09573d6000803e3d6000fd5b505050506040513d601f19601f82011682018060405250810190612c2d9190614604565b612cab5760405162461bcd60e51b815260206004820152604360248201527f486569726c6f6f6d204d61726b6574706c6163653a206d61726b6574206f706560448201527f7261746f72206e6f7420617070726f76656420666f722074686973206c697374606482015262696e6760e81b608482015260a40161070b565b816001600160a01b03861662fdd58e336040516001600160e01b031960e084901b1681526001600160a01b03909116600482015260248101889052604401602060405180830381865afa158015612d06573d6000803e3d6000fd5b505050506040513d601f19601f82011682018060405250810190612d2a91906145eb565b1015612d9e5760405162461bcd60e51b815260206004820152603060248201527f486569726c6f6f6d204d61726b6574706c6163653a20696e737566666963696560448201527f6e7420276e6674272062616c616e636500000000000000000000000000000000606482015260840161070b565b612dac600780546001019055565b6000612db760075490565b90506000604051806101000160405280878152602001838152602001886001600160a01b03168152602001612de93390565b6001600160a01b031681526020018681526020018581526020016000815260200160006001811115612e1d57612e1d61429f565b90526000838152600c60209081526040918290208351815590830151600180830191909155918301516002820180546001600160a01b039283166001600160a01b03199182161790915560608501516003840180549190931691161790556080830151600482015560a0830151600582015560c0830151600682015560e0830151600782018054949550859492939192909160ff19909116908381811115612ec757612ec761429f565b021790555050600454600054612ee992506001600160a01b0390911690613130565b6003546001600160a01b03166375cd51ed336040516001600160e01b031960e084901b1681526001600160a01b039091166004820152602401602060405180830381865afa158015612f3f573d6000803e3d6000fd5b505050506040513d601f19601f82011682018060405250810190612f639190614604565b612fdb576003546001600160a01b031663133572ba33336040516001600160e01b031960e085901b1681526001600160a01b03928316600482015291166024820152604401600060405180830381600087803b158015612fc257600080fd5b505af1158015612fd6573d6000803e3d6000fd5b505050505b8386837fa29719e0668112fd314a3f01101222c563cd19f94809a1483b5c39bcfb5d0cdb33604080516001600160a01b039092168252602082018b905201610ebe565b600060008051602061473a833981519152613038816130cf565b60a45460ff166130815760405162461bcd60e51b815260206004820152601460248201527314185d5cd8589b194e881b9bdd081c185d5cd95960621b604482015260640161070b565b600280546001600160a01b0319166001600160a01b0385169081179091556040517f43ab431641dd45dd0661cad4b820e826d7c526af92e3121e1242d721f82ab3ad90600090a25090919050565b61177181336138d4565b8054806131285760405162461bcd60e51b815260206004820152601b60248201527f436f756e7465723a2064656372656d656e74206f766572666c6f770000000000604482015260640161070b565b600019019055565b804710156131805760405162461bcd60e51b815260206004820152601d60248201527f416464726573733a20696e73756666696369656e742062616c616e6365000000604482015260640161070b565b6000826001600160a01b03168260405160006040518083038185875af1925050503d80600081146131cd576040519150601f19603f3d011682016040523d82523d6000602084013e6131d2565b606091505b50509050806114b75760405162461bcd60e51b815260206004820152603a60248201527f416464726573733a20756e61626c6520746f2073656e642076616c75652c207260448201527f6563697069656e74206d61792068617665207265766572746564000000000000606482015260840161070b565b60008281526072602090815260408083206001600160a01b038516845290915290205460ff166115f55760008281526072602090815260408083206001600160a01b03851684529091529020805460ff191660011790556132a73390565b6001600160a01b0316816001600160a01b0316837f2f8788117e7eff1d82e926ec794901d17c78024a50270940304540a733656f0d60405160405180910390a45050565b60008281526072602090815260408083206001600160a01b038516845290915290205460ff16156115f55760008281526072602090815260408083206001600160a01b0385168085529252808320805460ff1916905551339285917ff6391f5c32d9c69d2a47ea670b442974b53935d1edc7fd64eb21e047a839171b9190a45050565b60008051602061473a833981519152613386816130cf565b60a45460ff166115f55760405162461bcd60e51b815260206004820152601460248201527314185d5cd8589b194e881b9bdd081c185d5cd95960621b604482015260640161070b565b7f4910fdfa16fed3260ed0e7147f7cc6da11a60208b5b9406d12a635614ffd91435460ff1615613402576114b783613954565b826001600160a01b03166352d1902d6040518163ffffffff1660e01b8152600401602060405180830381865afa92505050801561345c575060408051601f3d908101601f19168201909252613459918101906145eb565b60015b6134ce5760405162461bcd60e51b815260206004820152602e60248201527f45524331393637557067726164653a206e657720696d706c656d656e7461746960448201527f6f6e206973206e6f742055555053000000000000000000000000000000000000606482015260840161070b565b7f360894a13ba1a3210667c828492db98dca3e2076cc3735a920a3ca505d382bbc811461354f5760405162461bcd60e51b815260206004820152602960248201527f45524331393637557067726164653a20756e737570706f727465642070726f786044820152681a58589b195555525160ba1b606482015260840161070b565b506114b7838383613a02565b60a45460ff166135a45760405162461bcd60e51b815260206004820152601460248201527314185d5cd8589b194e881b9bdd081c185d5cd95960621b604482015260640161070b565b60a4805460ff191690557f5db9ee0a495bf2e6ff9c91a7834c1ba4fdd244a5e8aa4e537bd38aeae4b073aa335b6040516001600160a01b03909116815260200160405180910390a1565b600d54600090610100900460ff161561367e578160ff1660011480156136135750303b155b6136765760405162461bcd60e51b815260206004820152602e60248201527f496e697469616c697a61626c653a20636f6e747261637420697320616c72656160448201526d191e481a5b9a5d1a585b1a5e995960921b606482015260840161070b565b506000919050565b600d5460ff8084169116106136ec5760405162461bcd60e51b815260206004820152602e60248201527f496e697469616c697a61626c653a20636f6e747261637420697320616c72656160448201526d191e481a5b9a5d1a585b1a5e995960921b606482015260840161070b565b50600d805460ff191660ff92909216919091179055600190565b600d54610100900460ff166137715760405162461bcd60e51b815260206004820152602b60248201527f496e697469616c697a61626c653a20636f6e7472616374206973206e6f74206960448201526a6e697469616c697a696e6760a81b606482015260840161070b565b565b600d54610100900460ff166137de5760405162461bcd60e51b815260206004820152602b60248201527f496e697469616c697a61626c653a20636f6e7472616374206973206e6f74206960448201526a6e697469616c697a696e6760a81b606482015260840161070b565b613771613a2d565b600082815260726020526040808220600101805490849055905190918391839186917fbd79b86ffe0ab8e8776151514217cd7cacd52c909f66475c3af44e129f0b00ff9190a4505050565b60a45460ff16156138775760405162461bcd60e51b815260206004820152601060248201526f14185d5cd8589b194e881c185d5cd95960821b604482015260640161070b565b60a4805460ff191660011790557f62e78cea01bee320cd4e420270b5ea74000d11b0c9f74754ebdbfc544b05a2586135d13390565b60004282116138bc57600061083c565b600192915050565b600042821161367657600161083c565b60008281526072602090815260408083206001600160a01b038516845290915290205460ff166115f557613912816001600160a01b03166014613aa4565b61391d836020613aa4565b60405160200161392e929190614652565b60408051601f198184030181529082905262461bcd60e51b825261070b916004016146d3565b6001600160a01b0381163b6139c15760405162461bcd60e51b815260206004820152602d60248201527f455243313936373a206e657720696d706c656d656e746174696f6e206973206e60448201526c1bdd08184818dbdb9d1c9858dd609a1b606482015260840161070b565b7f360894a13ba1a3210667c828492db98dca3e2076cc3735a920a3ca505d382bbc80546001600160a01b0319166001600160a01b0392909216919091179055565b613a0b83613c54565b600082511180613a185750805b156114b757613a278383613c94565b50505050565b600d54610100900460ff16613a985760405162461bcd60e51b815260206004820152602b60248201527f496e697469616c697a61626c653a20636f6e7472616374206973206e6f74206960448201526a6e697469616c697a696e6760a81b606482015260840161070b565b60a4805460ff19169055565b60606000613ab383600261444f565b613abe90600261446e565b67ffffffffffffffff811115613ad657613ad6613fba565b6040519080825280601f01601f191660200182016040528015613b00576020820181803683370190505b509050600360fc1b81600081518110613b1b57613b1b614575565b60200101906001600160f81b031916908160001a905350600f60fb1b81600181518110613b4a57613b4a614575565b60200101906001600160f81b031916908160001a9053506000613b6e84600261444f565b613b7990600161446e565b90505b6001811115613bfe577f303132333435363738396162636465660000000000000000000000000000000085600f1660108110613bba57613bba614575565b1a60f81b828281518110613bd057613bd0614575565b60200101906001600160f81b031916908160001a90535060049490941c93613bf781614706565b9050613b7c565b508315613c4d5760405162461bcd60e51b815260206004820181905260248201527f537472696e67733a20686578206c656e67746820696e73756666696369656e74604482015260640161070b565b9392505050565b613c5d81613954565b6040516001600160a01b038216907fbc7cd75a20ee27fd9adebab32041f755214dbc6bffa90cc0225b39da2e5c2d3b90600090a250565b6060613c4d838360405180606001604052806027815260200161475a6027913960606001600160a01b0384163b613d1c5760405162461bcd60e51b815260206004820152602660248201527f416464726573733a2064656c65676174652063616c6c20746f206e6f6e2d636f6044820152651b9d1c9858dd60d21b606482015260840161070b565b600080856001600160a01b031685604051613d37919061471d565b600060405180830381855af49150503d8060008114613d72576040519150601f19603f3d011682016040523d82523d6000602084013e613d77565b606091505b5091509150613d87828286613d91565b9695505050505050565b60608315613da0575081613c4d565b825115613db05782518084602001fd5b8160405162461bcd60e51b815260040161070b91906146d3565b604051806101a001604052806000815260200160006001600160a01b0316815260200160006001600160a01b031681526020016000815260200160006001600160a01b0316815260200160006001600160a01b0316815260200160008152602001600081526020016000815260200160008152602001600081526020016000151581526020016000151581525090565b604051806101000160405280600081526020016000815260200160006001600160a01b0316815260200160006001600160a01b0316815260200160008152602001600081526020016000815260200160006001811115613ebc57613ebc61429f565b905290565b600060208284031215613ed357600080fd5b5035919050565b600060208284031215613eec57600080fd5b81356001600160e01b031981168114613c4d57600080fd5b60008060408385031215613f1757600080fd5b50508035926020909101359150565b6001600160a01b038116811461177157600080fd5b60008060408385031215613f4e57600080fd5b823591506020830135613f6081613f26565b809150509250929050565b6001600160601b038116811461177157600080fd5b600060208284031215613f9257600080fd5b8135613c4d81613f6b565b600060208284031215613faf57600080fd5b8135613c4d81613f26565b634e487b7160e01b600052604160045260246000fd5b6040516060810167ffffffffffffffff81118282101715613ff357613ff3613fba565b60405290565b604051601f8201601f1916810167ffffffffffffffff8111828210171561402257614022613fba565b604052919050565b6000806040838503121561403d57600080fd5b823561404881613f26565b915060208381013567ffffffffffffffff8082111561406657600080fd5b818601915086601f83011261407a57600080fd5b81358181111561408c5761408c613fba565b61409e601f8201601f19168501613ff9565b915080825287848285010111156140b457600080fd5b80848401858401376000848284010152508093505050509250929050565b8051825260208101516140f060208401826001600160a01b03169052565b50604081015161410b60408401826001600160a01b03169052565b5060608101516060830152608081015161413060808401826001600160a01b03169052565b5060a081015161414b60a08401826001600160a01b03169052565b5060c0818101519083015260e08082015190830152610100808201519083015261012080820151908301526101408082015190830152610160808201511515908301526101808082015180151582850152613a27565b6020808252825182820181905260009190848201906040850190845b818110156141e4576141d08385516140d2565b928401926101a092909201916001016141bd565b50909695505050505050565b600080600080600080600080610100898b03121561420d57600080fd5b883561421881613f26565b9750602089013561422881613f26565b965060408901359550606089013561423f81613f26565b9450608089013561424f81613f26565b935060a089013561425f81613f26565b925060c089013561426f81613f26565b915060e089013561427f81613f6b565b809150509295985092959890939650565b6101a0810161083c82846140d2565b634e487b7160e01b600052602160045260246000fd5b600281106142d357634e487b7160e01b600052602160045260246000fd5b9052565b805182526020810151602083015260408101516001600160a01b03808216604085015280606084015116606085015250506080810151608083015260a081015160a083015260c081015160c083015260e08101516114b760e08401826142b5565b6020808252825182820181905260009190848201906040850190845b818110156141e4576143678385516142d7565b928401926101009290920191600101614354565b610100810161083c82846142d7565b600080600080600080600080610100898b0312156143a757600080fd5b88356143b281613f26565b97506020890135965060408901356143c981613f26565b955060608901356143d981613f26565b94506080890135935060a0890135925060c0890135915060e089013561427f81613f6b565b6000806000806080858703121561441457600080fd5b843561441f81613f26565b966020860135965060408601359560600135945092505050565b634e487b7160e01b600052601160045260246000fd5b600081600019048311821515161561446957614469614439565b500290565b6000821982111561448157614481614439565b500190565b6000602080838503121561449957600080fd5b825167ffffffffffffffff808211156144b157600080fd5b818501915085601f8301126144c557600080fd5b8151818111156144d7576144d7613fba565b6144e5848260051b01613ff9565b8181528481019250606091820284018501918883111561450457600080fd5b938501935b828510156145695780858a0312156145215760008081fd5b614529613fd0565b855161453481613f26565b81528587015161454381613f26565b8188015260408681015161455681613f6b565b9082015284529384019392850192614509565b50979650505050505050565b634e487b7160e01b600052603260045260246000fd5b6000826145a857634e487b7160e01b600052601260045260246000fd5b500490565b6000828210156145bf576145bf614439565b500390565b6020810161083c82846142b5565b6000600182016145e4576145e4614439565b5060010190565b6000602082840312156145fd57600080fd5b5051919050565b60006020828403121561461657600080fd5b81518015158114613c4d57600080fd5b60005b83811015614641578181015183820152602001614629565b83811115613a275750506000910152565b7f416363657373436f6e74726f6c3a206163636f756e742000000000000000000081526000835161468a816017850160208801614626565b7f206973206d697373696e6720726f6c652000000000000000000000000000000060179184019182015283516146c7816028840160208801614626565b01602801949350505050565b60208152600082518060208401526146f2816040850160208701614626565b601f01601f19169190910160400192915050565b60008161471557614715614439565b506000190190565b6000825161472f818460208701614626565b919091019291505056fefddb143be89620896ce3745ceb136fd672c98dea954adb8724dcfae9dc08796d416464726573733a206c6f772d6c6576656c2064656c65676174652063616c6c206661696c6564a2646970667358221220a1647bbe0f5bef95ec28666072fd9f6db31b965f1c7540c1a21a44fad6cf6d0f64736f6c634300080e0033",
  "immutableReferences": {
    "1945": [
      {
        "length": 32,
        "start": 5635
      },
      {
        "length": 32,
        "start": 5768
      },
      {
        "length": 32,
        "start": 6183
      },
      {
        "length": 32,
        "start": 6316
      },
      {
        "length": 32,
        "start": 6546
      }
    ]
  },
  "source": "// SPDX-License-Identifier: UNLICENSED\r\npragma solidity ^0.8.0;\r\npragma abicoder v2;\r\n\r\nimport \"@openzeppelin/contracts/token/ERC1155/IERC1155.sol\";\r\nimport \"@openzeppelin/contracts/token/ERC20/IERC20.sol\";\r\n\r\nimport \"@openzeppelin/contracts/utils/Address.sol\";\r\nimport \"@openzeppelin/contracts/token/ERC20/utils/SafeERC20.sol\";\r\nimport \"@openzeppelin/contracts/utils/Counters.sol\";\r\n\r\nimport \"./interfaces/IHeirloomMarketplace.sol\";\r\nimport \"./erc1155/HeirloomLicenseNFT.sol\";\r\n\r\n/**\r\n    @title heirloomdao nft marketplace contract\r\n*/\r\ncontract HeirloomMarketplace is IHeirloomMarketplace {\r\n    \r\n    using Address for address;\r\n    using SafeERC20 for IERC20;\r\n    using Counters for Counters.Counter;\r\n    \r\n    function createSale(\r\n        address nftContract,\r\n        uint256 maxSupply,\r\n        address licenseProvider,\r\n        address refferer,\r\n        uint256 start,\r\n        uint256 end,\r\n        uint256 price,\r\n        uint96 rbp\r\n    ) public override virtual onlyVerified whenNotPaused {\r\n        require(end > start, \"Heirloom Marketplace: Incorrect end dates\");\r\n\r\n        _saleIds.increment();\r\n        uint256 tokenId = HeirloomLicenseNFT(nftContract).createLicense(licenseProvider, _msgSender(), maxSupply, rbp);\r\n\r\n        if(isFuture(start)) {\r\n            _futureSales.increment();\r\n        }\r\n\r\n        SaleItem memory saleItem = SaleItem({\r\n            saleId: _saleIds.current(),\r\n            licenseProvider: licenseProvider,\r\n            representative: _msgSender(),\r\n            tokenId: tokenId,\r\n            nftContract: nftContract,\r\n            refferer: refferer,\r\n            soldLicenses: 0,\r\n            maxSupply: maxSupply,\r\n            start: start,\r\n            end: end,\r\n            price: price,\r\n            active: isActive(start),\r\n            isFuture: isFuture(start)\r\n        });\r\n        _idToSaleItem[saleItem.saleId] = saleItem;\r\n        \r\n        if (!HeirloomEscrow(_escrowSales).accountExists(_msgSender())) {\r\n            HeirloomEscrow(_escrowSales).createAccount(licenseProvider, _msgSender());\r\n        }\r\n        emit SaleCreated(_msgSender(), saleItem.saleId, tokenId);\r\n    }\r\n\r\n    function listLicense(\r\n        address nftContract, \r\n        uint256 tokenId, \r\n        uint256 price,\r\n        uint256 amount)\r\n    public payable override virtual\r\n    onlyCorrectAmount(LISTING_FEE) \r\n    whenNotPaused {\r\n        require(HeirloomLicenseNFT(nftContract).isApprovedForAll(_msgSender(), address(this)), \"Heirloom Marketplace: market operator not approved for this listing\");\r\n        require(HeirloomLicenseNFT(nftContract).balanceOf(_msgSender(), tokenId) >= amount, \"Heirloom Marketplace: insufficient 'nft' balance\");\r\n        \r\n        _licenseItemIds.increment();\r\n        uint256 licenseId = _licenseItemIds.current();\r\n        LicenseItem memory licenseItem = LicenseItem({\r\n            licenseId: licenseId,\r\n            tokenId: tokenId,\r\n            nftContract: nftContract,\r\n            seller: _msgSender(),\r\n            price: price,\r\n            listedAmount: amount,\r\n            sold: 0,\r\n            status: ListedStatus.Open\r\n        });\r\n        \r\n        _idToLicenseItem[licenseId] = licenseItem;\r\n        Address.sendValue(payable(_treasury), LISTING_FEE);\r\n\r\n        if (!HeirloomEscrow(_escrowListed).accountExists(_msgSender())) {\r\n            HeirloomEscrow(_escrowListed).createAccount(_msgSender(), _msgSender());\r\n        }\r\n\r\n        emit LicenseListed(licenseId, tokenId, _msgSender(), price, amount);\r\n    }\r\n\r\n    function participate(uint256 saleId, uint256 amount) \r\n    public payable override\r\n    onlyCorrectAmount(amount * _idToSaleItem[saleId].price) \r\n    onlyActive(saleId)  \r\n    whenNotPaused {\r\n        require(_idToSaleItem[saleId].soldLicenses + amount <= _idToSaleItem[saleId].maxSupply, \"Heirloom Marketplace: amount cannot supercede max supply\");\r\n        \r\n        _idToSaleItem[saleId].soldLicenses += amount;\r\n        IERC1155 nftInstance = IERC1155(_idToSaleItem[saleId].nftContract);\r\n        uint256 toPay = amount * _idToSaleItem[saleId].price;\r\n        uint256 commission = (COMMISSION_BP * toPay) / 10000;\r\n        \r\n        HeirloomEscrow(_escrowSales).depositNative{value: toPay - commission}(_idToSaleItem[saleId].representative);\r\n        Address.sendValue(payable(_treasury), commission);\r\n        nftInstance.safeTransferFrom(_idToSaleItem[saleId].licenseProvider, _msgSender(), _idToSaleItem[saleId].tokenId, amount, \"\");\r\n        emit BoughtFromSale(saleId, _idToSaleItem[saleId].tokenId, _msgSender(), amount);\r\n\r\n        HeirloomLicenseNFT heirloomNftInstance = HeirloomLicenseNFT(_idToSaleItem[saleId].nftContract);\r\n        if(_idToSaleItem[saleId].soldLicenses == _idToSaleItem[saleId].maxSupply){\r\n            _idToSaleItem[saleId].active = false;\r\n            heirloomNftInstance.revokeApprovalForAll(_idToSaleItem[saleId].licenseProvider);\r\n        }\r\n    }\r\n\r\n    function purchaseLicense(uint256 licenseId, uint256 amount) \r\n    public payable override virtual\r\n    onlyCorrectAmount(amount * _idToLicenseItem[licenseId].price) \r\n    whenNotPaused {\r\n        require(_idToLicenseItem[licenseId].status == ListedStatus.Open, \"Heirloom Marketplace: item is unlisted\");\r\n        require(_idToLicenseItem[licenseId].sold + amount <= _idToLicenseItem[licenseId].listedAmount, \"Heirloom Marketplace: amount cannot supercede listed amount\");\r\n\r\n        LicenseItem memory item = _idToLicenseItem[licenseId];\r\n        LibPart.Part[] memory royalties = HeirloomLicenseNFT(item.nftContract).getHeirloomV1Royalties(item.tokenId);\r\n        uint256 toPay = item.price * amount;\r\n        uint256 royaltyFee = (royalties[0].value * toPay) / 10000;\r\n        HeirloomEscrow(_escrowListed).depositNative{value: toPay - royaltyFee}(item.seller);\r\n        HeirloomEscrow(_escrowSales).depositNative{value: royaltyFee}(royalties[0].representative);\r\n\r\n        HeirloomLicenseNFT(item.nftContract).safeTransferFrom(item.seller, _msgSender(), item.tokenId, amount, \"\");\r\n        emit LicenseSold(licenseId, item.tokenId, item.seller, _msgSender(), amount, item.price);\r\n        \r\n        item.sold += amount;\r\n        if(item.sold == item.listedAmount){\r\n            _closedLicenseItems.increment();\r\n            HeirloomLicenseNFT(item.nftContract).revokeApprovalForAll(_idToLicenseItem[licenseId].seller);\r\n            _idToLicenseItem[licenseId].status = ListedStatus.Closed;\r\n            emit ListedLicenseClosed(licenseId, item.tokenId, item.seller, ListedStatus.Closed);\r\n        }\r\n    }\r\n}  ",
  "sourcePath": "C:\\Users\\DELL\\Documents\\heirloomdao\\contracts\\contracts\\HeirloomMarketplace.sol",
  "compiler": {
    "name": "solc",
    "version": "0.8.14+commit.80d49f37.Emscripten.clang"
  },
  "schemaVersion": "3.4.7",
  "updatedAt": "2022-06-07T10:46:51.849Z",
  "networkType": "ethereum",
  "devdoc": {
    "kind": "dev",
    "methods": {
      "activateFutureSale(uint256)": {
        "params": {
          "saleId": "id of the sale to be activated"
        }
      },
      "closeSaleOnDeadline(uint256)": {
        "params": {
          "saleId": "id of the sale to be closed"
        }
      },
      "createSale(address,uint256,address,address,uint256,uint256,uint256,uint96)": {
        "params": {
          "end": "enddate of sale",
          "maxSupply": "token cap of license",
          "nftContract": "nft contract for minting license nft",
          "price": "of the item in the sale",
          "rbp": "royalty basis points, percentage of royalty to be collected by license creator",
          "refferer": "address of the refferer",
          "start": "startDate of the sale"
        }
      },
      "fetchLicense(uint256)": {
        "params": {
          "licenseId": "id of the listed license"
        }
      },
      "fetchSale(uint256)": {
        "params": {
          "saleId": "id of the sale to be retrieved"
        }
      },
      "forceCloseSale(uint256)": {
        "params": {
          "saleId": "id of the sale to be forced closed"
        }
      },
      "getRoleAdmin(bytes32)": {
        "details": "Returns the admin role that controls `role`. See {grantRole} and {revokeRole}. To change a role's admin, use {_setRoleAdmin}."
      },
      "grantRole(bytes32,address)": {
        "details": "Grants `role` to `account`. If `account` had not been already granted `role`, emits a {RoleGranted} event. Requirements: - the caller must have ``role``'s admin role."
      },
      "hasRole(bytes32,address)": {
        "details": "Returns `true` if `account` has been granted `role`."
      },
      "isUserVerified(address)": {
        "params": {
          "user": "checks wheter a user is verified"
        }
      },
      "listLicense(address,uint256,uint256,uint256)": {
        "params": {
          "amount": "the amount of nfts to be put up for sale",
          "nftContract": "nft contract address of the license nft",
          "price": "to sell license for",
          "tokenId": "the tokenId of the Saas License nft"
        }
      },
      "participate(uint256,uint256)": {
        "details": "erc20 transfer needs to be pre-approved",
        "params": {
          "amount": "number of licenses to buy",
          "saleId": "id of the ongoing sale"
        }
      },
      "paused()": {
        "details": "Returns true if the contract is paused, and false otherwise."
      },
      "proxiableUUID()": {
        "details": "Implementation of the ERC1822 {proxiableUUID} function. This returns the storage slot used by the implementation. It is used to validate that the this implementation remains valid after an upgrade. IMPORTANT: A proxy pointing at a proxiable contract should not be considered proxiable itself, because this risks bricking a proxy that upgrades to it, by delegating to itself until out of gas. Thus it is critical that this function revert if invoked through a proxy. This is guaranteed by the `notDelegated` modifier."
      },
      "purchaseLicense(uint256,uint256)": {
        "params": {
          "amount": "amount to purchase ",
          "licenseId": "id of the license to sell"
        }
      },
      "renounceRole(bytes32,address)": {
        "details": "Revokes `role` from the calling account. Roles are often managed via {grantRole} and {revokeRole}: this function's purpose is to provide a mechanism for accounts to lose their privileges if they are compromised (such as when a trusted device is misplaced). If the calling account had been revoked `role`, emits a {RoleRevoked} event. Requirements: - the caller must be `account`."
      },
      "revokeRole(bytes32,address)": {
        "details": "Revokes `role` from `account`. If `account` had been granted `role`, emits a {RoleRevoked} event. Requirements: - the caller must have ``role``'s admin role."
      },
      "setCommissionRBP(uint96)": {
        "params": {
          "newBP": "new commission basis points"
        }
      },
      "setListingFee(uint256)": {
        "params": {
          "newListingFee": "new listing fee"
        }
      },
      "supportsInterface(bytes4)": {
        "details": "See {IERC165-supportsInterface}."
      },
      "updateEscrowListed(address)": {
        "params": {
          "newEscrow": "address to which escrow is updated"
        }
      },
      "updateEscrowSales(address)": {
        "params": {
          "newEscrow": "address to which escrow is updated"
        }
      },
      "updateTreasury(address)": {
        "params": {
          "newTreasury": "address to which treasury is updated"
        }
      },
      "upgradeTo(address)": {
        "details": "Upgrade the implementation of the proxy to `newImplementation`. Calls {_authorizeUpgrade}. Emits an {Upgraded} event."
      },
      "upgradeToAndCall(address,bytes)": {
        "details": "Upgrade the implementation of the proxy to `newImplementation`, and subsequently execute the function call encoded in `data`. Calls {_authorizeUpgrade}. Emits an {Upgraded} event."
      },
      "verifyUser(address)": {
        "params": {
          "user": "verifies a user on request of verifier"
        }
      }
    },
    "title": "heirloomdao nft marketplace contract",
    "version": 1
  },
  "userdoc": {
    "events": {
      "BoughtFromSale(uint256,uint256,address,uint256)": {
        "notice": "emitted after a license is bought from a sale"
      },
      "CommissionUpdated(uint96)": {
        "notice": "emitted after the commission basis points is updated "
      },
      "EscrowUpdated(address)": {
        "notice": "emitted after the treasury is updated "
      },
      "LicenseListed(uint256,uint256,address,uint256,uint256)": {
        "notice": "emitted after a license is listed by a user"
      },
      "LicenseSold(uint256,uint256,address,address,uint256,uint256)": {
        "notice": "emitted after a license is listed by a user"
      },
      "ListedLicenseClosed(uint256,uint256,address,uint8)": {
        "notice": "emitted after a listed license is closed"
      },
      "ListingFeeUpdated(uint256)": {
        "notice": "emitted after the listing fee is updated "
      },
      "SaleActivated(uint256)": {
        "notice": "emitted after a (future) sale is activated"
      },
      "SaleClosed(uint256)": {
        "notice": "emitted after a close sale"
      },
      "SaleCreated(address,uint256,uint256)": {
        "notice": "emitted after every sale created"
      },
      "TokenUpdated(address)": {
        "notice": "emitted after the treasury is updated "
      },
      "TreasuryUpdated(address)": {
        "notice": "emitted after the treasury is updated "
      },
      "UserVerified(address)": {
        "notice": "emitted after the treasury is updated "
      }
    },
    "kind": "user",
    "methods": {
      "activateFutureSale(uint256)": {
        "notice": "activates a sale that starts of which its start date is < block timestamp"
      },
      "closeSaleOnDeadline(uint256)": {
        "notice": "closes a sale id only if deadline is passed "
      },
      "createSale(address,uint256,address,address,uint256,uint256,uint256,uint96)": {
        "notice": "creates a saleItem"
      },
      "fetchActiveSales()": {
        "notice": "fetches all of the active nft license sales on the platform"
      },
      "fetchLicense(uint256)": {
        "notice": "fetches a license with a given licenseid"
      },
      "fetchListedLicenses()": {
        "notice": "fetches all tokenIds listed for sale"
      },
      "fetchSale(uint256)": {
        "notice": "retrieves a sale"
      },
      "forceCloseSale(uint256)": {
        "notice": "allows creator of a sale to foricibly end a sale"
      },
      "isUserVerified(address)": {
        "notice": "verifies a user"
      },
      "listLicense(address,uint256,uint256,uint256)": {
        "notice": "gives the heirloom operator permission to sell an token amount on behalf of the user"
      },
      "participate(uint256,uint256)": {
        "notice": "allows a user to participate in a license sale"
      },
      "purchaseLicense(uint256,uint256)": {
        "notice": "transfers license item to send on tokenTransfer"
      },
      "setCommissionRBP(uint96)": {
        "notice": "sets new commission rbp"
      },
      "setListingFee(uint256)": {
        "notice": "sets the listing fee"
      },
      "updateEscrowListed(address)": {
        "notice": "sets a new escrow address"
      },
      "updateEscrowSales(address)": {
        "notice": "sets a new escrow address"
      },
      "updateTreasury(address)": {
        "notice": "sets a new treasury address"
      },
      "verifyUser(address)": {
        "notice": "verifies a user"
      }
    },
    "version": 1
  }
}