{
  "contractName": "HeirloomMarketplaceV2",
  "abi": [
    {
      "anonymous": false,
      "inputs": [
        {
          "indexed": false,
          "internalType": "address",
          "name": "previousAdmin",
          "type": "address"
        },
        {
          "indexed": false,
          "internalType": "address",
          "name": "newAdmin",
          "type": "address"
        }
      ],
      "name": "AdminChanged",
      "type": "event"
    },
    {
      "anonymous": false,
      "inputs": [
        {
          "indexed": true,
          "internalType": "address",
          "name": "beacon",
          "type": "address"
        }
      ],
      "name": "BeaconUpgraded",
      "type": "event"
    },
    {
      "anonymous": false,
      "inputs": [
        {
          "indexed": true,
          "internalType": "uint256",
          "name": "saleId",
          "type": "uint256"
        },
        {
          "indexed": true,
          "internalType": "uint256",
          "name": "tokenId",
          "type": "uint256"
        },
        {
          "indexed": false,
          "internalType": "address",
          "name": "buyer",
          "type": "address"
        },
        {
          "indexed": false,
          "internalType": "uint256",
          "name": "amount",
          "type": "uint256"
        }
      ],
      "name": "BoughtFromSale",
      "type": "event"
    },
    {
      "anonymous": false,
      "inputs": [
        {
          "indexed": true,
          "internalType": "uint96",
          "name": "Commission",
          "type": "uint96"
        }
      ],
      "name": "CommissionUpdated",
      "type": "event"
    },
    {
      "anonymous": false,
      "inputs": [
        {
          "indexed": true,
          "internalType": "address",
          "name": "newEscrow",
          "type": "address"
        }
      ],
      "name": "EscrowUpdated",
      "type": "event"
    },
    {
      "anonymous": false,
      "inputs": [
        {
          "indexed": false,
          "internalType": "uint8",
          "name": "version",
          "type": "uint8"
        }
      ],
      "name": "Initialized",
      "type": "event"
    },
    {
      "anonymous": false,
      "inputs": [
        {
          "indexed": true,
          "internalType": "uint256",
          "name": "licenseId",
          "type": "uint256"
        },
        {
          "indexed": true,
          "internalType": "uint256",
          "name": "tokenId",
          "type": "uint256"
        },
        {
          "indexed": false,
          "internalType": "address",
          "name": "seller",
          "type": "address"
        },
        {
          "indexed": false,
          "internalType": "uint256",
          "name": "price",
          "type": "uint256"
        },
        {
          "indexed": true,
          "internalType": "uint256",
          "name": "listedAmount",
          "type": "uint256"
        }
      ],
      "name": "LicenseListed",
      "type": "event"
    },
    {
      "anonymous": false,
      "inputs": [
        {
          "indexed": false,
          "internalType": "uint256",
          "name": "licenseId",
          "type": "uint256"
        },
        {
          "indexed": true,
          "internalType": "uint256",
          "name": "tokenId",
          "type": "uint256"
        },
        {
          "indexed": true,
          "internalType": "address",
          "name": "seller",
          "type": "address"
        },
        {
          "indexed": true,
          "internalType": "address",
          "name": "buyer",
          "type": "address"
        },
        {
          "indexed": false,
          "internalType": "uint256",
          "name": "amount",
          "type": "uint256"
        },
        {
          "indexed": false,
          "internalType": "uint256",
          "name": "price",
          "type": "uint256"
        }
      ],
      "name": "LicenseSold",
      "type": "event"
    },
    {
      "anonymous": false,
      "inputs": [
        {
          "indexed": true,
          "internalType": "uint256",
          "name": "licenseId",
          "type": "uint256"
        },
        {
          "indexed": true,
          "internalType": "uint256",
          "name": "tokenId",
          "type": "uint256"
        },
        {
          "indexed": true,
          "internalType": "address",
          "name": "seller",
          "type": "address"
        },
        {
          "indexed": false,
          "internalType": "enum Types.ListedStatus",
          "name": "status",
          "type": "uint8"
        }
      ],
      "name": "ListedLicenseClosed",
      "type": "event"
    },
    {
      "anonymous": false,
      "inputs": [
        {
          "indexed": true,
          "internalType": "uint256",
          "name": "listingFee",
          "type": "uint256"
        }
      ],
      "name": "ListingFeeUpdated",
      "type": "event"
    },
    {
      "anonymous": false,
      "inputs": [
        {
          "indexed": true,
          "internalType": "uint256",
          "name": "maxSupply",
          "type": "uint256"
        }
      ],
      "name": "MaxSupply",
      "type": "event"
    },
    {
      "anonymous": false,
      "inputs": [
        {
          "indexed": false,
          "internalType": "address",
          "name": "account",
          "type": "address"
        }
      ],
      "name": "Paused",
      "type": "event"
    },
    {
      "anonymous": false,
      "inputs": [
        {
          "indexed": true,
          "internalType": "bytes32",
          "name": "role",
          "type": "bytes32"
        },
        {
          "indexed": true,
          "internalType": "bytes32",
          "name": "previousAdminRole",
          "type": "bytes32"
        },
        {
          "indexed": true,
          "internalType": "bytes32",
          "name": "newAdminRole",
          "type": "bytes32"
        }
      ],
      "name": "RoleAdminChanged",
      "type": "event"
    },
    {
      "anonymous": false,
      "inputs": [
        {
          "indexed": true,
          "internalType": "bytes32",
          "name": "role",
          "type": "bytes32"
        },
        {
          "indexed": true,
          "internalType": "address",
          "name": "account",
          "type": "address"
        },
        {
          "indexed": true,
          "internalType": "address",
          "name": "sender",
          "type": "address"
        }
      ],
      "name": "RoleGranted",
      "type": "event"
    },
    {
      "anonymous": false,
      "inputs": [
        {
          "indexed": true,
          "internalType": "bytes32",
          "name": "role",
          "type": "bytes32"
        },
        {
          "indexed": true,
          "internalType": "address",
          "name": "account",
          "type": "address"
        },
        {
          "indexed": true,
          "internalType": "address",
          "name": "sender",
          "type": "address"
        }
      ],
      "name": "RoleRevoked",
      "type": "event"
    },
    {
      "anonymous": false,
      "inputs": [
        {
          "indexed": true,
          "internalType": "uint256",
          "name": "saleId",
          "type": "uint256"
        }
      ],
      "name": "SaleActivated",
      "type": "event"
    },
    {
      "anonymous": false,
      "inputs": [
        {
          "indexed": true,
          "internalType": "uint256",
          "name": "saleId",
          "type": "uint256"
        }
      ],
      "name": "SaleClosed",
      "type": "event"
    },
    {
      "anonymous": false,
      "inputs": [
        {
          "indexed": true,
          "internalType": "address",
          "name": "representative",
          "type": "address"
        },
        {
          "indexed": true,
          "internalType": "uint256",
          "name": "saleId",
          "type": "uint256"
        },
        {
          "indexed": true,
          "internalType": "uint256",
          "name": "tokenId",
          "type": "uint256"
        }
      ],
      "name": "SaleCreated",
      "type": "event"
    },
    {
      "anonymous": false,
      "inputs": [
        {
          "indexed": true,
          "internalType": "address",
          "name": "newToken",
          "type": "address"
        }
      ],
      "name": "TokenUpdated",
      "type": "event"
    },
    {
      "anonymous": false,
      "inputs": [
        {
          "indexed": true,
          "internalType": "address",
          "name": "newTreasury",
          "type": "address"
        }
      ],
      "name": "TreasuryUpdated",
      "type": "event"
    },
    {
      "anonymous": false,
      "inputs": [
        {
          "indexed": false,
          "internalType": "address",
          "name": "account",
          "type": "address"
        }
      ],
      "name": "Unpaused",
      "type": "event"
    },
    {
      "anonymous": false,
      "inputs": [
        {
          "indexed": true,
          "internalType": "address",
          "name": "implementation",
          "type": "address"
        }
      ],
      "name": "Upgraded",
      "type": "event"
    },
    {
      "anonymous": false,
      "inputs": [
        {
          "indexed": true,
          "internalType": "address",
          "name": "user",
          "type": "address"
        }
      ],
      "name": "UserVerified",
      "type": "event"
    },
    {
      "inputs": [],
      "name": "COMMISSION_BP",
      "outputs": [
        {
          "internalType": "uint96",
          "name": "",
          "type": "uint96"
        }
      ],
      "stateMutability": "view",
      "type": "function"
    },
    {
      "inputs": [],
      "name": "DEFAULT_ADMIN_ROLE",
      "outputs": [
        {
          "internalType": "bytes32",
          "name": "",
          "type": "bytes32"
        }
      ],
      "stateMutability": "view",
      "type": "function"
    },
    {
      "inputs": [],
      "name": "LISTING_FEE",
      "outputs": [
        {
          "internalType": "uint256",
          "name": "",
          "type": "uint256"
        }
      ],
      "stateMutability": "view",
      "type": "function"
    },
    {
      "inputs": [
        {
          "internalType": "address",
          "name": "admin",
          "type": "address"
        },
        {
          "internalType": "address",
          "name": "verifier",
          "type": "address"
        },
        {
          "internalType": "uint256",
          "name": "listingFee",
          "type": "uint256"
        },
        {
          "internalType": "address",
          "name": "hilo",
          "type": "address"
        },
        {
          "internalType": "address",
          "name": "treasury",
          "type": "address"
        },
        {
          "internalType": "address",
          "name": "escrowSales",
          "type": "address"
        },
        {
          "internalType": "address",
          "name": "escrowListed",
          "type": "address"
        },
        {
          "internalType": "uint96",
          "name": "commissionBp",
          "type": "uint96"
        }
      ],
      "name": "__HeirloomMarketplace_init",
      "outputs": [],
      "stateMutability": "nonpayable",
      "type": "function"
    },
    {
      "inputs": [],
      "name": "_end",
      "outputs": [
        {
          "internalType": "uint256",
          "name": "",
          "type": "uint256"
        }
      ],
      "stateMutability": "view",
      "type": "function"
    },
    {
      "inputs": [],
      "name": "_licenseProvider",
      "outputs": [
        {
          "internalType": "address",
          "name": "",
          "type": "address"
        }
      ],
      "stateMutability": "view",
      "type": "function"
    },
    {
      "inputs": [],
      "name": "_price",
      "outputs": [
        {
          "internalType": "uint256",
          "name": "",
          "type": "uint256"
        }
      ],
      "stateMutability": "view",
      "type": "function"
    },
    {
      "inputs": [],
      "name": "_rbp",
      "outputs": [
        {
          "internalType": "uint96",
          "name": "",
          "type": "uint96"
        }
      ],
      "stateMutability": "view",
      "type": "function"
    },
    {
      "inputs": [],
      "name": "_start",
      "outputs": [
        {
          "internalType": "uint256",
          "name": "",
          "type": "uint256"
        }
      ],
      "stateMutability": "view",
      "type": "function"
    },
    {
      "inputs": [
        {
          "internalType": "uint256",
          "name": "saleId",
          "type": "uint256"
        }
      ],
      "name": "activateFutureSale",
      "outputs": [],
      "stateMutability": "nonpayable",
      "type": "function"
    },
    {
      "inputs": [
        {
          "internalType": "uint256",
          "name": "saleId",
          "type": "uint256"
        }
      ],
      "name": "closeSaleOnDeadline",
      "outputs": [],
      "stateMutability": "nonpayable",
      "type": "function"
    },
    {
      "inputs": [],
      "name": "fetchActiveSales",
      "outputs": [
        {
          "components": [
            {
              "internalType": "uint256",
              "name": "saleId",
              "type": "uint256"
            },
            {
              "internalType": "address",
              "name": "licenseProvider",
              "type": "address"
            },
            {
              "internalType": "address",
              "name": "representative",
              "type": "address"
            },
            {
              "internalType": "uint256",
              "name": "tokenId",
              "type": "uint256"
            },
            {
              "internalType": "address",
              "name": "nftContract",
              "type": "address"
            },
            {
              "internalType": "address",
              "name": "refferer",
              "type": "address"
            },
            {
              "internalType": "uint256",
              "name": "soldLicenses",
              "type": "uint256"
            },
            {
              "internalType": "uint256",
              "name": "maxSupply",
              "type": "uint256"
            },
            {
              "internalType": "uint256",
              "name": "start",
              "type": "uint256"
            },
            {
              "internalType": "uint256",
              "name": "end",
              "type": "uint256"
            },
            {
              "internalType": "uint256",
              "name": "price",
              "type": "uint256"
            },
            {
              "internalType": "bool",
              "name": "active",
              "type": "bool"
            },
            {
              "internalType": "bool",
              "name": "isFuture",
              "type": "bool"
            }
          ],
          "internalType": "struct Types.SaleItem[]",
          "name": "",
          "type": "tuple[]"
        }
      ],
      "stateMutability": "view",
      "type": "function"
    },
    {
      "inputs": [
        {
          "internalType": "uint256",
          "name": "licenseId",
          "type": "uint256"
        }
      ],
      "name": "fetchLicense",
      "outputs": [
        {
          "components": [
            {
              "internalType": "uint256",
              "name": "tokenId",
              "type": "uint256"
            },
            {
              "internalType": "uint256",
              "name": "licenseId",
              "type": "uint256"
            },
            {
              "internalType": "address",
              "name": "nftContract",
              "type": "address"
            },
            {
              "internalType": "address",
              "name": "seller",
              "type": "address"
            },
            {
              "internalType": "uint256",
              "name": "price",
              "type": "uint256"
            },
            {
              "internalType": "uint256",
              "name": "listedAmount",
              "type": "uint256"
            },
            {
              "internalType": "uint256",
              "name": "sold",
              "type": "uint256"
            },
            {
              "internalType": "enum Types.ListedStatus",
              "name": "status",
              "type": "uint8"
            }
          ],
          "internalType": "struct Types.LicenseItem",
          "name": "",
          "type": "tuple"
        }
      ],
      "stateMutability": "view",
      "type": "function"
    },
    {
      "inputs": [],
      "name": "fetchListedLicenses",
      "outputs": [
        {
          "components": [
            {
              "internalType": "uint256",
              "name": "tokenId",
              "type": "uint256"
            },
            {
              "internalType": "uint256",
              "name": "licenseId",
              "type": "uint256"
            },
            {
              "internalType": "address",
              "name": "nftContract",
              "type": "address"
            },
            {
              "internalType": "address",
              "name": "seller",
              "type": "address"
            },
            {
              "internalType": "uint256",
              "name": "price",
              "type": "uint256"
            },
            {
              "internalType": "uint256",
              "name": "listedAmount",
              "type": "uint256"
            },
            {
              "internalType": "uint256",
              "name": "sold",
              "type": "uint256"
            },
            {
              "internalType": "enum Types.ListedStatus",
              "name": "status",
              "type": "uint8"
            }
          ],
          "internalType": "struct Types.LicenseItem[]",
          "name": "",
          "type": "tuple[]"
        }
      ],
      "stateMutability": "view",
      "type": "function"
    },
    {
      "inputs": [
        {
          "internalType": "uint256",
          "name": "saleId",
          "type": "uint256"
        }
      ],
      "name": "fetchSale",
      "outputs": [
        {
          "components": [
            {
              "internalType": "uint256",
              "name": "saleId",
              "type": "uint256"
            },
            {
              "internalType": "address",
              "name": "licenseProvider",
              "type": "address"
            },
            {
              "internalType": "address",
              "name": "representative",
              "type": "address"
            },
            {
              "internalType": "uint256",
              "name": "tokenId",
              "type": "uint256"
            },
            {
              "internalType": "address",
              "name": "nftContract",
              "type": "address"
            },
            {
              "internalType": "address",
              "name": "refferer",
              "type": "address"
            },
            {
              "internalType": "uint256",
              "name": "soldLicenses",
              "type": "uint256"
            },
            {
              "internalType": "uint256",
              "name": "maxSupply",
              "type": "uint256"
            },
            {
              "internalType": "uint256",
              "name": "start",
              "type": "uint256"
            },
            {
              "internalType": "uint256",
              "name": "end",
              "type": "uint256"
            },
            {
              "internalType": "uint256",
              "name": "price",
              "type": "uint256"
            },
            {
              "internalType": "bool",
              "name": "active",
              "type": "bool"
            },
            {
              "internalType": "bool",
              "name": "isFuture",
              "type": "bool"
            }
          ],
          "internalType": "struct Types.SaleItem",
          "name": "",
          "type": "tuple"
        }
      ],
      "stateMutability": "view",
      "type": "function"
    },
    {
      "inputs": [
        {
          "internalType": "uint256",
          "name": "saleId",
          "type": "uint256"
        }
      ],
      "name": "forceCloseSale",
      "outputs": [],
      "stateMutability": "nonpayable",
      "type": "function"
    },
    {
      "inputs": [
        {
          "internalType": "bytes32",
          "name": "role",
          "type": "bytes32"
        }
      ],
      "name": "getRoleAdmin",
      "outputs": [
        {
          "internalType": "bytes32",
          "name": "",
          "type": "bytes32"
        }
      ],
      "stateMutability": "view",
      "type": "function"
    },
    {
      "inputs": [
        {
          "internalType": "bytes32",
          "name": "role",
          "type": "bytes32"
        },
        {
          "internalType": "address",
          "name": "account",
          "type": "address"
        }
      ],
      "name": "grantRole",
      "outputs": [],
      "stateMutability": "nonpayable",
      "type": "function"
    },
    {
      "inputs": [
        {
          "internalType": "bytes32",
          "name": "role",
          "type": "bytes32"
        },
        {
          "internalType": "address",
          "name": "account",
          "type": "address"
        }
      ],
      "name": "hasRole",
      "outputs": [
        {
          "internalType": "bool",
          "name": "",
          "type": "bool"
        }
      ],
      "stateMutability": "view",
      "type": "function"
    },
    {
      "inputs": [
        {
          "internalType": "address",
          "name": "user",
          "type": "address"
        }
      ],
      "name": "isUserVerified",
      "outputs": [
        {
          "internalType": "bool",
          "name": "",
          "type": "bool"
        }
      ],
      "stateMutability": "view",
      "type": "function"
    },
    {
      "inputs": [
        {
          "internalType": "address",
          "name": "nftContract",
          "type": "address"
        },
        {
          "internalType": "uint256",
          "name": "tokenId",
          "type": "uint256"
        },
        {
          "internalType": "uint256",
          "name": "price",
          "type": "uint256"
        },
        {
          "internalType": "uint256",
          "name": "amount",
          "type": "uint256"
        }
      ],
      "name": "listLicense",
      "outputs": [],
      "stateMutability": "payable",
      "type": "function"
    },
    {
      "inputs": [],
      "name": "nftContractAddress",
      "outputs": [
        {
          "internalType": "address",
          "name": "",
          "type": "address"
        }
      ],
      "stateMutability": "view",
      "type": "function"
    },
    {
      "inputs": [
        {
          "internalType": "uint256",
          "name": "saleId",
          "type": "uint256"
        },
        {
          "internalType": "uint256",
          "name": "amount",
          "type": "uint256"
        }
      ],
      "name": "participate",
      "outputs": [],
      "stateMutability": "payable",
      "type": "function"
    },
    {
      "inputs": [],
      "name": "pause",
      "outputs": [],
      "stateMutability": "nonpayable",
      "type": "function"
    },
    {
      "inputs": [],
      "name": "paused",
      "outputs": [
        {
          "internalType": "bool",
          "name": "",
          "type": "bool"
        }
      ],
      "stateMutability": "view",
      "type": "function"
    },
    {
      "inputs": [],
      "name": "proxiableUUID",
      "outputs": [
        {
          "internalType": "bytes32",
          "name": "",
          "type": "bytes32"
        }
      ],
      "stateMutability": "view",
      "type": "function"
    },
    {
      "inputs": [
        {
          "internalType": "uint256",
          "name": "licenseId",
          "type": "uint256"
        },
        {
          "internalType": "uint256",
          "name": "amount",
          "type": "uint256"
        }
      ],
      "name": "purchaseLicense",
      "outputs": [],
      "stateMutability": "payable",
      "type": "function"
    },
    {
      "inputs": [],
      "name": "ref",
      "outputs": [
        {
          "internalType": "address",
          "name": "",
          "type": "address"
        }
      ],
      "stateMutability": "view",
      "type": "function"
    },
    {
      "inputs": [
        {
          "internalType": "bytes32",
          "name": "role",
          "type": "bytes32"
        },
        {
          "internalType": "address",
          "name": "account",
          "type": "address"
        }
      ],
      "name": "renounceRole",
      "outputs": [],
      "stateMutability": "nonpayable",
      "type": "function"
    },
    {
      "inputs": [
        {
          "internalType": "bytes32",
          "name": "role",
          "type": "bytes32"
        },
        {
          "internalType": "address",
          "name": "account",
          "type": "address"
        }
      ],
      "name": "revokeRole",
      "outputs": [],
      "stateMutability": "nonpayable",
      "type": "function"
    },
    {
      "inputs": [
        {
          "internalType": "uint96",
          "name": "newBP",
          "type": "uint96"
        }
      ],
      "name": "setCommissionRBP",
      "outputs": [],
      "stateMutability": "nonpayable",
      "type": "function"
    },
    {
      "inputs": [
        {
          "internalType": "uint256",
          "name": "newListingFee",
          "type": "uint256"
        }
      ],
      "name": "setListingFee",
      "outputs": [],
      "stateMutability": "nonpayable",
      "type": "function"
    },
    {
      "inputs": [
        {
          "internalType": "bytes4",
          "name": "interfaceId",
          "type": "bytes4"
        }
      ],
      "name": "supportsInterface",
      "outputs": [
        {
          "internalType": "bool",
          "name": "",
          "type": "bool"
        }
      ],
      "stateMutability": "view",
      "type": "function"
    },
    {
      "inputs": [],
      "name": "unpause",
      "outputs": [],
      "stateMutability": "nonpayable",
      "type": "function"
    },
    {
      "inputs": [
        {
          "internalType": "address",
          "name": "newEscrow",
          "type": "address"
        }
      ],
      "name": "updateEscrowListed",
      "outputs": [
        {
          "internalType": "address",
          "name": "",
          "type": "address"
        }
      ],
      "stateMutability": "nonpayable",
      "type": "function"
    },
    {
      "inputs": [
        {
          "internalType": "address",
          "name": "newEscrow",
          "type": "address"
        }
      ],
      "name": "updateEscrowSales",
      "outputs": [
        {
          "internalType": "address",
          "name": "",
          "type": "address"
        }
      ],
      "stateMutability": "nonpayable",
      "type": "function"
    },
    {
      "inputs": [
        {
          "internalType": "address",
          "name": "newTreasury",
          "type": "address"
        }
      ],
      "name": "updateTreasury",
      "outputs": [
        {
          "internalType": "address",
          "name": "",
          "type": "address"
        }
      ],
      "stateMutability": "nonpayable",
      "type": "function"
    },
    {
      "inputs": [
        {
          "internalType": "address",
          "name": "newImplementation",
          "type": "address"
        }
      ],
      "name": "upgradeTo",
      "outputs": [],
      "stateMutability": "nonpayable",
      "type": "function"
    },
    {
      "inputs": [
        {
          "internalType": "address",
          "name": "newImplementation",
          "type": "address"
        },
        {
          "internalType": "bytes",
          "name": "data",
          "type": "bytes"
        }
      ],
      "name": "upgradeToAndCall",
      "outputs": [],
      "stateMutability": "payable",
      "type": "function"
    },
    {
      "inputs": [
        {
          "internalType": "address",
          "name": "nftContract",
          "type": "address"
        },
        {
          "internalType": "uint256",
          "name": "maxSupply",
          "type": "uint256"
        },
        {
          "internalType": "address",
          "name": "licenseProvider",
          "type": "address"
        },
        {
          "internalType": "address",
          "name": "refferer",
          "type": "address"
        },
        {
          "internalType": "uint256",
          "name": "start",
          "type": "uint256"
        },
        {
          "internalType": "uint256",
          "name": "end",
          "type": "uint256"
        },
        {
          "internalType": "uint256",
          "name": "price",
          "type": "uint256"
        },
        {
          "internalType": "uint96",
          "name": "rbp",
          "type": "uint96"
        }
      ],
      "name": "createSale",
      "outputs": [],
      "stateMutability": "nonpayable",
      "type": "function"
    },
    {
      "inputs": [
        {
          "internalType": "address",
          "name": "user",
          "type": "address"
        }
      ],
      "name": "verifyUser",
      "outputs": [],
      "stateMutability": "nonpayable",
      "type": "function"
    }
  ],
  "bytecode": "0x60a06040523060805234801561001457600080fd5b506080516144c261004c60003960008181611722015281816117a701528181611934015281816119b90152611a9f01526144c26000f3fe6080604052600436106102565760003560e01c80635d79ec9e11610149578063ace417e0116100c6578063c75a3da91161008a578063d663da0311610064578063d663da031461075a578063e5c542bf1461077a578063ecb23be61461078d57600080fd5b8063c75a3da9146106ed578063d53e5ce01461071a578063d547741f1461073a57600080fd5b8063ace417e01461060d578063b4f3514814610646578063c2b1c4111461067e578063c5401d6f1461069e578063c703a6cd146106cb57600080fd5b80637f51bb1f1161010d5780637f51bb1f1461055d5780638456cb591461057d57806391d1485414610592578063a217fddf146105d8578063aae282e1146105ed57600080fd5b80635d79ec9e146104bb5780636e1c8181146104db57806372ff91b3146104fd5780637802bd431461051d5780637e3822571461053d57600080fd5b806334afd755116101d75780634d8131201161019b5780634d813120146104455780634f1ef2861461046557806352d1902d1461047857806353ef67811461048d5780635c975abb146104a357600080fd5b806334afd755146103ba57806336568abe146103da5780633659cfe6146103fa5780633c20ee6e1461041a5780633f4ba83a1461043057600080fd5b806321a78f681161021e57806321a78f68146102f8578063235b6ea114610330578063248a9ca3146103545780632b86ae38146103845780632f2ff15d1461039a57600080fd5b8063018e08381461025b57806301ffc9a71461027d57806310e52a3a146102b2578063129874aa146102c5578063131dbd09146102d8575b600080fd5b34801561026757600080fd5b5061027b610276366004613bcd565b6107ad565b005b34801561028957600080fd5b5061029d610298366004613be6565b61092a565b60405190151581526020015b60405180910390f35b61027b6102c0366004613c10565b610961565b61027b6102d3366004613c10565b610fef565b3480156102e457600080fd5b5061027b6102f3366004613bcd565b61151f565b34801561030457600080fd5b5060d854610318906001600160a01b031681565b6040516001600160a01b0390911681526020016102a9565b34801561033c57600080fd5b5061034660db5481565b6040519081526020016102a9565b34801561036057600080fd5b5061034661036f366004613bcd565b60009081526072602052604090206001015490565b34801561039057600080fd5b5061034660005481565b3480156103a657600080fd5b5061027b6103b5366004613c47565b6115b1565b3480156103c657600080fd5b5061027b6103d5366004613c8c565b6115db565b3480156103e657600080fd5b5061027b6103f5366004613c47565b61168c565b34801561040657600080fd5b5061027b610415366004613ca9565b611718565b34801561042657600080fd5b5061034660da5481565b34801561043c57600080fd5b5061027b611893565b34801561045157600080fd5b5061027b610460366004613ca9565b6118c5565b61027b610473366004613d36565b61192a565b34801561048457600080fd5b50610346611a92565b34801561049957600080fd5b5061034660d95481565b3480156104af57600080fd5b5060a45460ff1661029d565b3480156104c757600080fd5b506103186104d6366004613ca9565b611b57565b3480156104e757600080fd5b506104f0611c08565b6040516102a99190613ead565b34801561050957600080fd5b5061027b610518366004613bcd565b611ddf565b34801561052957600080fd5b5061027b610538366004613bcd565b611f37565b34801561054957600080fd5b5061027b610558366004613efc565b61216b565b34801561056957600080fd5b50610318610578366004613ca9565b612346565b34801561058957600080fd5b5061027b6123f7565b34801561059e57600080fd5b5061029d6105ad366004613c47565b60009182526072602090815260408084206001600160a01b0393909316845291905290205460ff1690565b3480156105e457600080fd5b50610346600081565b3480156105f957600080fd5b5060d654610318906001600160a01b031681565b34801561061957600080fd5b5061029d610628366004613ca9565b6001600160a01b03166000908152600a602052604090205460ff1690565b34801561065257600080fd5b50600154610666906001600160601b031681565b6040516001600160601b0390911681526020016102a9565b34801561068a57600080fd5b5060dc54610666906001600160601b031681565b3480156106aa57600080fd5b506106be6106b9366004613bcd565b612429565b6040516102a99190613f9c565b3480156106d757600080fd5b506106e06124f1565b6040516102a99190614044565b3480156106f957600080fd5b5061070d610708366004613bcd565b6126a4565b6040516102a99190614087565b34801561072657600080fd5b5060d754610318906001600160a01b031681565b34801561074657600080fd5b5061027b610755366004613c47565b612753565b34801561076657600080fd5b5061027b610775366004614096565b612778565b61027b61078836600461410a565b612833565b34801561079957600080fd5b506103186107a8366004613ca9565b612d52565b6000818152600b602081905260409091200154819060ff6101009091041615156001146108335760405162461bcd60e51b815260206004820152602960248201527f486569726c6f6f6d204d61726b6574706c6163653a206d757374206265206675604482015268747572652073616c6560b81b60648201526084015b60405180910390fd5b6000818152600b60205260409020600801544210156108ba5760405162461bcd60e51b815260206004820152603060248201527f486569726c6f6f6d204d61726b6574706c6163653a207374617274206461746560448201527f206e6f7420726561636865642079657400000000000000000000000000000000606482015260840161082a565b6000805160206144468339815191526108d281612e03565b6000838152600b6020819052604090912001805461ffff191660011790556108fa6009612e0d565b60405183907f702ce4efe1de6302f5db4be4e00221938bf7d564452733ed1017feb52e979dd790600090a2505050565b60006001600160e01b03198216637965db0b60e01b148061095b57506301ffc9a760e01b6001600160e01b03198316145b92915050565b6000828152600c602052604090206004015461097d908261415b565b803410156109e45760405162461bcd60e51b815260206004820152602e60248201527f486569726c6f6f6d204d61726b6574706c6163653a20496e636f72726563742060448201526d1c185e5b595b9d08185b5bdd5b9d60921b606482015260840161082a565b60a45460ff1615610a2a5760405162461bcd60e51b815260206004820152601060248201526f14185d5cd8589b194e881c185d5cd95960821b604482015260640161082a565b6000838152600c602052604081206007015460ff166001811115610a5057610a50613fab565b14610aac5760405162461bcd60e51b815260206004820152602660248201527f486569726c6f6f6d204d61726b6574706c6163653a206974656d20697320756e6044820152651b1a5cdd195960d21b606482015260840161082a565b6000838152600c602052604090206005810154600690910154610ad090849061417a565b1115610b445760405162461bcd60e51b815260206004820152603b60248201527f486569726c6f6f6d204d61726b6574706c6163653a20616d6f756e742063616e60448201527f6e6f7420737570657263656465206c697374656420616d6f756e740000000000606482015260840161082a565b6000838152600c60209081526040808320815161010081018352815481526001808301549482019490945260028201546001600160a01b03908116938201939093526003820154909216606083015260048101546080830152600581015460a0830152600681015460c083015260078101549192909160e084019160ff90911690811115610bd457610bd4613fab565b6001811115610be557610be5613fab565b90525060408082015182519151632e48829d60e21b815260048101929092529192506000916001600160a01b03169063b9220a7490602401600060405180830381865afa158015610c3a573d6000803e3d6000fd5b505050506040513d6000823e601f3d908101601f19168201604052610c629190810190614192565b90506000848360800151610c76919061415b565b905060006127108284600081518110610c9157610c91614281565b6020026020010151604001516001600160601b0316610cb0919061415b565b610cba9190614297565b6003549091506001600160a01b03166333bb7f91610cd883856142b9565b60608701516040516001600160e01b031960e085901b1681526001600160a01b0390911660048201526024016000604051808303818588803b158015610d1d57600080fd5b505af1158015610d31573d6000803e3d6000fd5b505060025486516001600160a01b0390911693506333bb7f9192508491508690600090610d6057610d60614281565b6020908102919091010151516040516001600160e01b031960e085901b1681526001600160a01b0390911660048201526024016000604051808303818588803b158015610dac57600080fd5b505af1158015610dc0573d6000803e3d6000fd5b505050505083604001516001600160a01b031663f242432a8560600151610de43390565b875160405160e085901b6001600160e01b03191681526001600160a01b03938416600482015292909116602483015260448201526064810189905260a06084820152600060a482015260c401600060405180830381600087803b158015610e4a57600080fd5b505af1158015610e5e573d6000803e3d6000fd5b50505050610e693390565b6001600160a01b031684606001516001600160a01b031685600001517f310fa35a97953eb1ad1a08f772c9bacdcc6d6eccc4c4340fa099e9d563f1b80a8a8a8960800151604051610ecd939291909283526020830191909152604082015260600190565b60405180910390a4858460c001818151610ee7919061417a565b90525060a084015160c085015103610fe657610f07600880546001019055565b6040848101516000898152600c60205282902060030154915163f329f06160e01b81526001600160a01b03928316600482015291169063f329f06190602401600060405180830381600087803b158015610f6057600080fd5b505af1158015610f74573d6000803e3d6000fd5b5050506000888152600c6020526040902060070180546001925060ff19168280021790555083606001516001600160a01b03168460000151887fc2fee623f95008bb6f752e72e5b825d18519f958fd686c5b9f872e3e6c2f89ba6001604051610fdd91906142d0565b60405180910390a45b50505050505050565b6000828152600b60205260409020600a015461100b908261415b565b803410156110725760405162461bcd60e51b815260206004820152602e60248201527f486569726c6f6f6d204d61726b6574706c6163653a20496e636f72726563742060448201526d1c185e5b595b9d08185b5bdd5b9d60921b606482015260840161082a565b6000838152600b602081905260409091200154839060ff16151560011480156110b357506000818152600b602081905260409091200154610100900460ff16155b61110b5760405162461bcd60e51b815260206004820152602360248201527f486569726c6f6f6d204d61726b6574706c6163653a20696e6163746976652073604482015262616c6560e81b606482015260840161082a565b6000818152600b602052604090206009015442106111775760405162461bcd60e51b815260206004820152602360248201527f486569726c6f6f6d204d61726b6574706c6163653a20696e6163746976652073604482015262616c6560e81b606482015260840161082a565b60a45460ff16156111bd5760405162461bcd60e51b815260206004820152601060248201526f14185d5cd8589b194e881c185d5cd95960821b604482015260640161082a565b6000848152600b6020526040902060078101546006909101546111e190859061417a565b11156112555760405162461bcd60e51b815260206004820152603860248201527f486569726c6f6f6d204d61726b6574706c6163653a20616d6f756e742063616e60448201527f6e6f7420737570657263656465206d617820737570706c790000000000000000606482015260840161082a565b6000848152600b60205260408120600601805485929061127690849061417a565b90915550506000848152600b602052604081206004810154600a909101546001600160a01b0390911691906112ab908661415b565b600154909150600090612710906112cc9084906001600160601b031661415b565b6112d69190614297565b6002549091506001600160a01b03166333bb7f916112f483856142b9565b60008a8152600b60205260409081902060020154905160e084901b6001600160e01b03191681526001600160a01b0390911660048201526024016000604051808303818588803b15801561134757600080fd5b505af115801561135b573d6000803e3d6000fd5b505060045461137893506001600160a01b03169150839050612e64565b6000878152600b602052604080822060018101546003909101548251637921219560e11b81526001600160a01b0392831660048201523360248201526044810191909152606481018a905260a0608482015260a4810184905291519086169263f242432a9260c4808201939182900301818387803b1580156113f957600080fd5b505af115801561140d573d6000803e3d6000fd5b5050506000888152600b60205260409020600301549050877f5a9c9fcfe7b05adffc62900a02abd1b27a29fea7b21da7470fa30a986aa9646333604080516001600160a01b039092168252602082018b90520160405180910390a36000878152600b60205260409020600481015460078201546006909201546001600160a01b03909116919003611515576000888152600b6020819052604091829020908101805460ff1916905560010154905163f329f06160e01b81526001600160a01b0391821660048201529082169063f329f06190602401600060405180830381600087803b1580156114fc57600080fd5b505af1158015611510573d6000803e3d6000fd5b505050505b5050505050505050565b60008051602061444683398151915261153781612e03565b60a45460ff166115805760405162461bcd60e51b815260206004820152601460248201527314185d5cd8589b194e881b9bdd081c185d5cd95960621b604482015260640161082a565b600082815560405183917f5fb4654f1efe30c6141eaa6855ffcb27e0b361d899b05e21b1a4d0b3e71e14db91a25050565b6000828152607260205260409020600101546115cc81612e03565b6115d68383612f7d565b505050565b6000805160206144468339815191526115f381612e03565b60a45460ff1661163c5760405162461bcd60e51b815260206004820152601460248201527314185d5cd8589b194e881b9bdd081c185d5cd95960621b604482015260640161082a565b600180546bffffffffffffffffffffffff19166001600160601b0384169081179091556040517ff5f1dd947374c8610b1ff75330ed07a764589f544dc382c6df7b823a28bb740d90600090a25050565b6001600160a01b038116331461170a5760405162461bcd60e51b815260206004820152602f60248201527f416363657373436f6e74726f6c3a2063616e206f6e6c792072656e6f756e636560448201527f20726f6c657320666f722073656c660000000000000000000000000000000000606482015260840161082a565b611714828261301f565b5050565b6001600160a01b037f00000000000000000000000000000000000000000000000000000000000000001630036117a55760405162461bcd60e51b815260206004820152602c60248201527f46756e6374696f6e206d7573742062652063616c6c6564207468726f7567682060448201526b19195b1959d85d1958d85b1b60a21b606482015260840161082a565b7f00000000000000000000000000000000000000000000000000000000000000006001600160a01b03166118007f360894a13ba1a3210667c828492db98dca3e2076cc3735a920a3ca505d382bbc546001600160a01b031690565b6001600160a01b03161461186b5760405162461bcd60e51b815260206004820152602c60248201527f46756e6374696f6e206d7573742062652063616c6c6564207468726f7567682060448201526b6163746976652070726f787960a01b606482015260840161082a565b611874816130a2565b6040805160008082526020820190925261189091839190613103565b50565b7fad0f4d923b26df99ed90553d189d268443625c1ce82a268b2504301f2900d2686118bd81612e03565b61189061328f565b6000805160206144468339815191526118dd81612e03565b6001600160a01b0382166000818152600a6020526040808220805460ff19166001179055517fa6625d2d26e786e2f473111bea4b2fcdbbf1863d883a2359989ce3a103d2972a9190a25050565b6001600160a01b037f00000000000000000000000000000000000000000000000000000000000000001630036119b75760405162461bcd60e51b815260206004820152602c60248201527f46756e6374696f6e206d7573742062652063616c6c6564207468726f7567682060448201526b19195b1959d85d1958d85b1b60a21b606482015260840161082a565b7f00000000000000000000000000000000000000000000000000000000000000006001600160a01b0316611a127f360894a13ba1a3210667c828492db98dca3e2076cc3735a920a3ca505d382bbc546001600160a01b031690565b6001600160a01b031614611a7d5760405162461bcd60e51b815260206004820152602c60248201527f46756e6374696f6e206d7573742062652063616c6c6564207468726f7567682060448201526b6163746976652070726f787960a01b606482015260840161082a565b611a86826130a2565b61171482826001613103565b6000306001600160a01b037f00000000000000000000000000000000000000000000000000000000000000001614611b325760405162461bcd60e51b815260206004820152603860248201527f555550535570677261646561626c653a206d757374206e6f742062652063616c60448201527f6c6564207468726f7567682064656c656761746563616c6c0000000000000000606482015260840161082a565b507f360894a13ba1a3210667c828492db98dca3e2076cc3735a920a3ca505d382bbc90565b6000600080516020614446833981519152611b7181612e03565b60a45460ff16611bba5760405162461bcd60e51b815260206004820152601460248201527314185d5cd8589b194e881b9bdd081c185d5cd95960621b604482015260640161082a565b600380546001600160a01b0319166001600160a01b0385169081179091556040517f43ab431641dd45dd0661cad4b820e826d7c526af92e3121e1242d721f82ab3ad90600090a25090919050565b60606000611c1560095490565b600654600554611c2591906142b9565b611c2f91906142b9565b905060008167ffffffffffffffff811115611c4c57611c4c613cc6565b604051908082528060200260200182016040528015611c8557816020015b611c72613ad6565b815260200190600190039081611c6a5790505b5090506000805b600554811015611dd657600b6000611ca583600161417a565b81526020810191909152604001600020600b015460ff161515600103611dc457600b6000611cd483600161417a565b8152602080820192909252604090810160002081516101a0810183528154815260018201546001600160a01b0390811694820194909452600282015484169281019290925260038101546060830152600481015483166080830152600581015490921660a0820152600682015460c0820152600782015460e08201526008820154610100808301919091526009830154610120830152600a830154610140830152600b9092015460ff808216151561016084015292900490911615156101808201528351849084908110611daa57611daa614281565b60200260200101819052508180611dc0906142de565b9250505b80611dce816142de565b915050611c8c565b50909392505050565b6000818152600b60205260409020600901548190421015611e4c5760405162461bcd60e51b815260206004820152602160248201527f486569726c6f6f6d204d61726b6574706c6163653a206163746976652073616c6044820152606560f81b606482015260840161082a565b600080516020614446833981519152611e6481612e03565b6000838152600b6020819052604090912001805460ff19169055611e8c600680546001019055565b6000838152600b602052604090819020600480820154600190920154925163f329f06160e01b81526001600160a01b0393841691810191909152911690819063f329f06190602401600060405180830381600087803b158015611eee57600080fd5b505af1158015611f02573d6000803e3d6000fd5b50506040518692507fcb67f20f64495b30f15524c55f90201dd6571d6b5c19dac183d2aeb25315b2dc9150600090a250505050565b6000818152600b602081905260409091200154819060ff1615156001148015611f7857506000818152600b602081905260409091200154610100900460ff16155b611fd05760405162461bcd60e51b815260206004820152602360248201527f486569726c6f6f6d204d61726b6574706c6163653a20696e6163746976652073604482015262616c6560e81b606482015260840161082a565b6000818152600b6020526040902060090154421061203c5760405162461bcd60e51b815260206004820152602360248201527f486569726c6f6f6d204d61726b6574706c6163653a20696e6163746976652073604482015262616c6560e81b606482015260840161082a565b6000828152600b602052604090206002015482906001600160a01b031633146120cd5760405162461bcd60e51b815260206004820152603460248201527f486569726c6f6f6d204d61726b6574706c6163653a2063616c6c65722069732060448201527f6e6f74206c6963656e73652070726f7669646572000000000000000000000000606482015260840161082a565b60a45460ff16156121135760405162461bcd60e51b815260206004820152601060248201526f14185d5cd8589b194e881c185d5cd95960821b604482015260640161082a565b6000838152600b6020819052604090912001805460ff1916905561213b600680546001019055565b60405183907fcb67f20f64495b30f15524c55f90201dd6571d6b5c19dac183d2aeb25315b2dc90600090a2505050565b60006121776001613322565b9050801561218f57600d805461ff0019166101001790555b61219761343a565b61219f6134a7565b6121b76000805160206144468339815191528a612f7d565b6121cf6000805160206144468339815191528061351a565b6121f97fad0f4d923b26df99ed90553d189d268443625c1ce82a268b2504301f2900d2688a612f7d565b6122317fad0f4d923b26df99ed90553d189d268443625c1ce82a268b2504301f2900d26860008051602061444683398151915261351a565b61225b7f7c4810100a616950c6d7d045cd34f179b45ac929ba64a1e480d0e948fce91daf89612f7d565b6122937f7c4810100a616950c6d7d045cd34f179b45ac929ba64a1e480d0e948fce91daf60008051602061444683398151915261351a565b60008790556001600160a01b038087166c01000000000000000000000000026001600160601b03841617600155600280548683166001600160a01b031991821617909155600380548684169083161790556004805492881692909116919091179055801561233b57600d805461ff0019169055604051600181527f7f26b83ff96e1f2b6a682f133852f6798a09c465da95921460cefb38474024989060200160405180910390a15b505050505050505050565b600060008051602061444683398151915261236081612e03565b60a45460ff166123a95760405162461bcd60e51b815260206004820152601460248201527314185d5cd8589b194e881b9bdd081c185d5cd95960621b604482015260640161082a565b600480546001600160a01b0319166001600160a01b0385169081179091556040517f7dae230f18360d76a040c81f050aa14eb9d6dc7901b20fc5d855e2a20fe814d190600090a25090919050565b7fad0f4d923b26df99ed90553d189d268443625c1ce82a268b2504301f2900d26861242181612e03565b611890613565565b612431613ad6565b506000908152600b602081815260409283902083516101a0810185528154815260018201546001600160a01b0390811693820193909352600282015483169481019490945260038101546060850152600481015482166080850152600581015490911660a0840152600681015460c0840152600781015460e08401526008810154610100808501919091526009820154610120850152600a82015461014085015291015460ff808216151561016085015291900416151561018082015290565b606060006124fe60085490565b60075461250b91906142b9565b905060008167ffffffffffffffff81111561252857612528613cc6565b60405190808252806020026020018201604052801561256157816020015b61254e613b66565b8152602001906001900390816125465790505b5090506000805b600754811015611dd6576000600c600061258384600161417a565b815260208101919091526040016000206007015460ff1660018111156125ab576125ab613fab565b0361269257600c60006125bf83600161417a565b81526020808201929092526040908101600020815161010081018352815481526001808301549482019490945260028201546001600160a01b03908116938201939093526003820154909216606083015260048101546080830152600581015460a0830152600681015460c083015260078101549192909160e084019160ff9091169081111561265157612651613fab565b600181111561266257612662613fab565b8152505083838151811061267857612678614281565b6020026020010181905250818061268e906142de565b9250505b8061269c816142de565b915050612568565b6126ac613b66565b6000828152600c6020908152604091829020825161010081018452815481526001808301549382019390935260028201546001600160a01b03908116948201949094526003820154909316606084015260048101546080840152600581015460a0840152600681015460c08401526007810154909160e084019160ff169081111561273957612739613fab565b600181111561274a5761274a613fab565b90525092915050565b60008281526072602052604090206001015461276e81612e03565b6115d6838361301f565b60008051602061444683398151915261279081612e03565b60d680546001600160a01b03199081166001600160a01b038c81169190911790925560d7805482168a841617905560d8805490911691881691909117905560d985905560da84905560db83905560dc80546bffffffffffffffffffffffff19166001600160601b03841617905560405188907f79bfbe6a96e4e1aa5e9e20131cf39e6f9922cebfde9b2e12e0c60b1d8a6c959f90600090a2505050505050505050565b6000548034101561289d5760405162461bcd60e51b815260206004820152602e60248201527f486569726c6f6f6d204d61726b6574706c6163653a20496e636f72726563742060448201526d1c185e5b595b9d08185b5bdd5b9d60921b606482015260840161082a565b60a45460ff16156128e35760405162461bcd60e51b815260206004820152601060248201526f14185d5cd8589b194e881c185d5cd95960821b604482015260640161082a565b6001600160a01b03851663e985e9c5336040516001600160e01b031960e084901b1681526001600160a01b039091166004820152306024820152604401602060405180830381865afa15801561293d573d6000803e3d6000fd5b505050506040513d601f19601f8201168201806040525081019061296191906142f7565b6129df5760405162461bcd60e51b815260206004820152604360248201527f486569726c6f6f6d204d61726b6574706c6163653a206d61726b6574206f706560448201527f7261746f72206e6f7420617070726f76656420666f722074686973206c697374606482015262696e6760e81b608482015260a40161082a565b816001600160a01b03861662fdd58e336040516001600160e01b031960e084901b1681526001600160a01b03909116600482015260248101889052604401602060405180830381865afa158015612a3a573d6000803e3d6000fd5b505050506040513d601f19601f82011682018060405250810190612a5e9190614319565b1015612ad25760405162461bcd60e51b815260206004820152603060248201527f486569726c6f6f6d204d61726b6574706c6163653a20696e737566666963696560448201527f6e7420276e6674272062616c616e636500000000000000000000000000000000606482015260840161082a565b612ae0600780546001019055565b6000612aeb60075490565b90506000604051806101000160405280878152602001838152602001886001600160a01b03168152602001612b1d3390565b6001600160a01b031681526020018681526020018581526020016000815260200160006001811115612b5157612b51613fab565b90526000838152600c60209081526040918290208351815590830151600180830191909155918301516002820180546001600160a01b039283166001600160a01b03199182161790915560608501516003840180549190931691161790556080830151600482015560a0830151600582015560c0830151600682015560e0830151600782018054949550859492939192909160ff19909116908381811115612bfb57612bfb613fab565b021790555050600454600054612c1d92506001600160a01b0390911690612e64565b6003546001600160a01b03166375cd51ed336040516001600160e01b031960e084901b1681526001600160a01b039091166004820152602401602060405180830381865afa158015612c73573d6000803e3d6000fd5b505050506040513d601f19601f82011682018060405250810190612c9791906142f7565b612d0f576003546001600160a01b031663133572ba33336040516001600160e01b031960e085901b1681526001600160a01b03928316600482015291166024820152604401600060405180830381600087803b158015612cf657600080fd5b505af1158015612d0a573d6000803e3d6000fd5b505050505b8386837fa29719e0668112fd314a3f01101222c563cd19f94809a1483b5c39bcfb5d0cdb33604080516001600160a01b039092168252602082018b905201610fdd565b6000600080516020614446833981519152612d6c81612e03565b60a45460ff16612db55760405162461bcd60e51b815260206004820152601460248201527314185d5cd8589b194e881b9bdd081c185d5cd95960621b604482015260640161082a565b600280546001600160a01b0319166001600160a01b0385169081179091556040517f43ab431641dd45dd0661cad4b820e826d7c526af92e3121e1242d721f82ab3ad90600090a25090919050565b61189081336135e0565b805480612e5c5760405162461bcd60e51b815260206004820152601b60248201527f436f756e7465723a2064656372656d656e74206f766572666c6f770000000000604482015260640161082a565b600019019055565b80471015612eb45760405162461bcd60e51b815260206004820152601d60248201527f416464726573733a20696e73756666696369656e742062616c616e6365000000604482015260640161082a565b6000826001600160a01b03168260405160006040518083038185875af1925050503d8060008114612f01576040519150601f19603f3d011682016040523d82523d6000602084013e612f06565b606091505b50509050806115d65760405162461bcd60e51b815260206004820152603a60248201527f416464726573733a20756e61626c6520746f2073656e642076616c75652c207260448201527f6563697069656e74206d61792068617665207265766572746564000000000000606482015260840161082a565b60008281526072602090815260408083206001600160a01b038516845290915290205460ff166117145760008281526072602090815260408083206001600160a01b03851684529091529020805460ff19166001179055612fdb3390565b6001600160a01b0316816001600160a01b0316837f2f8788117e7eff1d82e926ec794901d17c78024a50270940304540a733656f0d60405160405180910390a45050565b60008281526072602090815260408083206001600160a01b038516845290915290205460ff16156117145760008281526072602090815260408083206001600160a01b0385168085529252808320805460ff1916905551339285917ff6391f5c32d9c69d2a47ea670b442974b53935d1edc7fd64eb21e047a839171b9190a45050565b6000805160206144468339815191526130ba81612e03565b60a45460ff166117145760405162461bcd60e51b815260206004820152601460248201527314185d5cd8589b194e881b9bdd081c185d5cd95960621b604482015260640161082a565b7f4910fdfa16fed3260ed0e7147f7cc6da11a60208b5b9406d12a635614ffd91435460ff1615613136576115d683613660565b826001600160a01b03166352d1902d6040518163ffffffff1660e01b8152600401602060405180830381865afa925050508015613190575060408051601f3d908101601f1916820190925261318d91810190614319565b60015b6132025760405162461bcd60e51b815260206004820152602e60248201527f45524331393637557067726164653a206e657720696d706c656d656e7461746960448201527f6f6e206973206e6f742055555053000000000000000000000000000000000000606482015260840161082a565b7f360894a13ba1a3210667c828492db98dca3e2076cc3735a920a3ca505d382bbc81146132835760405162461bcd60e51b815260206004820152602960248201527f45524331393637557067726164653a20756e737570706f727465642070726f786044820152681a58589b195555525160ba1b606482015260840161082a565b506115d683838361370e565b60a45460ff166132d85760405162461bcd60e51b815260206004820152601460248201527314185d5cd8589b194e881b9bdd081c185d5cd95960621b604482015260640161082a565b60a4805460ff191690557f5db9ee0a495bf2e6ff9c91a7834c1ba4fdd244a5e8aa4e537bd38aeae4b073aa335b6040516001600160a01b03909116815260200160405180910390a1565b600d54600090610100900460ff16156133b2578160ff1660011480156133475750303b155b6133aa5760405162461bcd60e51b815260206004820152602e60248201527f496e697469616c697a61626c653a20636f6e747261637420697320616c72656160448201526d191e481a5b9a5d1a585b1a5e995960921b606482015260840161082a565b506000919050565b600d5460ff8084169116106134205760405162461bcd60e51b815260206004820152602e60248201527f496e697469616c697a61626c653a20636f6e747261637420697320616c72656160448201526d191e481a5b9a5d1a585b1a5e995960921b606482015260840161082a565b50600d805460ff191660ff92909216919091179055600190565b600d54610100900460ff166134a55760405162461bcd60e51b815260206004820152602b60248201527f496e697469616c697a61626c653a20636f6e7472616374206973206e6f74206960448201526a6e697469616c697a696e6760a81b606482015260840161082a565b565b600d54610100900460ff166135125760405162461bcd60e51b815260206004820152602b60248201527f496e697469616c697a61626c653a20636f6e7472616374206973206e6f74206960448201526a6e697469616c697a696e6760a81b606482015260840161082a565b6134a5613739565b600082815260726020526040808220600101805490849055905190918391839186917fbd79b86ffe0ab8e8776151514217cd7cacd52c909f66475c3af44e129f0b00ff9190a4505050565b60a45460ff16156135ab5760405162461bcd60e51b815260206004820152601060248201526f14185d5cd8589b194e881c185d5cd95960821b604482015260640161082a565b60a4805460ff191660011790557f62e78cea01bee320cd4e420270b5ea74000d11b0c9f74754ebdbfc544b05a2586133053390565b60008281526072602090815260408083206001600160a01b038516845290915290205460ff166117145761361e816001600160a01b031660146137b0565b6136298360206137b0565b60405160200161363a92919061435e565b60408051601f198184030181529082905262461bcd60e51b825261082a916004016143df565b6001600160a01b0381163b6136cd5760405162461bcd60e51b815260206004820152602d60248201527f455243313936373a206e657720696d706c656d656e746174696f6e206973206e60448201526c1bdd08184818dbdb9d1c9858dd609a1b606482015260840161082a565b7f360894a13ba1a3210667c828492db98dca3e2076cc3735a920a3ca505d382bbc80546001600160a01b0319166001600160a01b0392909216919091179055565b61371783613960565b6000825111806137245750805b156115d65761373383836139a0565b50505050565b600d54610100900460ff166137a45760405162461bcd60e51b815260206004820152602b60248201527f496e697469616c697a61626c653a20636f6e7472616374206973206e6f74206960448201526a6e697469616c697a696e6760a81b606482015260840161082a565b60a4805460ff19169055565b606060006137bf83600261415b565b6137ca90600261417a565b67ffffffffffffffff8111156137e2576137e2613cc6565b6040519080825280601f01601f19166020018201604052801561380c576020820181803683370190505b509050600360fc1b8160008151811061382757613827614281565b60200101906001600160f81b031916908160001a905350600f60fb1b8160018151811061385657613856614281565b60200101906001600160f81b031916908160001a905350600061387a84600261415b565b61388590600161417a565b90505b600181111561390a577f303132333435363738396162636465660000000000000000000000000000000085600f16601081106138c6576138c6614281565b1a60f81b8282815181106138dc576138dc614281565b60200101906001600160f81b031916908160001a90535060049490941c9361390381614412565b9050613888565b5083156139595760405162461bcd60e51b815260206004820181905260248201527f537472696e67733a20686578206c656e67746820696e73756666696369656e74604482015260640161082a565b9392505050565b61396981613660565b6040516001600160a01b038216907fbc7cd75a20ee27fd9adebab32041f755214dbc6bffa90cc0225b39da2e5c2d3b90600090a250565b606061395983836040518060600160405280602781526020016144666027913960606001600160a01b0384163b613a285760405162461bcd60e51b815260206004820152602660248201527f416464726573733a2064656c65676174652063616c6c20746f206e6f6e2d636f6044820152651b9d1c9858dd60d21b606482015260840161082a565b600080856001600160a01b031685604051613a439190614429565b600060405180830381855af49150503d8060008114613a7e576040519150601f19603f3d011682016040523d82523d6000602084013e613a83565b606091505b5091509150613a93828286613a9d565b9695505050505050565b60608315613aac575081613959565b825115613abc5782518084602001fd5b8160405162461bcd60e51b815260040161082a91906143df565b604051806101a001604052806000815260200160006001600160a01b0316815260200160006001600160a01b031681526020016000815260200160006001600160a01b0316815260200160006001600160a01b0316815260200160008152602001600081526020016000815260200160008152602001600081526020016000151581526020016000151581525090565b604051806101000160405280600081526020016000815260200160006001600160a01b0316815260200160006001600160a01b0316815260200160008152602001600081526020016000815260200160006001811115613bc857613bc8613fab565b905290565b600060208284031215613bdf57600080fd5b5035919050565b600060208284031215613bf857600080fd5b81356001600160e01b03198116811461395957600080fd5b60008060408385031215613c2357600080fd5b50508035926020909101359150565b6001600160a01b038116811461189057600080fd5b60008060408385031215613c5a57600080fd5b823591506020830135613c6c81613c32565b809150509250929050565b6001600160601b038116811461189057600080fd5b600060208284031215613c9e57600080fd5b813561395981613c77565b600060208284031215613cbb57600080fd5b813561395981613c32565b634e487b7160e01b600052604160045260246000fd5b6040516060810167ffffffffffffffff81118282101715613cff57613cff613cc6565b60405290565b604051601f8201601f1916810167ffffffffffffffff81118282101715613d2e57613d2e613cc6565b604052919050565b60008060408385031215613d4957600080fd5b8235613d5481613c32565b915060208381013567ffffffffffffffff80821115613d7257600080fd5b818601915086601f830112613d8657600080fd5b813581811115613d9857613d98613cc6565b613daa601f8201601f19168501613d05565b91508082528784828501011115613dc057600080fd5b80848401858401376000848284010152508093505050509250929050565b805182526020810151613dfc60208401826001600160a01b03169052565b506040810151613e1760408401826001600160a01b03169052565b50606081015160608301526080810151613e3c60808401826001600160a01b03169052565b5060a0810151613e5760a08401826001600160a01b03169052565b5060c0818101519083015260e08082015190830152610100808201519083015261012080820151908301526101408082015190830152610160808201511515908301526101808082015180151582850152613733565b6020808252825182820181905260009190848201906040850190845b81811015613ef057613edc838551613dde565b928401926101a09290920191600101613ec9565b50909695505050505050565b600080600080600080600080610100898b031215613f1957600080fd5b8835613f2481613c32565b97506020890135613f3481613c32565b9650604089013595506060890135613f4b81613c32565b94506080890135613f5b81613c32565b935060a0890135613f6b81613c32565b925060c0890135613f7b81613c32565b915060e0890135613f8b81613c77565b809150509295985092959890939650565b6101a0810161095b8284613dde565b634e487b7160e01b600052602160045260246000fd5b60028110613fdf57634e487b7160e01b600052602160045260246000fd5b9052565b805182526020810151602083015260408101516001600160a01b03808216604085015280606084015116606085015250506080810151608083015260a081015160a083015260c081015160c083015260e08101516115d660e0840182613fc1565b6020808252825182820181905260009190848201906040850190845b81811015613ef057614073838551613fe3565b928401926101009290920191600101614060565b610100810161095b8284613fe3565b600080600080600080600080610100898b0312156140b357600080fd5b88356140be81613c32565b97506020890135965060408901356140d581613c32565b955060608901356140e581613c32565b94506080890135935060a0890135925060c0890135915060e0890135613f8b81613c77565b6000806000806080858703121561412057600080fd5b843561412b81613c32565b966020860135965060408601359560600135945092505050565b634e487b7160e01b600052601160045260246000fd5b600081600019048311821515161561417557614175614145565b500290565b6000821982111561418d5761418d614145565b500190565b600060208083850312156141a557600080fd5b825167ffffffffffffffff808211156141bd57600080fd5b818501915085601f8301126141d157600080fd5b8151818111156141e3576141e3613cc6565b6141f1848260051b01613d05565b8181528481019250606091820284018501918883111561421057600080fd5b938501935b828510156142755780858a03121561422d5760008081fd5b614235613cdc565b855161424081613c32565b81528587015161424f81613c32565b8188015260408681015161426281613c77565b9082015284529384019392850192614215565b50979650505050505050565b634e487b7160e01b600052603260045260246000fd5b6000826142b457634e487b7160e01b600052601260045260246000fd5b500490565b6000828210156142cb576142cb614145565b500390565b6020810161095b8284613fc1565b6000600182016142f0576142f0614145565b5060010190565b60006020828403121561430957600080fd5b8151801515811461395957600080fd5b60006020828403121561432b57600080fd5b5051919050565b60005b8381101561434d578181015183820152602001614335565b838111156137335750506000910152565b7f416363657373436f6e74726f6c3a206163636f756e7420000000000000000000815260008351614396816017850160208801614332565b7f206973206d697373696e6720726f6c652000000000000000000000000000000060179184019182015283516143d3816028840160208801614332565b01602801949350505050565b60208152600082518060208401526143fe816040850160208701614332565b601f01601f19169190910160400192915050565b60008161442157614421614145565b506000190190565b6000825161443b818460208701614332565b919091019291505056fefddb143be89620896ce3745ceb136fd672c98dea954adb8724dcfae9dc08796d416464726573733a206c6f772d6c6576656c2064656c65676174652063616c6c206661696c6564a26469706673582212205948bba1222cb839effd9635391e8c0ed85730d10dd4abaa1c6685e68e5ae17564736f6c634300080e0033",
  "immutableReferences": {
    "1945": [
      {
        "length": 32,
        "start": 5922
      },
      {
        "length": 32,
        "start": 6055
      },
      {
        "length": 32,
        "start": 6452
      },
      {
        "length": 32,
        "start": 6585
      },
      {
        "length": 32,
        "start": 6815
      }
    ]
  },
  "source": "// SPDX-License-Identifier: UNLICENSED\r\npragma solidity ^0.8.0;\r\npragma abicoder v2;\r\n\r\nimport \"@openzeppelin/contracts/token/ERC1155/IERC1155.sol\";\r\nimport \"@openzeppelin/contracts/token/ERC1155/ERC1155.sol\";\r\nimport \"@openzeppelin/contracts/token/ERC20/IERC20.sol\";\r\n\r\nimport \"@openzeppelin/contracts/utils/Address.sol\";\r\nimport \"@openzeppelin/contracts/token/ERC20/utils/SafeERC20.sol\";\r\nimport \"@openzeppelin/contracts/utils/Counters.sol\";\r\n\r\nimport \"./HeirloomMarketplace.sol\";\r\n\r\n/**\r\n    @title heirloomdao nft marketplace contract\r\n*/\r\ncontract HeirloomMarketplaceV2 is HeirloomMarketplace  {\r\n    \r\n    address public nftContractAddress;\r\n    address public _licenseProvider;\r\n    address public ref;\r\n    uint256 public _start;\r\n    uint256 public _end; \r\n    uint256 public _price; \r\n    uint96 public _rbp; \r\n\r\n    event MaxSupply (uint256 indexed maxSupply);\r\n    \r\n    function createSale(address nftContract, uint256 maxSupply, address licenseProvider, address refferer, uint256 start, uint256 end, uint256 price, uint96 rbp) public override virtual onlyRole(ADMIN_ROLE) {\r\n        nftContractAddress = nftContract;\r\n        _licenseProvider = licenseProvider;\r\n        ref = refferer;\r\n        _start = start;\r\n        _end = end;\r\n        _price = price;\r\n        _rbp = rbp;\r\n        emit MaxSupply(maxSupply);\r\n    }\r\n\r\n    function verifyUser(address user) external override virtual onlyRole(ADMIN_ROLE) {\r\n        _isVerified[user] = true;\r\n        emit UserVerified(user);\r\n    }\r\n}  ",
  "sourcePath": "C:\\Users\\DELL\\Documents\\heirloomdao\\contracts\\contracts\\HeirloomMarketplaceV2.sol",
  "compiler": {
    "name": "solc",
    "version": "0.8.14+commit.80d49f37.Emscripten.clang"
  },
  "schemaVersion": "3.4.7",
  "updatedAt": "2022-06-07T10:45:15.656Z",
  "devdoc": {
    "kind": "dev",
    "methods": {
      "activateFutureSale(uint256)": {
        "params": {
          "saleId": "id of the sale to be activated"
        }
      },
      "closeSaleOnDeadline(uint256)": {
        "params": {
          "saleId": "id of the sale to be closed"
        }
      },
      "createSale(address,uint256,address,address,uint256,uint256,uint256,uint96)": {
        "params": {
          "end": "enddate of sale",
          "maxSupply": "token cap of license",
          "nftContract": "nft contract for minting license nft",
          "price": "of the item in the sale",
          "rbp": "royalty basis points, percentage of royalty to be collected by license creator",
          "refferer": "address of the refferer",
          "start": "startDate of the sale"
        }
      },
      "fetchLicense(uint256)": {
        "params": {
          "licenseId": "id of the listed license"
        }
      },
      "fetchSale(uint256)": {
        "params": {
          "saleId": "id of the sale to be retrieved"
        }
      },
      "forceCloseSale(uint256)": {
        "params": {
          "saleId": "id of the sale to be forced closed"
        }
      },
      "getRoleAdmin(bytes32)": {
        "details": "Returns the admin role that controls `role`. See {grantRole} and {revokeRole}. To change a role's admin, use {_setRoleAdmin}."
      },
      "grantRole(bytes32,address)": {
        "details": "Grants `role` to `account`. If `account` had not been already granted `role`, emits a {RoleGranted} event. Requirements: - the caller must have ``role``'s admin role."
      },
      "hasRole(bytes32,address)": {
        "details": "Returns `true` if `account` has been granted `role`."
      },
      "isUserVerified(address)": {
        "params": {
          "user": "checks wheter a user is verified"
        }
      },
      "listLicense(address,uint256,uint256,uint256)": {
        "params": {
          "amount": "the amount of nfts to be put up for sale",
          "nftContract": "nft contract address of the license nft",
          "price": "to sell license for",
          "tokenId": "the tokenId of the Saas License nft"
        }
      },
      "participate(uint256,uint256)": {
        "details": "erc20 transfer needs to be pre-approved",
        "params": {
          "amount": "number of licenses to buy",
          "saleId": "id of the ongoing sale"
        }
      },
      "paused()": {
        "details": "Returns true if the contract is paused, and false otherwise."
      },
      "proxiableUUID()": {
        "details": "Implementation of the ERC1822 {proxiableUUID} function. This returns the storage slot used by the implementation. It is used to validate that the this implementation remains valid after an upgrade. IMPORTANT: A proxy pointing at a proxiable contract should not be considered proxiable itself, because this risks bricking a proxy that upgrades to it, by delegating to itself until out of gas. Thus it is critical that this function revert if invoked through a proxy. This is guaranteed by the `notDelegated` modifier."
      },
      "purchaseLicense(uint256,uint256)": {
        "params": {
          "amount": "amount to purchase ",
          "licenseId": "id of the license to sell"
        }
      },
      "renounceRole(bytes32,address)": {
        "details": "Revokes `role` from the calling account. Roles are often managed via {grantRole} and {revokeRole}: this function's purpose is to provide a mechanism for accounts to lose their privileges if they are compromised (such as when a trusted device is misplaced). If the calling account had been revoked `role`, emits a {RoleRevoked} event. Requirements: - the caller must be `account`."
      },
      "revokeRole(bytes32,address)": {
        "details": "Revokes `role` from `account`. If `account` had been granted `role`, emits a {RoleRevoked} event. Requirements: - the caller must have ``role``'s admin role."
      },
      "setCommissionRBP(uint96)": {
        "params": {
          "newBP": "new commission basis points"
        }
      },
      "setListingFee(uint256)": {
        "params": {
          "newListingFee": "new listing fee"
        }
      },
      "supportsInterface(bytes4)": {
        "details": "See {IERC165-supportsInterface}."
      },
      "updateEscrowListed(address)": {
        "params": {
          "newEscrow": "address to which escrow is updated"
        }
      },
      "updateEscrowSales(address)": {
        "params": {
          "newEscrow": "address to which escrow is updated"
        }
      },
      "updateTreasury(address)": {
        "params": {
          "newTreasury": "address to which treasury is updated"
        }
      },
      "upgradeTo(address)": {
        "details": "Upgrade the implementation of the proxy to `newImplementation`. Calls {_authorizeUpgrade}. Emits an {Upgraded} event."
      },
      "upgradeToAndCall(address,bytes)": {
        "details": "Upgrade the implementation of the proxy to `newImplementation`, and subsequently execute the function call encoded in `data`. Calls {_authorizeUpgrade}. Emits an {Upgraded} event."
      },
      "verifyUser(address)": {
        "params": {
          "user": "verifies a user on request of verifier"
        }
      }
    },
    "title": "heirloomdao nft marketplace contract",
    "version": 1
  },
  "userdoc": {
    "events": {
      "BoughtFromSale(uint256,uint256,address,uint256)": {
        "notice": "emitted after a license is bought from a sale"
      },
      "CommissionUpdated(uint96)": {
        "notice": "emitted after the commission basis points is updated "
      },
      "EscrowUpdated(address)": {
        "notice": "emitted after the treasury is updated "
      },
      "LicenseListed(uint256,uint256,address,uint256,uint256)": {
        "notice": "emitted after a license is listed by a user"
      },
      "LicenseSold(uint256,uint256,address,address,uint256,uint256)": {
        "notice": "emitted after a license is listed by a user"
      },
      "ListedLicenseClosed(uint256,uint256,address,uint8)": {
        "notice": "emitted after a listed license is closed"
      },
      "ListingFeeUpdated(uint256)": {
        "notice": "emitted after the listing fee is updated "
      },
      "SaleActivated(uint256)": {
        "notice": "emitted after a (future) sale is activated"
      },
      "SaleClosed(uint256)": {
        "notice": "emitted after a close sale"
      },
      "SaleCreated(address,uint256,uint256)": {
        "notice": "emitted after every sale created"
      },
      "TokenUpdated(address)": {
        "notice": "emitted after the treasury is updated "
      },
      "TreasuryUpdated(address)": {
        "notice": "emitted after the treasury is updated "
      },
      "UserVerified(address)": {
        "notice": "emitted after the treasury is updated "
      }
    },
    "kind": "user",
    "methods": {
      "activateFutureSale(uint256)": {
        "notice": "activates a sale that starts of which its start date is < block timestamp"
      },
      "closeSaleOnDeadline(uint256)": {
        "notice": "closes a sale id only if deadline is passed "
      },
      "createSale(address,uint256,address,address,uint256,uint256,uint256,uint96)": {
        "notice": "creates a saleItem"
      },
      "fetchActiveSales()": {
        "notice": "fetches all of the active nft license sales on the platform"
      },
      "fetchLicense(uint256)": {
        "notice": "fetches a license with a given licenseid"
      },
      "fetchListedLicenses()": {
        "notice": "fetches all tokenIds listed for sale"
      },
      "fetchSale(uint256)": {
        "notice": "retrieves a sale"
      },
      "forceCloseSale(uint256)": {
        "notice": "allows creator of a sale to foricibly end a sale"
      },
      "isUserVerified(address)": {
        "notice": "verifies a user"
      },
      "listLicense(address,uint256,uint256,uint256)": {
        "notice": "gives the heirloom operator permission to sell an token amount on behalf of the user"
      },
      "participate(uint256,uint256)": {
        "notice": "allows a user to participate in a license sale"
      },
      "purchaseLicense(uint256,uint256)": {
        "notice": "transfers license item to send on tokenTransfer"
      },
      "setCommissionRBP(uint96)": {
        "notice": "sets new commission rbp"
      },
      "setListingFee(uint256)": {
        "notice": "sets the listing fee"
      },
      "updateEscrowListed(address)": {
        "notice": "sets a new escrow address"
      },
      "updateEscrowSales(address)": {
        "notice": "sets a new escrow address"
      },
      "updateTreasury(address)": {
        "notice": "sets a new treasury address"
      },
      "verifyUser(address)": {
        "notice": "verifies a user"
      }
    },
    "version": 1
  }
}